{
  "address": "0x96529D298C4896DFa98A4351BD498Aa0Ad1dcAF8",
  "abi": [
    {
      "inputs": [
        {
          "internalType": "string",
          "name": "name_",
          "type": "string"
        },
        {
          "internalType": "contract ERC20Votes",
          "name": "token_",
          "type": "address"
        },
        {
          "internalType": "uint256",
          "name": "votingDelay_",
          "type": "uint256"
        },
        {
          "internalType": "uint256",
          "name": "votingPeriod_",
          "type": "uint256"
        },
        {
          "internalType": "contract TimelockController",
          "name": "timelock_",
          "type": "address"
        },
        {
          "internalType": "uint256",
          "name": "quorumNumerator_",
          "type": "uint256"
        }
      ],
      "stateMutability": "nonpayable",
      "type": "constructor"
    },
    {
      "anonymous": false,
      "inputs": [
        {
          "indexed": false,
          "internalType": "uint256",
          "name": "proposalId",
          "type": "uint256"
        }
      ],
      "name": "ProposalCanceled",
      "type": "event"
    },
    {
      "anonymous": false,
      "inputs": [
        {
          "indexed": false,
          "internalType": "uint256",
          "name": "proposalId",
          "type": "uint256"
        },
        {
          "indexed": false,
          "internalType": "address",
          "name": "proposer",
          "type": "address"
        },
        {
          "indexed": false,
          "internalType": "address[]",
          "name": "targets",
          "type": "address[]"
        },
        {
          "indexed": false,
          "internalType": "uint256[]",
          "name": "values",
          "type": "uint256[]"
        },
        {
          "indexed": false,
          "internalType": "string[]",
          "name": "signatures",
          "type": "string[]"
        },
        {
          "indexed": false,
          "internalType": "bytes[]",
          "name": "calldatas",
          "type": "bytes[]"
        },
        {
          "indexed": false,
          "internalType": "uint256",
          "name": "startBlock",
          "type": "uint256"
        },
        {
          "indexed": false,
          "internalType": "uint256",
          "name": "endBlock",
          "type": "uint256"
        },
        {
          "indexed": false,
          "internalType": "string",
          "name": "description",
          "type": "string"
        }
      ],
      "name": "ProposalCreated",
      "type": "event"
    },
    {
      "anonymous": false,
      "inputs": [
        {
          "indexed": false,
          "internalType": "uint256",
          "name": "proposalId",
          "type": "uint256"
        }
      ],
      "name": "ProposalExecuted",
      "type": "event"
    },
    {
      "anonymous": false,
      "inputs": [
        {
          "indexed": false,
          "internalType": "uint256",
          "name": "proposalId",
          "type": "uint256"
        },
        {
          "indexed": false,
          "internalType": "uint256",
          "name": "eta",
          "type": "uint256"
        }
      ],
      "name": "ProposalQueued",
      "type": "event"
    },
    {
      "anonymous": false,
      "inputs": [
        {
          "indexed": false,
          "internalType": "uint256",
          "name": "oldQuorumNumerator",
          "type": "uint256"
        },
        {
          "indexed": false,
          "internalType": "uint256",
          "name": "newQuorumNumerator",
          "type": "uint256"
        }
      ],
      "name": "QuorumNumeratorUpdated",
      "type": "event"
    },
    {
      "anonymous": false,
      "inputs": [
        {
          "indexed": false,
          "internalType": "address",
          "name": "oldTimelock",
          "type": "address"
        },
        {
          "indexed": false,
          "internalType": "address",
          "name": "newTimelock",
          "type": "address"
        }
      ],
      "name": "TimelockChange",
      "type": "event"
    },
    {
      "anonymous": false,
      "inputs": [
        {
          "indexed": true,
          "internalType": "address",
          "name": "voter",
          "type": "address"
        },
        {
          "indexed": false,
          "internalType": "uint256",
          "name": "proposalId",
          "type": "uint256"
        },
        {
          "indexed": false,
          "internalType": "uint8",
          "name": "support",
          "type": "uint8"
        },
        {
          "indexed": false,
          "internalType": "uint256",
          "name": "weight",
          "type": "uint256"
        },
        {
          "indexed": false,
          "internalType": "string",
          "name": "reason",
          "type": "string"
        }
      ],
      "name": "VoteCast",
      "type": "event"
    },
    {
      "inputs": [],
      "name": "BALLOT_TYPEHASH",
      "outputs": [
        {
          "internalType": "bytes32",
          "name": "",
          "type": "bytes32"
        }
      ],
      "stateMutability": "view",
      "type": "function"
    },
    {
      "inputs": [],
      "name": "COUNTING_MODE",
      "outputs": [
        {
          "internalType": "string",
          "name": "",
          "type": "string"
        }
      ],
      "stateMutability": "pure",
      "type": "function"
    },
    {
      "inputs": [
        {
          "internalType": "address[]",
          "name": "targets",
          "type": "address[]"
        },
        {
          "internalType": "uint256[]",
          "name": "values",
          "type": "uint256[]"
        },
        {
          "internalType": "bytes[]",
          "name": "calldatas",
          "type": "bytes[]"
        },
        {
          "internalType": "bytes32",
          "name": "descriptionHash",
          "type": "bytes32"
        }
      ],
      "name": "cancel",
      "outputs": [
        {
          "internalType": "uint256",
          "name": "proposalId",
          "type": "uint256"
        }
      ],
      "stateMutability": "nonpayable",
      "type": "function"
    },
    {
      "inputs": [
        {
          "internalType": "uint256",
          "name": "proposalId",
          "type": "uint256"
        },
        {
          "internalType": "uint8",
          "name": "support",
          "type": "uint8"
        }
      ],
      "name": "castVote",
      "outputs": [
        {
          "internalType": "uint256",
          "name": "",
          "type": "uint256"
        }
      ],
      "stateMutability": "nonpayable",
      "type": "function"
    },
    {
      "inputs": [
        {
          "internalType": "uint256",
          "name": "proposalId",
          "type": "uint256"
        },
        {
          "internalType": "uint8",
          "name": "support",
          "type": "uint8"
        },
        {
          "internalType": "uint8",
          "name": "v",
          "type": "uint8"
        },
        {
          "internalType": "bytes32",
          "name": "r",
          "type": "bytes32"
        },
        {
          "internalType": "bytes32",
          "name": "s",
          "type": "bytes32"
        }
      ],
      "name": "castVoteBySig",
      "outputs": [
        {
          "internalType": "uint256",
          "name": "",
          "type": "uint256"
        }
      ],
      "stateMutability": "nonpayable",
      "type": "function"
    },
    {
      "inputs": [
        {
          "internalType": "uint256",
          "name": "proposalId",
          "type": "uint256"
        },
        {
          "internalType": "uint8",
          "name": "support",
          "type": "uint8"
        },
        {
          "internalType": "string",
          "name": "reason",
          "type": "string"
        }
      ],
      "name": "castVoteWithReason",
      "outputs": [
        {
          "internalType": "uint256",
          "name": "",
          "type": "uint256"
        }
      ],
      "stateMutability": "nonpayable",
      "type": "function"
    },
    {
      "inputs": [
        {
          "internalType": "address[]",
          "name": "targets",
          "type": "address[]"
        },
        {
          "internalType": "uint256[]",
          "name": "values",
          "type": "uint256[]"
        },
        {
          "internalType": "bytes[]",
          "name": "calldatas",
          "type": "bytes[]"
        },
        {
          "internalType": "bytes32",
          "name": "descriptionHash",
          "type": "bytes32"
        }
      ],
      "name": "execute",
      "outputs": [
        {
          "internalType": "uint256",
          "name": "",
          "type": "uint256"
        }
      ],
      "stateMutability": "payable",
      "type": "function"
    },
    {
      "inputs": [
        {
          "internalType": "address",
          "name": "account",
          "type": "address"
        },
        {
          "internalType": "uint256",
          "name": "blockNumber",
          "type": "uint256"
        }
      ],
      "name": "getVotes",
      "outputs": [
        {
          "internalType": "uint256",
          "name": "",
          "type": "uint256"
        }
      ],
      "stateMutability": "view",
      "type": "function"
    },
    {
      "inputs": [
        {
          "internalType": "uint256",
          "name": "proposalId",
          "type": "uint256"
        },
        {
          "internalType": "address",
          "name": "account",
          "type": "address"
        }
      ],
      "name": "hasVoted",
      "outputs": [
        {
          "internalType": "bool",
          "name": "",
          "type": "bool"
        }
      ],
      "stateMutability": "view",
      "type": "function"
    },
    {
      "inputs": [
        {
          "internalType": "address[]",
          "name": "targets",
          "type": "address[]"
        },
        {
          "internalType": "uint256[]",
          "name": "values",
          "type": "uint256[]"
        },
        {
          "internalType": "bytes[]",
          "name": "calldatas",
          "type": "bytes[]"
        },
        {
          "internalType": "bytes32",
          "name": "descriptionHash",
          "type": "bytes32"
        }
      ],
      "name": "hashProposal",
      "outputs": [
        {
          "internalType": "uint256",
          "name": "",
          "type": "uint256"
        }
      ],
      "stateMutability": "pure",
      "type": "function"
    },
    {
      "inputs": [],
      "name": "name",
      "outputs": [
        {
          "internalType": "string",
          "name": "",
          "type": "string"
        }
      ],
      "stateMutability": "view",
      "type": "function"
    },
    {
      "inputs": [
        {
          "internalType": "uint256",
          "name": "proposalId",
          "type": "uint256"
        }
      ],
      "name": "proposalDeadline",
      "outputs": [
        {
          "internalType": "uint256",
          "name": "",
          "type": "uint256"
        }
      ],
      "stateMutability": "view",
      "type": "function"
    },
    {
      "inputs": [
        {
          "internalType": "uint256",
          "name": "proposalId",
          "type": "uint256"
        }
      ],
      "name": "proposalEta",
      "outputs": [
        {
          "internalType": "uint256",
          "name": "",
          "type": "uint256"
        }
      ],
      "stateMutability": "view",
      "type": "function"
    },
    {
      "inputs": [
        {
          "internalType": "uint256",
          "name": "proposalId",
          "type": "uint256"
        }
      ],
      "name": "proposalSnapshot",
      "outputs": [
        {
          "internalType": "uint256",
          "name": "",
          "type": "uint256"
        }
      ],
      "stateMutability": "view",
      "type": "function"
    },
    {
      "inputs": [
        {
          "internalType": "uint256",
          "name": "proposalId",
          "type": "uint256"
        }
      ],
      "name": "proposalVotes",
      "outputs": [
        {
          "internalType": "uint256",
          "name": "againstVotes",
          "type": "uint256"
        },
        {
          "internalType": "uint256",
          "name": "forVotes",
          "type": "uint256"
        },
        {
          "internalType": "uint256",
          "name": "abstainVotes",
          "type": "uint256"
        }
      ],
      "stateMutability": "view",
      "type": "function"
    },
    {
      "inputs": [
        {
          "internalType": "address[]",
          "name": "targets",
          "type": "address[]"
        },
        {
          "internalType": "uint256[]",
          "name": "values",
          "type": "uint256[]"
        },
        {
          "internalType": "bytes[]",
          "name": "calldatas",
          "type": "bytes[]"
        },
        {
          "internalType": "string",
          "name": "description",
          "type": "string"
        }
      ],
      "name": "propose",
      "outputs": [
        {
          "internalType": "uint256",
          "name": "",
          "type": "uint256"
        }
      ],
      "stateMutability": "nonpayable",
      "type": "function"
    },
    {
      "inputs": [
        {
          "internalType": "address[]",
          "name": "targets",
          "type": "address[]"
        },
        {
          "internalType": "uint256[]",
          "name": "values",
          "type": "uint256[]"
        },
        {
          "internalType": "bytes[]",
          "name": "calldatas",
          "type": "bytes[]"
        },
        {
          "internalType": "bytes32",
          "name": "descriptionHash",
          "type": "bytes32"
        }
      ],
      "name": "queue",
      "outputs": [
        {
          "internalType": "uint256",
          "name": "",
          "type": "uint256"
        }
      ],
      "stateMutability": "nonpayable",
      "type": "function"
    },
    {
      "inputs": [
        {
          "internalType": "uint256",
          "name": "blockNumber",
          "type": "uint256"
        }
      ],
      "name": "quorum",
      "outputs": [
        {
          "internalType": "uint256",
          "name": "",
          "type": "uint256"
        }
      ],
      "stateMutability": "view",
      "type": "function"
    },
    {
      "inputs": [],
      "name": "quorumDenominator",
      "outputs": [
        {
          "internalType": "uint256",
          "name": "",
          "type": "uint256"
        }
      ],
      "stateMutability": "view",
      "type": "function"
    },
    {
      "inputs": [],
      "name": "quorumNumerator",
      "outputs": [
        {
          "internalType": "uint256",
          "name": "",
          "type": "uint256"
        }
      ],
      "stateMutability": "view",
      "type": "function"
    },
    {
      "inputs": [
        {
          "internalType": "uint256",
          "name": "proposalId",
          "type": "uint256"
        }
      ],
      "name": "state",
      "outputs": [
        {
          "internalType": "enum IGovernor.ProposalState",
          "name": "",
          "type": "uint8"
        }
      ],
      "stateMutability": "view",
      "type": "function"
    },
    {
      "inputs": [
        {
          "internalType": "bytes4",
          "name": "interfaceId",
          "type": "bytes4"
        }
      ],
      "name": "supportsInterface",
      "outputs": [
        {
          "internalType": "bool",
          "name": "",
          "type": "bool"
        }
      ],
      "stateMutability": "view",
      "type": "function"
    },
    {
      "inputs": [],
      "name": "timelock",
      "outputs": [
        {
          "internalType": "address",
          "name": "",
          "type": "address"
        }
      ],
      "stateMutability": "view",
      "type": "function"
    },
    {
      "inputs": [],
      "name": "token",
      "outputs": [
        {
          "internalType": "contract ERC20Votes",
          "name": "",
          "type": "address"
        }
      ],
      "stateMutability": "view",
      "type": "function"
    },
    {
      "inputs": [
        {
          "internalType": "uint256",
          "name": "newQuorumNumerator",
          "type": "uint256"
        }
      ],
      "name": "updateQuorumNumerator",
      "outputs": [],
      "stateMutability": "nonpayable",
      "type": "function"
    },
    {
      "inputs": [
        {
          "internalType": "contract TimelockController",
          "name": "newTimelock",
          "type": "address"
        }
      ],
      "name": "updateTimelock",
      "outputs": [],
      "stateMutability": "nonpayable",
      "type": "function"
    },
    {
      "inputs": [],
      "name": "version",
      "outputs": [
        {
          "internalType": "string",
          "name": "",
          "type": "string"
        }
      ],
      "stateMutability": "view",
      "type": "function"
    },
    {
      "inputs": [],
      "name": "votingDelay",
      "outputs": [
        {
          "internalType": "uint256",
          "name": "",
          "type": "uint256"
        }
      ],
      "stateMutability": "view",
      "type": "function"
    },
    {
      "inputs": [],
      "name": "votingPeriod",
      "outputs": [
        {
          "internalType": "uint256",
          "name": "",
          "type": "uint256"
        }
      ],
      "stateMutability": "view",
      "type": "function"
    }
  ],
  "transactionHash": "0xdafd49454863d0e03d59d248e91bb27f533f524ccb405284bb2b6864f066061c",
  "args": [
    "OZ-Governor",
    "0x991201dD7ECb57bcD32fd2d69d7B0642dF68C5FD",
    4,
    16,
    "0x082b67C471fE8095fb72a4cD585804DC9aC0D79E",
    0
  ],
  "solcInputHash": "301a93e068c77f9668016aa22ad7c0ca",
  "bytecode": "0x6101806040523480156200001257600080fd5b5060405162002f0f38038062002f0f83398101604081905262000035916200032e565b8085838880620000596040805180820190915260018152603160f81b602082015290565b815160209283012081519183019190912060c082815260e08290524660a0818152604080517f8b73c3c69bb8fe3d512ecc4cf759cc79239f7b179b0ffacaa9a75d522b39400f818901819052818301979097526060810195909552608080860193909352308583015280518086039092018252939092019092528051908401209052610100528151620000f391600091908401906200026b565b506200010190508162000135565b5060601b6001600160601b031916610120526200011e816200019e565b5050506101409190915261016052506200049a9050565b600254604080516001600160a01b03928316815291831660208301527f08f74ea46ef7894f65eabfb5e6e695de773a000b47c529ab559178069b226401910160405180910390a1600280546001600160a01b0319166001600160a01b0392909216919091179055565b6064811115620002265760405162461bcd60e51b815260206004820152604360248201527f476f7665726e6f72566f74657351756f72756d4672616374696f6e3a2071756f60448201527f72756d4e756d657261746f72206f7665722071756f72756d44656e6f6d696e616064820152623a37b960e91b608482015260a40160405180910390fd5b600480549082905560408051828152602081018490527f0553476bf02ef2726e8ce5ced78d63e26e602e4a2257b1f559418e24b4633997910160405180910390a15050565b828054620002799062000447565b90600052602060002090601f0160209004810192826200029d5760008555620002e8565b82601f10620002b857805160ff1916838001178555620002e8565b82800160010185558215620002e8579182015b82811115620002e8578251825591602001919060010190620002cb565b50620002f6929150620002fa565b5090565b5b80821115620002f65760008155600101620002fb565b80516001600160a01b03811681146200032957600080fd5b919050565b60008060008060008060c0878903121562000347578182fd5b86516001600160401b03808211156200035e578384fd5b818901915089601f83011262000372578384fd5b81518181111562000387576200038762000484565b604051601f8201601f19908116603f01168101908382118183101715620003b257620003b262000484565b81604052828152602093508c84848701011115620003ce578687fd5b8691505b82821015620003f15784820184015181830185015290830190620003d2565b828211156200040257868484830101525b99506200041491505089820162000311565b965050506040870151935060608701519250620004346080880162000311565b915060a087015190509295509295509295565b600181811c908216806200045c57607f821691505b602082108114156200047e57634e487b7160e01b600052602260045260246000fd5b50919050565b634e487b7160e01b600052604160045260246000fd5b60805160a05160c05160e051610100516101205160601c61014051610160516129f06200051f6000396000818161020b0152610d6f0152600081816102df0152610d2f015260008181610640015281816114b1015261154a015260006116df0152600061172e015260006117090152600061168d015260006116b601526129f06000f3fe6080604052600436106101c25760003560e01c806356781388116100f7578063c01f9e3711610095578063deaaa7cc11610064578063deaaa7cc146105ba578063eb9019d4146105ee578063f8ce560a1461060e578063fc0c546a1461062e57600080fd5b8063c01f9e3714610502578063c59057e414610522578063d33219b414610542578063dd4e2ba51461057457600080fd5b806397c3d334116100d157806397c3d33414610499578063a7713a70146104ad578063a890c910146104c2578063ab58fb8e146104e257600080fd5b806356781388146104395780637b3c71d3146104595780637d5e81e21461047957600080fd5b80633932abb111610164578063438596321161013e5780634385963214610350578063452115d61461039a578063544ffc9c146103ba57806354fd4d501461040f57600080fd5b80633932abb1146102d05780633bccf4fd146103035780633e4f49e61461032357600080fd5b806306fdde03116101a057806306fdde031461025b578063160cbed71461027d5780632656227d1461029d5780632d63f693146102b057600080fd5b806301ffc9a7146101c757806302a251a3146101fc57806306f3f9e614610239575b600080fd5b3480156101d357600080fd5b506101e76101e2366004612316565b610662565b60405190151581526020015b60405180910390f35b34801561020857600080fd5b507f00000000000000000000000000000000000000000000000000000000000000005b6040519081526020016101f3565b34801561024557600080fd5b5061025961025436600461235a565b610673565b005b34801561026757600080fd5b506102706106e7565b6040516101f391906126c4565b34801561028957600080fd5b5061022b610298366004612199565b610779565b61022b6102ab366004612199565b6109a6565b3480156102bc57600080fd5b5061022b6102cb36600461235a565b610a95565b3480156102dc57600080fd5b507f000000000000000000000000000000000000000000000000000000000000000061022b565b34801561030f57600080fd5b5061022b61031e36600461244d565b610acc565b34801561032f57600080fd5b5061034361033e36600461235a565b610b60565b6040516101f3919061269c565b34801561035c57600080fd5b506101e761036b366004612372565b60008281526005602090815260408083206001600160a01b038516845260030190915290205460ff1692915050565b3480156103a657600080fd5b5061022b6103b5366004612199565b610b6b565b3480156103c657600080fd5b506103f46103d536600461235a565b6000908152600560205260409020805460018201546002909201549092565b604080519384526020840192909252908201526060016101f3565b34801561041b57600080fd5b506040805180820190915260018152603160f81b6020820152610270565b34801561044557600080fd5b5061022b6104543660046123a1565b610b82565b34801561046557600080fd5b5061022b6104743660046123cc565b610bab565b34801561048557600080fd5b5061022b610494366004612224565b610bfd565b3480156104a557600080fd5b50606461022b565b3480156104b957600080fd5b5060045461022b565b3480156104ce57600080fd5b506102596104dd36600461233e565b610e85565b3480156104ee57600080fd5b5061022b6104fd36600461235a565b610ef1565b34801561050e57600080fd5b5061022b61051d36600461235a565b610f9b565b34801561052e57600080fd5b5061022b61053d366004612199565b610fca565b34801561054e57600080fd5b506002546001600160a01b03165b6040516001600160a01b0390911681526020016101f3565b34801561058057600080fd5b506040805180820190915260208082527f737570706f72743d627261766f2671756f72756d3d666f722c6162737461696e90820152610270565b3480156105c657600080fd5b5061022b7f150214d74d59b7d1e90c73fc22ef3d991dd0a76b046543d4d80ab92d2a50328f81565b3480156105fa57600080fd5b5061022b61060936600461216e565b611004565b34801561061a57600080fd5b5061022b61062936600461235a565b611010565b34801561063a57600080fd5b5061055c7f000000000000000000000000000000000000000000000000000000000000000081565b600061066d8261101b565b92915050565b61067b611040565b6001600160a01b0316336001600160a01b0316146106db5760405162461bcd60e51b8152602060048201526018602482015277476f7665726e6f723a206f6e6c79476f7665726e616e636560401b60448201526064015b60405180910390fd5b6106e481611059565b50565b6060600080546106f690612944565b80601f016020809104026020016040519081016040528092919081815260200182805461072290612944565b801561076f5780601f106107445761010080835404028352916020019161076f565b820191906000526020600020905b81548152906001019060200180831161075257829003601f168201915b5050505050905090565b60008061078886868686610fca565b9050600461079582610b60565b60078111156107b457634e487b7160e01b600052602160045260246000fd5b146107d15760405162461bcd60e51b81526004016106d290612718565b6002546040805163793d064960e11b815290516000926001600160a01b03169163f27a0c92916004808301926020929190829003018186803b15801561081657600080fd5b505afa15801561082a573d6000803e3d6000fd5b505050506040513d601f19601f8201168201806040525081019061084e91906122fe565b60025460405163b1c5f42760e01b81529192506001600160a01b03169063b1c5f42790610888908a908a908a906000908b906004016125f6565b60206040518083038186803b1580156108a057600080fd5b505afa1580156108b4573d6000803e3d6000fd5b505050506040513d601f19601f820116820180604052508101906108d891906122fe565b6000838152600360205260408082209290925560025491516308f2a0bb60e41b81526001600160a01b0390921691638f2a0bb091610923918b918b918b91908b908990600401612644565b600060405180830381600087803b15801561093d57600080fd5b505af1158015610951573d6000803e3d6000fd5b505050507f9a2e42fd6722813d69113e7d0079d3d940171428df7373df9c7f7617cfda289282824261098391906128c2565b604080519283526020830191909152015b60405180910390a15095945050505050565b6000806109b586868686610fca565b905060006109c282610b60565b905060048160078111156109e657634e487b7160e01b600052602160045260246000fd5b1480610a1157506005816007811115610a0f57634e487b7160e01b600052602160045260246000fd5b145b610a2d5760405162461bcd60e51b81526004016106d290612718565b600082815260016020818152604092839020600201805460ff191690921790915590518381527f712ae1383f79ac853f8d882153778e0260ef8f03b504e2866e0593e04d2b291f910160405180910390a1610a8b8288888888611121565b5095945050505050565b60008181526001602090815260408083208151928301909152546001600160401b0316908190525b6001600160401b031692915050565b604080517f150214d74d59b7d1e90c73fc22ef3d991dd0a76b046543d4d80ab92d2a50328f602082015290810186905260ff851660608201526000908190610b3890610b309060800160405160208183030381529060405280519060200120611135565b868686611183565b9050610b55878288604051806020016040528060008152506111a1565b979650505050505050565b600061066d826112ba565b6000610b79858585856113a5565b95945050505050565b600080339050610ba3848285604051806020016040528060008152506111a1565b949350505050565b600080339050610bf386828787878080601f0160208091040260200160405190810160405280939291908181526020018383808284376000920191909152506111a192505050565b9695505050505050565b600080610c138686868680519060200120610fca565b90508451865114610c365760405162461bcd60e51b81526004016106d2906126d7565b8351865114610c575760405162461bcd60e51b81526004016106d2906126d7565b6000865111610ca85760405162461bcd60e51b815260206004820152601860248201527f476f7665726e6f723a20656d7074792070726f706f73616c000000000000000060448201526064016106d2565b600081815260016020908152604091829020825191820190925281546001600160401b03169081905215610d285760405162461bcd60e51b815260206004820152602160248201527f476f7665726e6f723a2070726f706f73616c20616c72656164792065786973746044820152607360f81b60648201526084016106d2565b6000610d537f00000000000000000000000000000000000000000000000000000000000000006113b3565b610d5c436113b3565b610d6691906128da565b90506000610d937f00000000000000000000000000000000000000000000000000000000000000006113b3565b610d9d90836128da565b835467ffffffffffffffff19166001600160401b038416178455905060018301805467ffffffffffffffff19166001600160401b0383161790557f7d84a6263ae0d98d3329bd7b46bb4e8d6f98cd35a7adb45c274c8b7fd5ebd5e084338b8b8d516001600160401b03811115610e2357634e487b7160e01b600052604160045260246000fd5b604051908082528060200260200182016040528015610e5657816020015b6060815260200190600190039081610e415790505b508c88888e604051610e7099989796959493929190612759565b60405180910390a15091979650505050505050565b610e8d611040565b6001600160a01b0316336001600160a01b031614610ee85760405162461bcd60e51b8152602060048201526018602482015277476f7665726e6f723a206f6e6c79476f7665726e616e636560401b60448201526064016106d2565b6106e48161141f565b60025460008281526003602052604080822054905163d45c443560e01b81526004810191909152909182916001600160a01b039091169063d45c44359060240160206040518083038186803b158015610f4957600080fd5b505afa158015610f5d573d6000803e3d6000fd5b505050506040513d601f19601f82011682018060405250810190610f8191906122fe565b905080600114610f915780610f94565b60005b9392505050565b60008181526001602081815260408084208151928301909152909101546001600160401b031690819052610abd565b600084848484604051602001610fe394939291906125ab565b60408051601f19818403018152919052805160209091012095945050505050565b6000610f948383611488565b600061066d8261152d565b60006001600160e01b03198216636e665ced60e01b148061066d575061066d826115e0565b60006110546002546001600160a01b031690565b905090565b60648111156110dc5760405162461bcd60e51b815260206004820152604360248201527f476f7665726e6f72566f74657351756f72756d4672616374696f6e3a2071756f60448201527f72756d4e756d657261746f72206f7665722071756f72756d44656e6f6d696e616064820152623a37b960e91b608482015260a4016106d2565b600480549082905560408051828152602081018490527f0553476bf02ef2726e8ce5ced78d63e26e602e4a2257b1f559418e24b4633997910160405180910390a15050565b61112e8585858585611615565b5050505050565b600061066d611142611689565b8360405161190160f01b6020820152602281018390526042810182905260009060620160405160208183030381529060405280519060200120905092915050565b60008060006111948787878761177c565b91509150610a8b81611869565b60008481526001602081905260408220906111bb87610b60565b60078111156111da57634e487b7160e01b600052602160045260246000fd5b146112335760405162461bcd60e51b815260206004820152602360248201527f476f7665726e6f723a20766f7465206e6f742063757272656e746c792061637460448201526269766560e81b60648201526084016106d2565b604080516020810190915281546001600160401b03169081905260009061125b908790611004565b905061126987878784611a6a565b856001600160a01b03167fb8e138887d0aa13bab447e82de9d5c1777041ecd21ca36ba824ff1e6c07ddda4888784886040516112a89493929190612847565b60405180910390a29695505050505050565b6000806112c683611be9565b905060048160078111156112ea57634e487b7160e01b600052602160045260246000fd5b146112f55792915050565b60008381526003602052604090205480611310575092915050565b600254604051632ab0f52960e01b8152600481018390526001600160a01b0390911690632ab0f5299060240160206040518083038186803b15801561135457600080fd5b505afa158015611368573d6000803e3d6000fd5b505050506040513d601f19601f8201168201806040525081019061138c91906122de565b1561139b575060079392505050565b5060059392505050565b6000610b7985858585611d4c565b60006001600160401b0382111561141b5760405162461bcd60e51b815260206004820152602660248201527f53616665436173743a2076616c756520646f65736e27742066697420696e203660448201526534206269747360d01b60648201526084016106d2565b5090565b600254604080516001600160a01b03928316815291831660208301527f08f74ea46ef7894f65eabfb5e6e695de773a000b47c529ab559178069b226401910160405180910390a1600280546001600160a01b0319166001600160a01b0392909216919091179055565b604051630748d63560e31b81526001600160a01b038381166004830152602482018390526000917f000000000000000000000000000000000000000000000000000000000000000090911690633a46b1a89060440160206040518083038186803b1580156114f557600080fd5b505afa158015611509573d6000803e3d6000fd5b505050506040513d601f19601f82011682018060405250810190610f9491906122fe565b60006064600454604051632394e7a360e21b8152600481018590527f00000000000000000000000000000000000000000000000000000000000000006001600160a01b031690638e539e8c9060240160206040518083038186803b15801561159457600080fd5b505afa1580156115a8573d6000803e3d6000fd5b505050506040513d601f19601f820116820180604052508101906115cc91906122fe565b6115d69190612925565b61066d9190612905565b60006001600160e01b0319821663bf26d89760e01b148061066d57506301ffc9a760e01b6001600160e01b031983161461066d565b60025460405163e38335e560e01b81526001600160a01b039091169063e38335e59034906116509088908890889060009089906004016125f6565b6000604051808303818588803b15801561166957600080fd5b505af115801561167d573d6000803e3d6000fd5b50505050505050505050565b60007f00000000000000000000000000000000000000000000000000000000000000004614156116d857507f000000000000000000000000000000000000000000000000000000000000000090565b50604080517f00000000000000000000000000000000000000000000000000000000000000006020808301919091527f0000000000000000000000000000000000000000000000000000000000000000828401527f000000000000000000000000000000000000000000000000000000000000000060608301524660808301523060a0808401919091528351808403909101815260c0909201909252805191012090565b6000807f7fffffffffffffffffffffffffffffff5d576e7357a4501ddfe92f46681b20a08311156117b35750600090506003611860565b8460ff16601b141580156117cb57508460ff16601c14155b156117dc5750600090506004611860565b6040805160008082526020820180845289905260ff881692820192909252606081018690526080810185905260019060a0016020604051602081039080840390855afa158015611830573d6000803e3d6000fd5b5050604051601f1901519150506001600160a01b03811661185957600060019250925050611860565b9150600090505b94509492505050565b600081600481111561188b57634e487b7160e01b600052602160045260246000fd5b14156118945750565b60018160048111156118b657634e487b7160e01b600052602160045260246000fd5b14156119045760405162461bcd60e51b815260206004820152601860248201527f45434453413a20696e76616c6964207369676e6174757265000000000000000060448201526064016106d2565b600281600481111561192657634e487b7160e01b600052602160045260246000fd5b14156119745760405162461bcd60e51b815260206004820152601f60248201527f45434453413a20696e76616c6964207369676e6174757265206c656e6774680060448201526064016106d2565b600381600481111561199657634e487b7160e01b600052602160045260246000fd5b14156119ef5760405162461bcd60e51b815260206004820152602260248201527f45434453413a20696e76616c6964207369676e6174757265202773272076616c604482015261756560f01b60648201526084016106d2565b6004816004811115611a1157634e487b7160e01b600052602160045260246000fd5b14156106e45760405162461bcd60e51b815260206004820152602260248201527f45434453413a20696e76616c6964207369676e6174757265202776272076616c604482015261756560f01b60648201526084016106d2565b60008481526005602090815260408083206001600160a01b0387168452600381019092529091205460ff1615611af25760405162461bcd60e51b815260206004820152602760248201527f476f7665726e6f72566f74696e6753696d706c653a20766f746520616c726561604482015266191e4818d85cdd60ca1b60648201526084016106d2565b6001600160a01b03841660009081526003820160205260408120805460ff1916600117905560ff168360ff161415611b435781816000016000828254611b3891906128c2565b9091555061112e9050565b60ff831660011415611b635781816001016000828254611b3891906128c2565b60ff831660021415611b835781816002016000828254611b3891906128c2565b60405162461bcd60e51b815260206004820152603560248201527f476f7665726e6f72566f74696e6753696d706c653a20696e76616c69642076616044820152746c756520666f7220656e756d20566f74655479706560581b60648201526084016106d2565b6000818152600160208181526040808420815160a08101835281546001600160401b0390811660808301908152825283518086018552958301541685529283019390935260029092015460ff80821615801594840194909452610100909104161515606082015290611c5e5750600792915050565b806060015115611c715750600292915050565b805151436001600160401b039091161115611c8f5750600092915050565b602081015151436001600160401b039091161115611cb05750600192915050565b611cbd8160200151611dfe565b15611cfe57611ccb83611e2d565b8015611cea575060008381526005602052604090208054600190910154115b611cf5576003610f94565b60049392505050565b60405162461bcd60e51b815260206004820152601d60248201527f476f7665726e6f723a20756e6b6e6f776e2070726f706f73616c20696400000060448201526064016106d2565b50919050565b600080611d5b86868686611e64565b60008181526003602052604090205490915015610b79576002546000828152600360205260409081902054905163c4d252f560e01b81526001600160a01b039092169163c4d252f591611db49160040190815260200190565b600060405180830381600087803b158015611dce57600080fd5b505af1158015611de2573d6000803e3d6000fd5b5050506000828152600360205260408120555095945050505050565b6000611e1382516001600160401b0316151590565b801561066d57505051436001600160401b03909116111590565b600081815260056020526040812060028101546001820154611e4f91906128c2565b611e5b61062985610a95565b11159392505050565b600080611e7386868686610fca565b90506000611e8082610b60565b90506002816007811115611ea457634e487b7160e01b600052602160045260246000fd5b14158015611ed257506006816007811115611ecf57634e487b7160e01b600052602160045260246000fd5b14155b8015611efe57506007816007811115611efb57634e487b7160e01b600052602160045260246000fd5b14155b611f4a5760405162461bcd60e51b815260206004820152601d60248201527f476f7665726e6f723a2070726f706f73616c206e6f742061637469766500000060448201526064016106d2565b60008281526001602052604090819020600201805461ff001916610100179055517f789cf55be980739dad1d0699b93b58e806b51c9d96619bfa8fe0a28abaa7b30c906109949084815260200190565b60006001600160401b03831115611fb357611fb361298f565b611fc6601f8401601f191660200161286f565b9050828152838383011115611fda57600080fd5b828260208301376000602084830101529392505050565b600082601f830112612001578081fd5b813560206120166120118361289f565b61286f565b80838252828201915082860187848660051b8901011115612035578586fd5b855b8581101561205c57813561204a816129a5565b84529284019290840190600101612037565b5090979650505050505050565b600082601f830112612079578081fd5b813560206120896120118361289f565b80838252828201915082860187848660051b89010111156120a8578586fd5b855b8581101561205c5781356001600160401b038111156120c7578788fd5b8801603f81018a136120d7578788fd5b6120e88a8783013560408401611f9a565b85525092840192908401906001016120aa565b600082601f83011261210b578081fd5b8135602061211b6120118361289f565b80838252828201915082860187848660051b890101111561213a578586fd5b855b8581101561205c5781358452928401929084019060010161213c565b803560ff8116811461216957600080fd5b919050565b60008060408385031215612180578182fd5b823561218b816129a5565b946020939093013593505050565b600080600080608085870312156121ae578182fd5b84356001600160401b03808211156121c4578384fd5b6121d088838901611ff1565b955060208701359150808211156121e5578384fd5b6121f1888389016120fb565b94506040870135915080821115612206578384fd5b5061221387828801612069565b949793965093946060013593505050565b60008060008060808587031215612239578384fd5b84356001600160401b038082111561224f578586fd5b61225b88838901611ff1565b95506020870135915080821115612270578485fd5b61227c888389016120fb565b94506040870135915080821115612291578384fd5b61229d88838901612069565b935060608701359150808211156122b2578283fd5b508501601f810187136122c3578182fd5b6122d287823560208401611f9a565b91505092959194509250565b6000602082840312156122ef578081fd5b81518015158114610f94578182fd5b60006020828403121561230f578081fd5b5051919050565b600060208284031215612327578081fd5b81356001600160e01b031981168114610f94578182fd5b60006020828403121561234f578081fd5b8135610f94816129a5565b60006020828403121561236b578081fd5b5035919050565b60008060408385031215612384578182fd5b823591506020830135612396816129a5565b809150509250929050565b600080604083850312156123b3578182fd5b823591506123c360208401612158565b90509250929050565b600080600080606085870312156123e1578182fd5b843593506123f160208601612158565b925060408501356001600160401b038082111561240c578384fd5b818701915087601f83011261241f578384fd5b81358181111561242d578485fd5b88602082850101111561243e578485fd5b95989497505060200194505050565b600080600080600060a08688031215612464578283fd5b8535945061247460208701612158565b935061248260408701612158565b94979396509394606081013594506080013592915050565b6000815180845260208085019450808401835b838110156124d25781516001600160a01b0316875295820195908201906001016124ad565b509495945050505050565b600081518084526020808501808196508360051b81019150828601855b85811015612524578284038952612512848351612560565b988501989350908401906001016124fa565b5091979650505050505050565b6000815180845260208085019450808401835b838110156124d257815187529582019590820190600101612544565b60008151808452815b8181101561258557602081850181015186830182015201612569565b818111156125965782602083870101525b50601f01601f19169290920160200192915050565b6080815260006125be608083018761249a565b82810360208401526125d08187612531565b905082810360408401526125e481866124dd565b91505082606083015295945050505050565b60a08152600061260960a083018861249a565b828103602084015261261b8188612531565b9050828103604084015261262f81876124dd565b60608401959095525050608001529392505050565b60c08152600061265760c083018961249a565b82810360208401526126698189612531565b9050828103604084015261267d81886124dd565b60608401969096525050608081019290925260a0909101529392505050565b60208101600883106126be57634e487b7160e01b600052602160045260246000fd5b91905290565b602081526000610f946020830184612560565b60208082526021908201527f476f7665726e6f723a20696e76616c69642070726f706f73616c206c656e67746040820152600d60fb1b606082015260800190565b60208082526021908201527f476f7665726e6f723a2070726f706f73616c206e6f74207375636365737366756040820152601b60fa1b606082015260800190565b60006101208b8352602060018060a01b038c16818501528160408501526127828285018c61249a565b91508382036060850152612796828b612531565b915083820360808501528189518084528284019150828160051b850101838c01865b838110156127e657601f198784030185526127d4838351612560565b948601949250908501906001016127b8565b505086810360a08801526127fa818c6124dd565b94505050505061281560c08401876001600160401b03169052565b6001600160401b03851660e08401528281036101008401526128378185612560565b9c9b505050505050505050505050565b84815260ff84166020820152826040820152608060608201526000610bf36080830184612560565b604051601f8201601f191681016001600160401b03811182821017156128975761289761298f565b604052919050565b60006001600160401b038211156128b8576128b861298f565b5060051b60200190565b600082198211156128d5576128d5612979565b500190565b60006001600160401b038083168185168083038211156128fc576128fc612979565b01949350505050565b60008261292057634e487b7160e01b81526012600452602481fd5b500490565b600081600019048311821515161561293f5761293f612979565b500290565b600181811c9082168061295857607f821691505b60208210811415611d4657634e487b7160e01b600052602260045260246000fd5b634e487b7160e01b600052601160045260246000fd5b634e487b7160e01b600052604160045260246000fd5b6001600160a01b03811681146106e457600080fdfea2646970667358221220ffaab142f17075b445309443f85696a8f7d8bdf71ed7ec60f523c1c7f2c8a06164736f6c63430008040033",
  "devdoc": {
    "kind": "dev",
    "methods": {
      "COUNTING_MODE()": {
        "details": "See {IGovernor-COUNTING_MODE}."
      },
      "castVote(uint256,uint8)": {
        "details": "See {IGovernor-castVote}."
      },
      "castVoteBySig(uint256,uint8,uint8,bytes32,bytes32)": {
        "details": "See {IGovernor-castVoteBySig}."
      },
      "castVoteWithReason(uint256,uint8,string)": {
        "details": "See {IGovernor-castVoteWithReason}."
      },
      "execute(address[],uint256[],bytes[],bytes32)": {
        "details": "See {IGovernor-execute}."
      },
      "hasVoted(uint256,address)": {
        "details": "See {IGovernor-hasVoted}."
      },
      "hashProposal(address[],uint256[],bytes[],bytes32)": {
        "details": "See {IGovernor-hashProposal}. The proposal id is produced by hashing the RLC encoded `targets` array, the `values` array, the `calldatas` array and the descriptionHash (bytes32 which itself is the keccak256 hash of the description string). This proposal id can be produced from the proposal data which is part of the {ProposalCreated} event. It can even be computed in advance, before the proposal is submitted. Note that the chainId and the governor address are not part of the proposal id computation. Consequently, the same proposal (with same operation and same description) will have the same id if submitted on multiple governors accross multiple networks. This also means that in order to execute the same operation twice (on the same governor) the proposer will have to change the description in order to avoid proposal id conflicts."
      },
      "name()": {
        "details": "See {IGovernor-name}."
      },
      "proposalDeadline(uint256)": {
        "details": "See {IGovernor-proposalDeadline}."
      },
      "proposalEta(uint256)": {
        "details": "Public accessor to check the eta of a queued proposal"
      },
      "proposalSnapshot(uint256)": {
        "details": "See {IGovernor-proposalSnapshot}."
      },
      "proposalVotes(uint256)": {
        "details": "Accessor to the internal vote counts."
      },
      "propose(address[],uint256[],bytes[],string)": {
        "details": "See {IGovernor-propose}."
      },
      "queue(address[],uint256[],bytes[],bytes32)": {
        "details": "Function to queue a proposal to the timelock."
      },
      "timelock()": {
        "details": "Public accessor to check the address of the timelock"
      },
      "updateTimelock(address)": {
        "details": "Public endpoint to update the underlying timelock instance. Restricted to the timelock itself, so updates must be proposed, scheduled and executed using the {Governor} workflow."
      },
      "version()": {
        "details": "See {IGovernor-version}."
      },
      "votingDelay()": {
        "details": "delay, in number of block, between the proposal is created and the vote starts. This can be increassed to leave time for users to buy voting power, of delegate it, before the voting of a proposal starts."
      },
      "votingPeriod()": {
        "details": "delay, in number of blocks, between the vote start and vote ends. Note: the {votingDelay} can delay the start of the vote. This must be considered when setting the voting duration compared to the voting delay."
      }
    },
    "version": 1
  },
  "userdoc": {
    "kind": "user",
    "methods": {
      "state(uint256)": {
        "notice": "Overriding nightmare"
      },
      "votingDelay()": {
        "notice": "module:user-config"
      },
      "votingPeriod()": {
        "notice": "module:user-config"
      }
    },
    "version": 1
  },
  "storageLayout": {
    "storage": [
      {
        "astId": 527,
        "contract": "contracts/polygon/mocks/GovernorTimelockControlMock.sol:GovernorTimelockControlMock",
        "label": "_name",
        "offset": 0,
        "slot": "0",
        "type": "t_string_storage"
      },
      {
        "astId": 532,
        "contract": "contracts/polygon/mocks/GovernorTimelockControlMock.sol:GovernorTimelockControlMock",
        "label": "_proposals",
        "offset": 0,
        "slot": "1",
        "type": "t_mapping(t_uint256,t_struct(ProposalCore)525_storage)"
      },
      {
        "astId": 2572,
        "contract": "contracts/polygon/mocks/GovernorTimelockControlMock.sol:GovernorTimelockControlMock",
        "label": "_timelock",
        "offset": 0,
        "slot": "2",
        "type": "t_contract(TimelockController)2280"
      },
      {
        "astId": 2576,
        "contract": "contracts/polygon/mocks/GovernorTimelockControlMock.sol:GovernorTimelockControlMock",
        "label": "_timelockIds",
        "offset": 0,
        "slot": "3",
        "type": "t_mapping(t_uint256,t_bytes32)"
      },
      {
        "astId": 2976,
        "contract": "contracts/polygon/mocks/GovernorTimelockControlMock.sol:GovernorTimelockControlMock",
        "label": "_quorumNumerator",
        "offset": 0,
        "slot": "4",
        "type": "t_uint256"
      },
      {
        "astId": 2306,
        "contract": "contracts/polygon/mocks/GovernorTimelockControlMock.sol:GovernorTimelockControlMock",
        "label": "_proposalVotes",
        "offset": 0,
        "slot": "5",
        "type": "t_mapping(t_uint256,t_struct(ProposalVote)2301_storage)"
      }
    ],
    "types": {
      "t_address": {
        "encoding": "inplace",
        "label": "address",
        "numberOfBytes": "20"
      },
      "t_bool": {
        "encoding": "inplace",
        "label": "bool",
        "numberOfBytes": "1"
      },
      "t_bytes32": {
        "encoding": "inplace",
        "label": "bytes32",
        "numberOfBytes": "32"
      },
      "t_contract(TimelockController)2280": {
        "encoding": "inplace",
        "label": "contract TimelockController",
        "numberOfBytes": "20"
      },
      "t_mapping(t_address,t_bool)": {
        "encoding": "mapping",
        "key": "t_address",
        "label": "mapping(address => bool)",
        "numberOfBytes": "32",
        "value": "t_bool"
      },
      "t_mapping(t_uint256,t_bytes32)": {
        "encoding": "mapping",
        "key": "t_uint256",
        "label": "mapping(uint256 => bytes32)",
        "numberOfBytes": "32",
        "value": "t_bytes32"
      },
      "t_mapping(t_uint256,t_struct(ProposalCore)525_storage)": {
        "encoding": "mapping",
        "key": "t_uint256",
        "label": "mapping(uint256 => struct Governor.ProposalCore)",
        "numberOfBytes": "32",
        "value": "t_struct(ProposalCore)525_storage"
      },
      "t_mapping(t_uint256,t_struct(ProposalVote)2301_storage)": {
        "encoding": "mapping",
        "key": "t_uint256",
        "label": "mapping(uint256 => struct GovernorCountingSimple.ProposalVote)",
        "numberOfBytes": "32",
        "value": "t_struct(ProposalVote)2301_storage"
      },
      "t_string_storage": {
        "encoding": "bytes",
        "label": "string",
        "numberOfBytes": "32"
      },
      "t_struct(BlockNumber)6644_storage": {
        "encoding": "inplace",
        "label": "struct Timers.BlockNumber",
        "members": [
          {
            "astId": 6643,
            "contract": "contracts/polygon/mocks/GovernorTimelockControlMock.sol:GovernorTimelockControlMock",
            "label": "_deadline",
            "offset": 0,
            "slot": "0",
            "type": "t_uint64"
          }
        ],
        "numberOfBytes": "32"
      },
      "t_struct(ProposalCore)525_storage": {
        "encoding": "inplace",
        "label": "struct Governor.ProposalCore",
        "members": [
          {
            "astId": 517,
            "contract": "contracts/polygon/mocks/GovernorTimelockControlMock.sol:GovernorTimelockControlMock",
            "label": "voteStart",
            "offset": 0,
            "slot": "0",
            "type": "t_struct(BlockNumber)6644_storage"
          },
          {
            "astId": 520,
            "contract": "contracts/polygon/mocks/GovernorTimelockControlMock.sol:GovernorTimelockControlMock",
            "label": "voteEnd",
            "offset": 0,
            "slot": "1",
            "type": "t_struct(BlockNumber)6644_storage"
          },
          {
            "astId": 522,
            "contract": "contracts/polygon/mocks/GovernorTimelockControlMock.sol:GovernorTimelockControlMock",
            "label": "executed",
            "offset": 0,
            "slot": "2",
            "type": "t_bool"
          },
          {
            "astId": 524,
            "contract": "contracts/polygon/mocks/GovernorTimelockControlMock.sol:GovernorTimelockControlMock",
            "label": "canceled",
            "offset": 1,
            "slot": "2",
            "type": "t_bool"
          }
        ],
        "numberOfBytes": "96"
      },
      "t_struct(ProposalVote)2301_storage": {
        "encoding": "inplace",
        "label": "struct GovernorCountingSimple.ProposalVote",
        "members": [
          {
            "astId": 2292,
            "contract": "contracts/polygon/mocks/GovernorTimelockControlMock.sol:GovernorTimelockControlMock",
            "label": "againstVotes",
            "offset": 0,
            "slot": "0",
            "type": "t_uint256"
          },
          {
            "astId": 2294,
            "contract": "contracts/polygon/mocks/GovernorTimelockControlMock.sol:GovernorTimelockControlMock",
            "label": "forVotes",
            "offset": 0,
            "slot": "1",
            "type": "t_uint256"
          },
          {
            "astId": 2296,
            "contract": "contracts/polygon/mocks/GovernorTimelockControlMock.sol:GovernorTimelockControlMock",
            "label": "abstainVotes",
            "offset": 0,
            "slot": "2",
            "type": "t_uint256"
          },
          {
            "astId": 2300,
            "contract": "contracts/polygon/mocks/GovernorTimelockControlMock.sol:GovernorTimelockControlMock",
            "label": "hasVoted",
            "offset": 0,
            "slot": "3",
            "type": "t_mapping(t_address,t_bool)"
          }
        ],
        "numberOfBytes": "128"
      },
      "t_uint256": {
        "encoding": "inplace",
        "label": "uint256",
        "numberOfBytes": "32"
      },
      "t_uint64": {
        "encoding": "inplace",
        "label": "uint64",
        "numberOfBytes": "8"
      }
    }
  }
}