{
  "address": "0x3ABAD66CF2fF3961A0665dEA0A7824da192a7bC4",
  "abi": [
    {
      "inputs": [],
      "stateMutability": "nonpayable",
      "type": "constructor"
    },
    {
      "anonymous": false,
      "inputs": [
        {
          "indexed": true,
          "internalType": "address",
          "name": "owner",
          "type": "address"
        },
        {
          "indexed": true,
          "internalType": "address",
          "name": "spender",
          "type": "address"
        },
        {
          "indexed": false,
          "internalType": "uint256",
          "name": "value",
          "type": "uint256"
        }
      ],
      "name": "Approval",
      "type": "event"
    },
    {
      "anonymous": false,
      "inputs": [
        {
          "indexed": true,
          "internalType": "bytes32",
          "name": "role",
          "type": "bytes32"
        },
        {
          "indexed": true,
          "internalType": "bytes32",
          "name": "previousAdminRole",
          "type": "bytes32"
        },
        {
          "indexed": true,
          "internalType": "bytes32",
          "name": "newAdminRole",
          "type": "bytes32"
        }
      ],
      "name": "RoleAdminChanged",
      "type": "event"
    },
    {
      "anonymous": false,
      "inputs": [
        {
          "indexed": true,
          "internalType": "bytes32",
          "name": "role",
          "type": "bytes32"
        },
        {
          "indexed": true,
          "internalType": "address",
          "name": "account",
          "type": "address"
        },
        {
          "indexed": true,
          "internalType": "address",
          "name": "sender",
          "type": "address"
        }
      ],
      "name": "RoleGranted",
      "type": "event"
    },
    {
      "anonymous": false,
      "inputs": [
        {
          "indexed": true,
          "internalType": "bytes32",
          "name": "role",
          "type": "bytes32"
        },
        {
          "indexed": true,
          "internalType": "address",
          "name": "account",
          "type": "address"
        },
        {
          "indexed": true,
          "internalType": "address",
          "name": "sender",
          "type": "address"
        }
      ],
      "name": "RoleRevoked",
      "type": "event"
    },
    {
      "anonymous": false,
      "inputs": [
        {
          "indexed": true,
          "internalType": "address",
          "name": "from",
          "type": "address"
        },
        {
          "indexed": true,
          "internalType": "address",
          "name": "to",
          "type": "address"
        },
        {
          "indexed": false,
          "internalType": "uint256",
          "name": "value",
          "type": "uint256"
        }
      ],
      "name": "Transfer",
      "type": "event"
    },
    {
      "inputs": [],
      "name": "DEFAULT_ADMIN_ROLE",
      "outputs": [
        {
          "internalType": "bytes32",
          "name": "",
          "type": "bytes32"
        }
      ],
      "stateMutability": "view",
      "type": "function"
    },
    {
      "inputs": [],
      "name": "MINTER",
      "outputs": [
        {
          "internalType": "bytes32",
          "name": "",
          "type": "bytes32"
        }
      ],
      "stateMutability": "view",
      "type": "function"
    },
    {
      "inputs": [
        {
          "internalType": "address",
          "name": "owner",
          "type": "address"
        },
        {
          "internalType": "address",
          "name": "spender",
          "type": "address"
        }
      ],
      "name": "allowance",
      "outputs": [
        {
          "internalType": "uint256",
          "name": "",
          "type": "uint256"
        }
      ],
      "stateMutability": "view",
      "type": "function"
    },
    {
      "inputs": [
        {
          "internalType": "address",
          "name": "spender",
          "type": "address"
        },
        {
          "internalType": "uint256",
          "name": "amount",
          "type": "uint256"
        }
      ],
      "name": "approve",
      "outputs": [
        {
          "internalType": "bool",
          "name": "",
          "type": "bool"
        }
      ],
      "stateMutability": "nonpayable",
      "type": "function"
    },
    {
      "inputs": [
        {
          "internalType": "address",
          "name": "account",
          "type": "address"
        }
      ],
      "name": "balanceOf",
      "outputs": [
        {
          "internalType": "uint256",
          "name": "",
          "type": "uint256"
        }
      ],
      "stateMutability": "view",
      "type": "function"
    },
    {
      "inputs": [],
      "name": "decimals",
      "outputs": [
        {
          "internalType": "uint8",
          "name": "",
          "type": "uint8"
        }
      ],
      "stateMutability": "view",
      "type": "function"
    },
    {
      "inputs": [
        {
          "internalType": "address",
          "name": "spender",
          "type": "address"
        },
        {
          "internalType": "uint256",
          "name": "subtractedValue",
          "type": "uint256"
        }
      ],
      "name": "decreaseAllowance",
      "outputs": [
        {
          "internalType": "bool",
          "name": "",
          "type": "bool"
        }
      ],
      "stateMutability": "nonpayable",
      "type": "function"
    },
    {
      "inputs": [
        {
          "internalType": "bytes32",
          "name": "role",
          "type": "bytes32"
        }
      ],
      "name": "getRoleAdmin",
      "outputs": [
        {
          "internalType": "bytes32",
          "name": "",
          "type": "bytes32"
        }
      ],
      "stateMutability": "view",
      "type": "function"
    },
    {
      "inputs": [
        {
          "internalType": "bytes32",
          "name": "role",
          "type": "bytes32"
        },
        {
          "internalType": "address",
          "name": "account",
          "type": "address"
        }
      ],
      "name": "grantRole",
      "outputs": [],
      "stateMutability": "nonpayable",
      "type": "function"
    },
    {
      "inputs": [
        {
          "internalType": "bytes32",
          "name": "role",
          "type": "bytes32"
        },
        {
          "internalType": "address",
          "name": "account",
          "type": "address"
        }
      ],
      "name": "hasRole",
      "outputs": [
        {
          "internalType": "bool",
          "name": "",
          "type": "bool"
        }
      ],
      "stateMutability": "view",
      "type": "function"
    },
    {
      "inputs": [
        {
          "internalType": "address",
          "name": "spender",
          "type": "address"
        },
        {
          "internalType": "uint256",
          "name": "addedValue",
          "type": "uint256"
        }
      ],
      "name": "increaseAllowance",
      "outputs": [
        {
          "internalType": "bool",
          "name": "",
          "type": "bool"
        }
      ],
      "stateMutability": "nonpayable",
      "type": "function"
    },
    {
      "inputs": [
        {
          "internalType": "string",
          "name": "_name",
          "type": "string"
        },
        {
          "internalType": "string",
          "name": "_symbol",
          "type": "string"
        },
        {
          "internalType": "address",
          "name": "swapAddress",
          "type": "address"
        }
      ],
      "name": "initialize",
      "outputs": [],
      "stateMutability": "nonpayable",
      "type": "function"
    },
    {
      "inputs": [
        {
          "internalType": "address",
          "name": "account",
          "type": "address"
        },
        {
          "internalType": "uint256",
          "name": "amount",
          "type": "uint256"
        }
      ],
      "name": "mint",
      "outputs": [],
      "stateMutability": "nonpayable",
      "type": "function"
    },
    {
      "inputs": [],
      "name": "name",
      "outputs": [
        {
          "internalType": "string",
          "name": "",
          "type": "string"
        }
      ],
      "stateMutability": "view",
      "type": "function"
    },
    {
      "inputs": [
        {
          "internalType": "bytes32",
          "name": "role",
          "type": "bytes32"
        },
        {
          "internalType": "address",
          "name": "account",
          "type": "address"
        }
      ],
      "name": "renounceRole",
      "outputs": [],
      "stateMutability": "nonpayable",
      "type": "function"
    },
    {
      "inputs": [
        {
          "internalType": "bytes32",
          "name": "role",
          "type": "bytes32"
        },
        {
          "internalType": "address",
          "name": "account",
          "type": "address"
        }
      ],
      "name": "revokeRole",
      "outputs": [],
      "stateMutability": "nonpayable",
      "type": "function"
    },
    {
      "inputs": [
        {
          "internalType": "bytes4",
          "name": "interfaceId",
          "type": "bytes4"
        }
      ],
      "name": "supportsInterface",
      "outputs": [
        {
          "internalType": "bool",
          "name": "",
          "type": "bool"
        }
      ],
      "stateMutability": "view",
      "type": "function"
    },
    {
      "inputs": [],
      "name": "symbol",
      "outputs": [
        {
          "internalType": "string",
          "name": "",
          "type": "string"
        }
      ],
      "stateMutability": "view",
      "type": "function"
    },
    {
      "inputs": [],
      "name": "totalSupply",
      "outputs": [
        {
          "internalType": "uint256",
          "name": "",
          "type": "uint256"
        }
      ],
      "stateMutability": "view",
      "type": "function"
    },
    {
      "inputs": [
        {
          "internalType": "address",
          "name": "recipient",
          "type": "address"
        },
        {
          "internalType": "uint256",
          "name": "amount",
          "type": "uint256"
        }
      ],
      "name": "transfer",
      "outputs": [
        {
          "internalType": "bool",
          "name": "",
          "type": "bool"
        }
      ],
      "stateMutability": "nonpayable",
      "type": "function"
    },
    {
      "inputs": [
        {
          "internalType": "address",
          "name": "sender",
          "type": "address"
        },
        {
          "internalType": "address",
          "name": "recipient",
          "type": "address"
        },
        {
          "internalType": "uint256",
          "name": "amount",
          "type": "uint256"
        }
      ],
      "name": "transferFrom",
      "outputs": [
        {
          "internalType": "bool",
          "name": "",
          "type": "bool"
        }
      ],
      "stateMutability": "nonpayable",
      "type": "function"
    },
    {
      "inputs": [],
      "name": "uniswapV2Pair",
      "outputs": [
        {
          "internalType": "address",
          "name": "",
          "type": "address"
        }
      ],
      "stateMutability": "view",
      "type": "function"
    },
    {
      "inputs": [],
      "name": "uniswapV2Router",
      "outputs": [
        {
          "internalType": "contract IUniswapV2Router02",
          "name": "",
          "type": "address"
        }
      ],
      "stateMutability": "view",
      "type": "function"
    }
  ],
  "transactionHash": "0x5ac006b505a1ba87145818f82a8cbad01a35166ca22d34402b8048c860c777cd",
  "args": [],
  "solcInputHash": "301a93e068c77f9668016aa22ad7c0ca",
  "bytecode": "0x60806040523480156200001157600080fd5b50604080518082018252601e81527f5072697669204a6f7420546f6b656e20496d706c656d656e746174696f6e0000602080830191825283518085019094526005845264704a4f544960d81b908401528151919291620000749160039162000093565b5080516200008a90600490602084019062000093565b50505062000176565b828054620000a19062000139565b90600052602060002090601f016020900481019282620000c5576000855562000110565b82601f10620000e057805160ff191683800117855562000110565b8280016001018555821562000110579182015b8281111562000110578251825591602001919060010190620000f3565b506200011e92915062000122565b5090565b5b808211156200011e576000815560010162000123565b600181811c908216806200014e57607f821691505b602082108114156200017057634e487b7160e01b600052602260045260246000fd5b50919050565b61154e80620001866000396000f3fe608060405234801561001057600080fd5b506004361061014d5760003560e01c806339509351116100c3578063a217fddf1161007c578063a217fddf146102dc578063a457c2d7146102e4578063a9059cbb146102f7578063d547741f1461030a578063dd62ed3e1461031d578063fe6d81241461035657600080fd5b8063395093511461025f57806340c10f191461027257806349bd5a5e1461028557806370a082311461029857806391d14854146102c157806395d89b41146102d457600080fd5b806318160ddd1161011557806318160ddd146101e257806323b872dd146101f4578063248a9ca3146102075780632f2ff15d1461022a578063313ce5671461023d57806336568abe1461024c57600080fd5b806301ffc9a71461015257806306fdde031461017a578063077f224a1461018f578063095ea7b3146101a45780631694505e146101b7575b600080fd5b6101656101603660046112e4565b61037d565b60405190151581526020015b60405180910390f35b6101826103b4565b6040516101719190611402565b6101a261019d36600461130c565b610446565b005b6101656101b236600461127d565b6106f6565b6009546101ca906001600160a01b031681565b6040516001600160a01b039091168152602001610171565b6002545b604051908152602001610171565b61016561020236600461123d565b61070c565b6101e66102153660046112a8565b60009081526005602052604090206001015490565b6101a26102383660046112c0565b6107b6565b60405160128152602001610171565b6101a261025a3660046112c0565b6107e1565b61016561026d36600461127d565b61085f565b6101a261028036600461127d565b61089b565b600a546101ca906001600160a01b031681565b6101e66102a63660046111cd565b6001600160a01b031660009081526020819052604090205490565b6101656102cf3660046112c0565b6108d0565b6101826108fb565b6101e6600081565b6101656102f236600461127d565b61090a565b61016561030536600461127d565b6109a3565b6101a26103183660046112c0565b6109b0565b6101e661032b366004611205565b6001600160a01b03918216600090815260016020908152604080832093909416825291909152205490565b6101e67ff0887ba65ee2024ea881d91b74c2450ef19e1557f03bed3ea9f16b037cbe2dc981565b60006001600160e01b03198216637965db0b60e01b14806103ae57506301ffc9a760e01b6001600160e01b03198316145b92915050565b6060600780546103c3906114af565b80601f01602080910402602001604051908101604052809291908181526020018280546103ef906114af565b801561043c5780601f106104115761010080835404028352916020019161043c565b820191906000526020600020905b81548152906001019060200180831161041f57829003601f168201915b5050505050905090565b600654610100900460ff168061045f575060065460ff16155b6104c75760405162461bcd60e51b815260206004820152602e60248201527f496e697469616c697a61626c653a20636f6e747261637420697320616c72656160448201526d191e481a5b9a5d1a585b1a5e995960921b60648201526084015b60405180910390fd5b600654610100900460ff161580156104e9576006805461ffff19166101011790555b6104f5600787876110ed565b50610502600885856110ed565b5061052d7ff0887ba65ee2024ea881d91b74c2450ef19e1557f03bed3ea9f16b037cbe2dc9336109d6565b600980546001600160a01b0319166001600160a01b0384169081179091556040805163c45a015560e01b8152905184929163c45a0155916004808301926020929190829003018186803b15801561058357600080fd5b505afa158015610597573d6000803e3d6000fd5b505050506040513d601f19601f820116820180604052508101906105bb91906111e9565b6001600160a01b031663c9c6539630836001600160a01b031663ad5c46486040518163ffffffff1660e01b815260040160206040518083038186803b15801561060357600080fd5b505afa158015610617573d6000803e3d6000fd5b505050506040513d601f19601f8201168201806040525081019061063b91906111e9565b6040516001600160e01b031960e085901b1681526001600160a01b03928316600482015291166024820152604401602060405180830381600087803b15801561068357600080fd5b505af1158015610697573d6000803e3d6000fd5b505050506040513d601f19601f820116820180604052508101906106bb91906111e9565b600a80546001600160a01b0319166001600160a01b03929092169190911790555080156106ee576006805461ff00191690555b505050505050565b60006107033384846109e0565b50600192915050565b6000610719848484610b04565b6001600160a01b03841660009081526001602090815260408083203384529091529020548281101561079e5760405162461bcd60e51b815260206004820152602860248201527f45524332303a207472616e7366657220616d6f756e74206578636565647320616044820152676c6c6f77616e636560c01b60648201526084016104be565b6107ab85338584036109e0565b506001949350505050565b6000828152600560205260409020600101546107d28133610cd4565b6107dc8383610d38565b505050565b6001600160a01b03811633146108515760405162461bcd60e51b815260206004820152602f60248201527f416363657373436f6e74726f6c3a2063616e206f6e6c792072656e6f756e636560448201526e103937b632b9903337b91039b2b63360891b60648201526084016104be565b61085b8282610dbe565b5050565b3360008181526001602090815260408083206001600160a01b03871684529091528120549091610703918590610896908690611435565b6109e0565b7ff0887ba65ee2024ea881d91b74c2450ef19e1557f03bed3ea9f16b037cbe2dc96108c68133610cd4565b6107dc8383610e25565b60009182526005602090815260408084206001600160a01b0393909316845291905290205460ff1690565b6060600880546103c3906114af565b3360009081526001602090815260408083206001600160a01b03861684529091528120548281101561098c5760405162461bcd60e51b815260206004820152602560248201527f45524332303a2064656372656173656420616c6c6f77616e63652062656c6f77604482015264207a65726f60d81b60648201526084016104be565b61099933858584036109e0565b5060019392505050565b6000610703338484610b04565b6000828152600560205260409020600101546109cc8133610cd4565b6107dc8383610dbe565b61085b8282610d38565b6001600160a01b038316610a425760405162461bcd60e51b8152602060048201526024808201527f45524332303a20617070726f76652066726f6d20746865207a65726f206164646044820152637265737360e01b60648201526084016104be565b6001600160a01b038216610aa35760405162461bcd60e51b815260206004820152602260248201527f45524332303a20617070726f766520746f20746865207a65726f206164647265604482015261737360f01b60648201526084016104be565b6001600160a01b0383811660008181526001602090815260408083209487168084529482529182902085905590518481527f8c5be1e5ebec7d5bd14f71427d1e84f3dd0314c0f7b2291e5b200ac8c7c3b925910160405180910390a3505050565b6001600160a01b038316610b685760405162461bcd60e51b815260206004820152602560248201527f45524332303a207472616e736665722066726f6d20746865207a65726f206164604482015264647265737360d81b60648201526084016104be565b6001600160a01b038216610bca5760405162461bcd60e51b815260206004820152602360248201527f45524332303a207472616e7366657220746f20746865207a65726f206164647260448201526265737360e81b60648201526084016104be565b6001600160a01b03831660009081526020819052604090205481811015610c425760405162461bcd60e51b815260206004820152602660248201527f45524332303a207472616e7366657220616d6f756e7420657863656564732062604482015265616c616e636560d01b60648201526084016104be565b6001600160a01b03808516600090815260208190526040808220858503905591851681529081208054849290610c79908490611435565b92505081905550826001600160a01b0316846001600160a01b03167fddf252ad1be2c89b69c2b068fc378daa952ba7f163c4a11628f55a4df523b3ef84604051610cc591815260200190565b60405180910390a35b50505050565b610cde82826108d0565b61085b57610cf6816001600160a01b03166014610f04565b610d01836020610f04565b604051602001610d1292919061138d565b60408051601f198184030181529082905262461bcd60e51b82526104be91600401611402565b610d4282826108d0565b61085b5760008281526005602090815260408083206001600160a01b03851684529091529020805460ff19166001179055610d7a3390565b6001600160a01b0316816001600160a01b0316837f2f8788117e7eff1d82e926ec794901d17c78024a50270940304540a733656f0d60405160405180910390a45050565b610dc882826108d0565b1561085b5760008281526005602090815260408083206001600160a01b0385168085529252808320805460ff1916905551339285917ff6391f5c32d9c69d2a47ea670b442974b53935d1edc7fd64eb21e047a839171b9190a45050565b6001600160a01b038216610e7b5760405162461bcd60e51b815260206004820152601f60248201527f45524332303a206d696e7420746f20746865207a65726f20616464726573730060448201526064016104be565b8060026000828254610e8d9190611435565b90915550506001600160a01b03821660009081526020819052604081208054839290610eba908490611435565b90915550506040518181526001600160a01b038316906000907fddf252ad1be2c89b69c2b068fc378daa952ba7f163c4a11628f55a4df523b3ef9060200160405180910390a35050565b60606000610f1383600261144d565b610f1e906002611435565b67ffffffffffffffff811115610f4457634e487b7160e01b600052604160045260246000fd5b6040519080825280601f01601f191660200182016040528015610f6e576020820181803683370190505b509050600360fc1b81600081518110610f9757634e487b7160e01b600052603260045260246000fd5b60200101906001600160f81b031916908160001a905350600f60fb1b81600181518110610fd457634e487b7160e01b600052603260045260246000fd5b60200101906001600160f81b031916908160001a9053506000610ff884600261144d565b611003906001611435565b90505b6001811115611097576f181899199a1a9b1b9c1cb0b131b232b360811b85600f166010811061104557634e487b7160e01b600052603260045260246000fd5b1a60f81b82828151811061106957634e487b7160e01b600052603260045260246000fd5b60200101906001600160f81b031916908160001a90535060049490941c9361109081611498565b9050611006565b5083156110e65760405162461bcd60e51b815260206004820181905260248201527f537472696e67733a20686578206c656e67746820696e73756666696369656e7460448201526064016104be565b9392505050565b8280546110f9906114af565b90600052602060002090601f01602090048101928261111b5760008555611161565b82601f106111345782800160ff19823516178555611161565b82800160010185558215611161579182015b82811115611161578235825591602001919060010190611146565b5061116d929150611171565b5090565b5b8082111561116d5760008155600101611172565b60008083601f840112611197578182fd5b50813567ffffffffffffffff8111156111ae578182fd5b6020830191508360208285010111156111c657600080fd5b9250929050565b6000602082840312156111de578081fd5b81356110e681611500565b6000602082840312156111fa578081fd5b81516110e681611500565b60008060408385031215611217578081fd5b823561122281611500565b9150602083013561123281611500565b809150509250929050565b600080600060608486031215611251578081fd5b833561125c81611500565b9250602084013561126c81611500565b929592945050506040919091013590565b6000806040838503121561128f578182fd5b823561129a81611500565b946020939093013593505050565b6000602082840312156112b9578081fd5b5035919050565b600080604083850312156112d2578182fd5b82359150602083013561123281611500565b6000602082840312156112f5578081fd5b81356001600160e01b0319811681146110e6578182fd5b600080600080600060608688031215611323578081fd5b853567ffffffffffffffff8082111561133a578283fd5b61134689838a01611186565b9097509550602088013591508082111561135e578283fd5b5061136b88828901611186565b909450925050604086013561137f81611500565b809150509295509295909350565b7f416363657373436f6e74726f6c3a206163636f756e74200000000000000000008152600083516113c581601785016020880161146c565b7001034b99036b4b9b9b4b733903937b6329607d1b60179184019182015283516113f681602884016020880161146c565b01602801949350505050565b602081526000825180602084015261142181604085016020870161146c565b601f01601f19169190910160400192915050565b60008219821115611448576114486114ea565b500190565b6000816000190483118215151615611467576114676114ea565b500290565b60005b8381101561148757818101518382015260200161146f565b83811115610cce5750506000910152565b6000816114a7576114a76114ea565b506000190190565b600181811c908216806114c357607f821691505b602082108114156114e457634e487b7160e01b600052602260045260246000fd5b50919050565b634e487b7160e01b600052601160045260246000fd5b6001600160a01b038116811461151557600080fd5b5056fea2646970667358221220a2805b28d1678c83d4ffb0c9c5660b9d8f0a4c9e5e1fdb9b89ee41fdba0fcc0e64736f6c63430008040033",
  "devdoc": {
    "kind": "dev",
    "methods": {
      "allowance(address,address)": {
        "details": "See {IERC20-allowance}."
      },
      "approve(address,uint256)": {
        "details": "See {IERC20-approve}. Requirements: - `spender` cannot be the zero address."
      },
      "balanceOf(address)": {
        "details": "See {IERC20-balanceOf}."
      },
      "decimals()": {
        "details": "Returns the number of decimals used to get its user representation. For example, if `decimals` equals `2`, a balance of `505` tokens should be displayed to a user as `5.05` (`505 / 10 ** 2`). Tokens usually opt for a value of 18, imitating the relationship between Ether and Wei. This is the value {ERC20} uses, unless this function is overridden; NOTE: This information is only used for _display_ purposes: it in no way affects any of the arithmetic of the contract, including {IERC20-balanceOf} and {IERC20-transfer}."
      },
      "decreaseAllowance(address,uint256)": {
        "details": "Atomically decreases the allowance granted to `spender` by the caller. This is an alternative to {approve} that can be used as a mitigation for problems described in {IERC20-approve}. Emits an {Approval} event indicating the updated allowance. Requirements: - `spender` cannot be the zero address. - `spender` must have allowance for the caller of at least `subtractedValue`."
      },
      "getRoleAdmin(bytes32)": {
        "details": "Returns the admin role that controls `role`. See {grantRole} and {revokeRole}. To change a role's admin, use {_setRoleAdmin}."
      },
      "grantRole(bytes32,address)": {
        "details": "Grants `role` to `account`. If `account` had not been already granted `role`, emits a {RoleGranted} event. Requirements: - the caller must have ``role``'s admin role."
      },
      "hasRole(bytes32,address)": {
        "details": "Returns `true` if `account` has been granted `role`."
      },
      "increaseAllowance(address,uint256)": {
        "details": "Atomically increases the allowance granted to `spender` by the caller. This is an alternative to {approve} that can be used as a mitigation for problems described in {IERC20-approve}. Emits an {Approval} event indicating the updated allowance. Requirements: - `spender` cannot be the zero address."
      },
      "name()": {
        "details": "Returns the name of the token."
      },
      "renounceRole(bytes32,address)": {
        "details": "Revokes `role` from the calling account. Roles are often managed via {grantRole} and {revokeRole}: this function's purpose is to provide a mechanism for accounts to lose their privileges if they are compromised (such as when a trusted device is misplaced). If the calling account had been granted `role`, emits a {RoleRevoked} event. Requirements: - the caller must be `account`."
      },
      "revokeRole(bytes32,address)": {
        "details": "Revokes `role` from `account`. If `account` had been granted `role`, emits a {RoleRevoked} event. Requirements: - the caller must have ``role``'s admin role."
      },
      "supportsInterface(bytes4)": {
        "details": "See {IERC165-supportsInterface}."
      },
      "symbol()": {
        "details": "Returns the symbol of the token, usually a shorter version of the name."
      },
      "totalSupply()": {
        "details": "See {IERC20-totalSupply}."
      },
      "transfer(address,uint256)": {
        "details": "See {IERC20-transfer}. Requirements: - `recipient` cannot be the zero address. - the caller must have a balance of at least `amount`."
      },
      "transferFrom(address,address,uint256)": {
        "details": "See {IERC20-transferFrom}. Emits an {Approval} event indicating the updated allowance. This is not required by the EIP. See the note at the beginning of {ERC20}. Requirements: - `sender` and `recipient` cannot be the zero address. - `sender` must have a balance of at least `amount`. - the caller must have allowance for ``sender``'s tokens of at least `amount`."
      }
    },
    "version": 1
  },
  "userdoc": {
    "kind": "user",
    "methods": {
      "uniswapV2Pair()": {
        "notice": "pair address"
      },
      "uniswapV2Router()": {
        "notice": "*swap address"
      }
    },
    "version": 1
  },
  "storageLayout": {
    "storage": [
      {
        "astId": 3252,
        "contract": "contracts/polygon/implementations/Jot.sol:Jot",
        "label": "_balances",
        "offset": 0,
        "slot": "0",
        "type": "t_mapping(t_address,t_uint256)"
      },
      {
        "astId": 3258,
        "contract": "contracts/polygon/implementations/Jot.sol:Jot",
        "label": "_allowances",
        "offset": 0,
        "slot": "1",
        "type": "t_mapping(t_address,t_mapping(t_address,t_uint256))"
      },
      {
        "astId": 3260,
        "contract": "contracts/polygon/implementations/Jot.sol:Jot",
        "label": "_totalSupply",
        "offset": 0,
        "slot": "2",
        "type": "t_uint256"
      },
      {
        "astId": 3262,
        "contract": "contracts/polygon/implementations/Jot.sol:Jot",
        "label": "_name",
        "offset": 0,
        "slot": "3",
        "type": "t_string_storage"
      },
      {
        "astId": 3264,
        "contract": "contracts/polygon/implementations/Jot.sol:Jot",
        "label": "_symbol",
        "offset": 0,
        "slot": "4",
        "type": "t_string_storage"
      },
      {
        "astId": 24,
        "contract": "contracts/polygon/implementations/Jot.sol:Jot",
        "label": "_roles",
        "offset": 0,
        "slot": "5",
        "type": "t_mapping(t_bytes32,t_struct(RoleData)19_storage)"
      },
      {
        "astId": 3196,
        "contract": "contracts/polygon/implementations/Jot.sol:Jot",
        "label": "_initialized",
        "offset": 0,
        "slot": "6",
        "type": "t_bool"
      },
      {
        "astId": 3199,
        "contract": "contracts/polygon/implementations/Jot.sol:Jot",
        "label": "_initializing",
        "offset": 1,
        "slot": "6",
        "type": "t_bool"
      },
      {
        "astId": 10003,
        "contract": "contracts/polygon/implementations/Jot.sol:Jot",
        "label": "_proxiedName",
        "offset": 0,
        "slot": "7",
        "type": "t_string_storage"
      },
      {
        "astId": 10005,
        "contract": "contracts/polygon/implementations/Jot.sol:Jot",
        "label": "_proxiedSymbol",
        "offset": 0,
        "slot": "8",
        "type": "t_string_storage"
      },
      {
        "astId": 10009,
        "contract": "contracts/polygon/implementations/Jot.sol:Jot",
        "label": "uniswapV2Router",
        "offset": 0,
        "slot": "9",
        "type": "t_contract(IUniswapV2Router02)8663"
      },
      {
        "astId": 10012,
        "contract": "contracts/polygon/implementations/Jot.sol:Jot",
        "label": "uniswapV2Pair",
        "offset": 0,
        "slot": "10",
        "type": "t_address"
      }
    ],
    "types": {
      "t_address": {
        "encoding": "inplace",
        "label": "address",
        "numberOfBytes": "20"
      },
      "t_bool": {
        "encoding": "inplace",
        "label": "bool",
        "numberOfBytes": "1"
      },
      "t_bytes32": {
        "encoding": "inplace",
        "label": "bytes32",
        "numberOfBytes": "32"
      },
      "t_contract(IUniswapV2Router02)8663": {
        "encoding": "inplace",
        "label": "contract IUniswapV2Router02",
        "numberOfBytes": "20"
      },
      "t_mapping(t_address,t_bool)": {
        "encoding": "mapping",
        "key": "t_address",
        "label": "mapping(address => bool)",
        "numberOfBytes": "32",
        "value": "t_bool"
      },
      "t_mapping(t_address,t_mapping(t_address,t_uint256))": {
        "encoding": "mapping",
        "key": "t_address",
        "label": "mapping(address => mapping(address => uint256))",
        "numberOfBytes": "32",
        "value": "t_mapping(t_address,t_uint256)"
      },
      "t_mapping(t_address,t_uint256)": {
        "encoding": "mapping",
        "key": "t_address",
        "label": "mapping(address => uint256)",
        "numberOfBytes": "32",
        "value": "t_uint256"
      },
      "t_mapping(t_bytes32,t_struct(RoleData)19_storage)": {
        "encoding": "mapping",
        "key": "t_bytes32",
        "label": "mapping(bytes32 => struct AccessControl.RoleData)",
        "numberOfBytes": "32",
        "value": "t_struct(RoleData)19_storage"
      },
      "t_string_storage": {
        "encoding": "bytes",
        "label": "string",
        "numberOfBytes": "32"
      },
      "t_struct(RoleData)19_storage": {
        "encoding": "inplace",
        "label": "struct AccessControl.RoleData",
        "members": [
          {
            "astId": 16,
            "contract": "contracts/polygon/implementations/Jot.sol:Jot",
            "label": "members",
            "offset": 0,
            "slot": "0",
            "type": "t_mapping(t_address,t_bool)"
          },
          {
            "astId": 18,
            "contract": "contracts/polygon/implementations/Jot.sol:Jot",
            "label": "adminRole",
            "offset": 0,
            "slot": "1",
            "type": "t_bytes32"
          }
        ],
        "numberOfBytes": "64"
      },
      "t_uint256": {
        "encoding": "inplace",
        "label": "uint256",
        "numberOfBytes": "32"
      }
    }
  }
}