{
  "address": "0x494c9e92aa2a44d05E1B1593D20051C735A380eF",
  "abi": [
    {
      "anonymous": false,
      "inputs": [
        {
          "indexed": true,
          "internalType": "address",
          "name": "previousOwner",
          "type": "address"
        },
        {
          "indexed": true,
          "internalType": "address",
          "name": "newOwner",
          "type": "address"
        }
      ],
      "name": "OwnershipTransferred",
      "type": "event"
    },
    {
      "inputs": [
        {
          "internalType": "address",
          "name": "collection_",
          "type": "address"
        }
      ],
      "name": "approveCollection",
      "outputs": [],
      "stateMutability": "nonpayable",
      "type": "function"
    },
    {
      "inputs": [
        {
          "internalType": "address",
          "name": "",
          "type": "address"
        }
      ],
      "name": "approvedCollections",
      "outputs": [
        {
          "internalType": "bool",
          "name": "",
          "type": "bool"
        }
      ],
      "stateMutability": "view",
      "type": "function"
    },
    {
      "inputs": [
        {
          "internalType": "address",
          "name": "collection_",
          "type": "address"
        },
        {
          "internalType": "uint256",
          "name": "tokenId_",
          "type": "uint256"
        }
      ],
      "name": "isTokenInVault",
      "outputs": [
        {
          "internalType": "bool",
          "name": "",
          "type": "bool"
        }
      ],
      "stateMutability": "view",
      "type": "function"
    },
    {
      "inputs": [
        {
          "internalType": "address",
          "name": "operator_",
          "type": "address"
        },
        {
          "internalType": "address",
          "name": "",
          "type": "address"
        },
        {
          "internalType": "uint256",
          "name": "tokenId_",
          "type": "uint256"
        },
        {
          "internalType": "bytes",
          "name": "",
          "type": "bytes"
        }
      ],
      "name": "onERC721Received",
      "outputs": [
        {
          "internalType": "bytes4",
          "name": "",
          "type": "bytes4"
        }
      ],
      "stateMutability": "nonpayable",
      "type": "function"
    },
    {
      "inputs": [],
      "name": "owner",
      "outputs": [
        {
          "internalType": "address",
          "name": "",
          "type": "address"
        }
      ],
      "stateMutability": "view",
      "type": "function"
    },
    {
      "inputs": [],
      "name": "renounceOwnership",
      "outputs": [],
      "stateMutability": "nonpayable",
      "type": "function"
    },
    {
      "inputs": [
        {
          "internalType": "address",
          "name": "collection_",
          "type": "address"
        }
      ],
      "name": "safeApproveCollection",
      "outputs": [],
      "stateMutability": "nonpayable",
      "type": "function"
    },
    {
      "inputs": [
        {
          "internalType": "address",
          "name": "newOwner",
          "type": "address"
        }
      ],
      "name": "transferOwnership",
      "outputs": [],
      "stateMutability": "nonpayable",
      "type": "function"
    }
  ],
  "transactionHash": "0x913f5d1021f1d5b1e1f5315e0b8a7e507bb39d3bbf2a0fa8b08cc10630123ebb",
  "args": [],
  "solcInputHash": "cfd30aabc5c00fa481c4c7d767f8d078",
  "bytecode": "0x608060405234801561001057600080fd5b5061001a3361001f565b61006f565b600080546001600160a01b038381166001600160a01b0319831681178455604051919092169283917f8be0079c531659141344cd1fd0a4f28419497f9722a3daafe3b4186f6b6457e09190a35050565b6107fa8061007e6000396000f3fe608060405234801561001057600080fd5b50600436106100885760003560e01c80638da5cb5b1161005b5780638da5cb5b146100fe578063ec07fb7414610119578063f2f4ec8f1461013c578063f2fde38b1461014f57600080fd5b8063150b7a021461008d578063428e173e146100be5780636aae5cda146100e1578063715018a6146100f6575b600080fd5b6100a061009b36600461065b565b610162565b6040516001600160e01b031990911681526020015b60405180910390f35b6100d16100cc366004610730565b610225565b60405190151581526020016100b5565b6100f46100ef36600461063a565b6102b2565b005b6100f4610363565b6000546040516001600160a01b0390911681526020016100b5565b6100d161012736600461063a565b60016020526000908152604090205460ff1681565b6100f461014a36600461063a565b610399565b6100f461015d36600461063a565b610533565b3360009081526001602052604081205460ff166101c05760405162461bcd60e51b81526020600482015260176024820152762737ba1030b8383937bb32b21031b7b63632b1ba34b7b760491b60448201526064015b60405180910390fd5b3360009081526002602090815260408083208684529091529020546001600160a01b0316156101ff57634e487b7160e01b600052600160045260246000fd5b50503360009081526002602090815260408220929091525250630a85bd0160e11b919050565b6001600160a01b03821660009081526001602052604081205460ff166102875760405162461bcd60e51b81526020600482015260176024820152762737ba1030b8383937bb32b21031b7b63632b1ba34b7b760491b60448201526064016101b7565b506001600160a01b039182166000908152600260209081526040808320938352929052205416151590565b6000546001600160a01b031633146102dc5760405162461bcd60e51b81526004016101b790610779565b3360009081526001602052604090205460ff161561033c5760405162461bcd60e51b815260206004820152601b60248201527f436f6c6c656374696f6e20616c726561647920617070726f766564000000000060448201526064016101b7565b6001600160a01b03166000908152600160208190526040909120805460ff19169091179055565b6000546001600160a01b0316331461038d5760405162461bcd60e51b81526004016101b790610779565b61039760006105ce565b565b6000546001600160a01b031633146103c35760405162461bcd60e51b81526004016101b790610779565b336000908152600160205260409020546380ac58cd60e01b9060ff161561042c5760405162461bcd60e51b815260206004820152601b60248201527f436f6c6c656374696f6e20616c726561647920617070726f766564000000000060448201526064016101b7565b6040516301ffc9a760e01b81526001600160e01b0319821660048201526001600160a01b038316906301ffc9a79060240160206040518083038186803b15801561047557600080fd5b505afa158015610489573d6000803e3d6000fd5b505050506040513d601f19601f820116820180604052508101906104ad9190610759565b61050b5760405162461bcd60e51b815260206004820152602960248201527f4164647265737320646f65736e277420737570706f7274204945524337323120604482015268696e7465726661636560b81b60648201526084016101b7565b506001600160a01b03166000908152600160208190526040909120805460ff19169091179055565b6000546001600160a01b0316331461055d5760405162461bcd60e51b81526004016101b790610779565b6001600160a01b0381166105c25760405162461bcd60e51b815260206004820152602660248201527f4f776e61626c653a206e6577206f776e657220697320746865207a65726f206160448201526564647265737360d01b60648201526084016101b7565b6105cb816105ce565b50565b600080546001600160a01b038381166001600160a01b0319831681178455604051919092169283917f8be0079c531659141344cd1fd0a4f28419497f9722a3daafe3b4186f6b6457e09190a35050565b80356001600160a01b038116811461063557600080fd5b919050565b60006020828403121561064b578081fd5b6106548261061e565b9392505050565b60008060008060808587031215610670578283fd5b6106798561061e565b93506106876020860161061e565b925060408501359150606085013567ffffffffffffffff808211156106aa578283fd5b818701915087601f8301126106bd578283fd5b8135818111156106cf576106cf6107ae565b604051601f8201601f19908116603f011681019083821181831017156106f7576106f76107ae565b816040528281528a602084870101111561070f578586fd5b82602086016020830137918201602001949094529598949750929550505050565b60008060408385031215610742578182fd5b61074b8361061e565b946020939093013593505050565b60006020828403121561076a578081fd5b81518015158114610654578182fd5b6020808252818101527f4f776e61626c653a2063616c6c6572206973206e6f7420746865206f776e6572604082015260600190565b634e487b7160e01b600052604160045260246000fdfea2646970667358221220788fb299876ba023a7db7dde869f4fc7c52d748184371885a89b30c8d8651dcc64736f6c63430008040033",
  "devdoc": {
    "kind": "dev",
    "methods": {
      "onERC721Received(address,address,uint256,bytes)": {
        "details": "See {IERC721Receiver-onERC721Received}."
      },
      "owner()": {
        "details": "Returns the address of the current owner."
      },
      "renounceOwnership()": {
        "details": "Leaves the contract without owner. It will not be possible to call `onlyOwner` functions anymore. Can only be called by the current owner. NOTE: Renouncing ownership will leave the contract without an owner, thereby removing any functionality that is only available to the owner."
      },
      "transferOwnership(address)": {
        "details": "Transfers ownership of the contract to a new account (`newOwner`). Can only be called by the current owner."
      }
    },
    "stateVariables": {
      "_holdings": {
        "details": "map to check if a holder has a token registered over an approved collection  COLLECTION_CONTRACT_ADDRESS => NFT_ID => HOLDER_ACCOUNT_ADDRESS OR ZERO_ADDRESS"
      }
    },
    "version": 1
  },
  "userdoc": {
    "kind": "user",
    "methods": {
      "approveCollection(address)": {
        "notice": "approve a collection contract"
      },
      "approvedCollections(address)": {
        "notice": "the whitelist for the NFT collection addresses accpeted"
      },
      "isTokenInVault(address,uint256)": {
        "notice": "check if the vault holds a token"
      },
      "safeApproveCollection(address)": {
        "notice": "use ERC-165 to check for IERC721 interface in the collection contract         before approve"
      }
    },
    "version": 1
  },
  "storageLayout": {
    "storage": [
      {
        "astId": 7,
        "contract": "contracts/ethereum/NFTVaultManager.sol:NFTVaultManager",
        "label": "_owner",
        "offset": 0,
        "slot": "0",
        "type": "t_address"
      },
      {
        "astId": 2302,
        "contract": "contracts/ethereum/NFTVaultManager.sol:NFTVaultManager",
        "label": "approvedCollections",
        "offset": 0,
        "slot": "1",
        "type": "t_mapping(t_address,t_bool)"
      },
      {
        "astId": 2309,
        "contract": "contracts/ethereum/NFTVaultManager.sol:NFTVaultManager",
        "label": "_holdings",
        "offset": 0,
        "slot": "2",
        "type": "t_mapping(t_address,t_mapping(t_uint256,t_address))"
      }
    ],
    "types": {
      "t_address": {
        "encoding": "inplace",
        "label": "address",
        "numberOfBytes": "20"
      },
      "t_bool": {
        "encoding": "inplace",
        "label": "bool",
        "numberOfBytes": "1"
      },
      "t_mapping(t_address,t_bool)": {
        "encoding": "mapping",
        "key": "t_address",
        "label": "mapping(address => bool)",
        "numberOfBytes": "32",
        "value": "t_bool"
      },
      "t_mapping(t_address,t_mapping(t_uint256,t_address))": {
        "encoding": "mapping",
        "key": "t_address",
        "label": "mapping(address => mapping(uint256 => address))",
        "numberOfBytes": "32",
        "value": "t_mapping(t_uint256,t_address)"
      },
      "t_mapping(t_uint256,t_address)": {
        "encoding": "mapping",
        "key": "t_uint256",
        "label": "mapping(uint256 => address)",
        "numberOfBytes": "32",
        "value": "t_address"
      },
      "t_uint256": {
        "encoding": "inplace",
        "label": "uint256",
        "numberOfBytes": "32"
      }
    }
  }
}