{
  "address": "0x3be7F6A6E9a9CAd2E0D2e48eBFbA1B9CD8b1ab71",
  "abi": [
    {
      "inputs": [],
      "stateMutability": "nonpayable",
      "type": "constructor"
    },
    {
      "anonymous": false,
      "inputs": [
        {
          "indexed": true,
          "internalType": "address",
          "name": "owner",
          "type": "address"
        },
        {
          "indexed": true,
          "internalType": "address",
          "name": "approved",
          "type": "address"
        },
        {
          "indexed": true,
          "internalType": "uint256",
          "name": "tokenId",
          "type": "uint256"
        }
      ],
      "name": "Approval",
      "type": "event"
    },
    {
      "anonymous": false,
      "inputs": [
        {
          "indexed": true,
          "internalType": "address",
          "name": "owner",
          "type": "address"
        },
        {
          "indexed": true,
          "internalType": "address",
          "name": "operator",
          "type": "address"
        },
        {
          "indexed": false,
          "internalType": "bool",
          "name": "approved",
          "type": "bool"
        }
      ],
      "name": "ApprovalForAll",
      "type": "event"
    },
    {
      "anonymous": false,
      "inputs": [
        {
          "indexed": true,
          "internalType": "bytes32",
          "name": "role",
          "type": "bytes32"
        },
        {
          "indexed": true,
          "internalType": "bytes32",
          "name": "previousAdminRole",
          "type": "bytes32"
        },
        {
          "indexed": true,
          "internalType": "bytes32",
          "name": "newAdminRole",
          "type": "bytes32"
        }
      ],
      "name": "RoleAdminChanged",
      "type": "event"
    },
    {
      "anonymous": false,
      "inputs": [
        {
          "indexed": true,
          "internalType": "bytes32",
          "name": "role",
          "type": "bytes32"
        },
        {
          "indexed": true,
          "internalType": "address",
          "name": "account",
          "type": "address"
        },
        {
          "indexed": true,
          "internalType": "address",
          "name": "sender",
          "type": "address"
        }
      ],
      "name": "RoleGranted",
      "type": "event"
    },
    {
      "anonymous": false,
      "inputs": [
        {
          "indexed": true,
          "internalType": "bytes32",
          "name": "role",
          "type": "bytes32"
        },
        {
          "indexed": true,
          "internalType": "address",
          "name": "account",
          "type": "address"
        },
        {
          "indexed": true,
          "internalType": "address",
          "name": "sender",
          "type": "address"
        }
      ],
      "name": "RoleRevoked",
      "type": "event"
    },
    {
      "anonymous": false,
      "inputs": [
        {
          "indexed": true,
          "internalType": "address",
          "name": "from",
          "type": "address"
        },
        {
          "indexed": true,
          "internalType": "address",
          "name": "to",
          "type": "address"
        },
        {
          "indexed": true,
          "internalType": "uint256",
          "name": "tokenId",
          "type": "uint256"
        }
      ],
      "name": "Transfer",
      "type": "event"
    },
    {
      "inputs": [],
      "name": "AUCTION_MANAGER",
      "outputs": [
        {
          "internalType": "bytes32",
          "name": "",
          "type": "bytes32"
        }
      ],
      "stateMutability": "view",
      "type": "function"
    },
    {
      "inputs": [
        {
          "internalType": "uint256",
          "name": "tokenId",
          "type": "uint256"
        }
      ],
      "name": "BuyJotTokens",
      "outputs": [],
      "stateMutability": "payable",
      "type": "function"
    },
    {
      "inputs": [],
      "name": "DEFAULT_ADMIN_ROLE",
      "outputs": [
        {
          "internalType": "bytes32",
          "name": "",
          "type": "bytes32"
        }
      ],
      "stateMutability": "view",
      "type": "function"
    },
    {
      "inputs": [],
      "name": "ROUTER",
      "outputs": [
        {
          "internalType": "bytes32",
          "name": "",
          "type": "bytes32"
        }
      ],
      "stateMutability": "view",
      "type": "function"
    },
    {
      "inputs": [
        {
          "internalType": "uint256",
          "name": "",
          "type": "uint256"
        }
      ],
      "name": "_jots",
      "outputs": [
        {
          "internalType": "address",
          "name": "nftOwner",
          "type": "address"
        },
        {
          "internalType": "uint256",
          "name": "ownerSupply",
          "type": "uint256"
        },
        {
          "internalType": "uint256",
          "name": "sellingSupply",
          "type": "uint256"
        },
        {
          "internalType": "uint256",
          "name": "soldSupply",
          "type": "uint256"
        },
        {
          "internalType": "uint256",
          "name": "liquiditySupply",
          "type": "uint256"
        },
        {
          "internalType": "uint256",
          "name": "liquiditySold",
          "type": "uint256"
        },
        {
          "internalType": "uint256",
          "name": "fractionPrices",
          "type": "uint256"
        }
      ],
      "stateMutability": "view",
      "type": "function"
    },
    {
      "inputs": [],
      "name": "_originalCollectionAddress",
      "outputs": [
        {
          "internalType": "address",
          "name": "",
          "type": "address"
        }
      ],
      "stateMutability": "view",
      "type": "function"
    },
    {
      "inputs": [],
      "name": "_syntheticProtocolRouterAddress",
      "outputs": [
        {
          "internalType": "address",
          "name": "",
          "type": "address"
        }
      ],
      "stateMutability": "view",
      "type": "function"
    },
    {
      "inputs": [],
      "name": "_tokenCounter",
      "outputs": [
        {
          "internalType": "uint256",
          "name": "_value",
          "type": "uint256"
        }
      ],
      "stateMutability": "view",
      "type": "function"
    },
    {
      "inputs": [
        {
          "internalType": "uint256",
          "name": "",
          "type": "uint256"
        }
      ],
      "name": "_tokens",
      "outputs": [
        {
          "internalType": "bool",
          "name": "",
          "type": "bool"
        }
      ],
      "stateMutability": "view",
      "type": "function"
    },
    {
      "inputs": [
        {
          "internalType": "uint256",
          "name": "tokenId",
          "type": "uint256"
        }
      ],
      "name": "addLiquidityToPool",
      "outputs": [],
      "stateMutability": "nonpayable",
      "type": "function"
    },
    {
      "inputs": [
        {
          "internalType": "address",
          "name": "to",
          "type": "address"
        },
        {
          "internalType": "uint256",
          "name": "tokenId",
          "type": "uint256"
        }
      ],
      "name": "approve",
      "outputs": [],
      "stateMutability": "nonpayable",
      "type": "function"
    },
    {
      "inputs": [
        {
          "internalType": "address",
          "name": "owner",
          "type": "address"
        }
      ],
      "name": "balanceOf",
      "outputs": [
        {
          "internalType": "uint256",
          "name": "",
          "type": "uint256"
        }
      ],
      "stateMutability": "view",
      "type": "function"
    },
    {
      "inputs": [
        {
          "internalType": "uint256",
          "name": "tokenId",
          "type": "uint256"
        },
        {
          "internalType": "uint256",
          "name": "amount",
          "type": "uint256"
        }
      ],
      "name": "decreaseSellingSupply",
      "outputs": [],
      "stateMutability": "nonpayable",
      "type": "function"
    },
    {
      "inputs": [
        {
          "internalType": "uint256",
          "name": "tokenId",
          "type": "uint256"
        },
        {
          "internalType": "uint256",
          "name": "prediction",
          "type": "uint256"
        }
      ],
      "name": "flipJot",
      "outputs": [],
      "stateMutability": "nonpayable",
      "type": "function"
    },
    {
      "inputs": [
        {
          "internalType": "uint256",
          "name": "tokenId",
          "type": "uint256"
        }
      ],
      "name": "getApproved",
      "outputs": [
        {
          "internalType": "address",
          "name": "",
          "type": "address"
        }
      ],
      "stateMutability": "view",
      "type": "function"
    },
    {
      "inputs": [
        {
          "internalType": "uint256",
          "name": "tokenId",
          "type": "uint256"
        }
      ],
      "name": "getRemainingSupply",
      "outputs": [
        {
          "internalType": "uint256",
          "name": "",
          "type": "uint256"
        }
      ],
      "stateMutability": "view",
      "type": "function"
    },
    {
      "inputs": [
        {
          "internalType": "bytes32",
          "name": "role",
          "type": "bytes32"
        }
      ],
      "name": "getRoleAdmin",
      "outputs": [
        {
          "internalType": "bytes32",
          "name": "",
          "type": "bytes32"
        }
      ],
      "stateMutability": "view",
      "type": "function"
    },
    {
      "inputs": [
        {
          "internalType": "bytes32",
          "name": "role",
          "type": "bytes32"
        },
        {
          "internalType": "address",
          "name": "account",
          "type": "address"
        }
      ],
      "name": "grantRole",
      "outputs": [],
      "stateMutability": "nonpayable",
      "type": "function"
    },
    {
      "inputs": [
        {
          "internalType": "bytes32",
          "name": "role",
          "type": "bytes32"
        },
        {
          "internalType": "address",
          "name": "account",
          "type": "address"
        }
      ],
      "name": "hasRole",
      "outputs": [
        {
          "internalType": "bool",
          "name": "",
          "type": "bool"
        }
      ],
      "stateMutability": "view",
      "type": "function"
    },
    {
      "inputs": [
        {
          "internalType": "uint256",
          "name": "tokenId",
          "type": "uint256"
        },
        {
          "internalType": "uint256",
          "name": "amount",
          "type": "uint256"
        }
      ],
      "name": "increaseSellingSupply",
      "outputs": [],
      "stateMutability": "nonpayable",
      "type": "function"
    },
    {
      "inputs": [
        {
          "internalType": "string",
          "name": "_name",
          "type": "string"
        },
        {
          "internalType": "string",
          "name": "_symbol",
          "type": "string"
        },
        {
          "internalType": "address",
          "name": "_jotAddress",
          "type": "address"
        },
        {
          "internalType": "address",
          "name": "originalCollectionAddress_",
          "type": "address"
        },
        {
          "internalType": "address",
          "name": "auctionManagerAddress",
          "type": "address"
        }
      ],
      "name": "initialize",
      "outputs": [],
      "stateMutability": "nonpayable",
      "type": "function"
    },
    {
      "inputs": [
        {
          "internalType": "uint256",
          "name": "tokenId",
          "type": "uint256"
        }
      ],
      "name": "isAllowedToFlip",
      "outputs": [],
      "stateMutability": "view",
      "type": "function"
    },
    {
      "inputs": [
        {
          "internalType": "address",
          "name": "owner",
          "type": "address"
        },
        {
          "internalType": "address",
          "name": "operator",
          "type": "address"
        }
      ],
      "name": "isApprovedForAll",
      "outputs": [
        {
          "internalType": "bool",
          "name": "",
          "type": "bool"
        }
      ],
      "stateMutability": "view",
      "type": "function"
    },
    {
      "inputs": [
        {
          "internalType": "uint256",
          "name": "tokenId",
          "type": "uint256"
        }
      ],
      "name": "isSyntheticNFTCreated",
      "outputs": [
        {
          "internalType": "bool",
          "name": "",
          "type": "bool"
        }
      ],
      "stateMutability": "view",
      "type": "function"
    },
    {
      "inputs": [
        {
          "internalType": "uint256",
          "name": "tokenId",
          "type": "uint256"
        }
      ],
      "name": "isSyntheticNFTFractionalised",
      "outputs": [
        {
          "internalType": "bool",
          "name": "",
          "type": "bool"
        }
      ],
      "stateMutability": "view",
      "type": "function"
    },
    {
      "inputs": [],
      "name": "jotAddress",
      "outputs": [
        {
          "internalType": "address",
          "name": "",
          "type": "address"
        }
      ],
      "stateMutability": "view",
      "type": "function"
    },
    {
      "inputs": [],
      "name": "name",
      "outputs": [
        {
          "internalType": "string",
          "name": "",
          "type": "string"
        }
      ],
      "stateMutability": "view",
      "type": "function"
    },
    {
      "inputs": [
        {
          "internalType": "uint256",
          "name": "tokenId",
          "type": "uint256"
        }
      ],
      "name": "ownerOf",
      "outputs": [
        {
          "internalType": "address",
          "name": "",
          "type": "address"
        }
      ],
      "stateMutability": "view",
      "type": "function"
    },
    {
      "inputs": [],
      "name": "poolAddress",
      "outputs": [
        {
          "internalType": "address",
          "name": "",
          "type": "address"
        }
      ],
      "stateMutability": "view",
      "type": "function"
    },
    {
      "inputs": [
        {
          "internalType": "uint256",
          "name": "nftId_",
          "type": "uint256"
        },
        {
          "internalType": "address",
          "name": "newOwner_",
          "type": "address"
        },
        {
          "internalType": "uint256",
          "name": "jotsSupply_",
          "type": "uint256"
        }
      ],
      "name": "reassignNFT",
      "outputs": [],
      "stateMutability": "nonpayable",
      "type": "function"
    },
    {
      "inputs": [
        {
          "internalType": "uint256",
          "name": "tokenId",
          "type": "uint256"
        },
        {
          "internalType": "uint256",
          "name": "supplyToKeep",
          "type": "uint256"
        },
        {
          "internalType": "uint256",
          "name": "priceFraction",
          "type": "uint256"
        }
      ],
      "name": "register",
      "outputs": [],
      "stateMutability": "nonpayable",
      "type": "function"
    },
    {
      "inputs": [
        {
          "internalType": "bytes32",
          "name": "role",
          "type": "bytes32"
        },
        {
          "internalType": "address",
          "name": "account",
          "type": "address"
        }
      ],
      "name": "renounceRole",
      "outputs": [],
      "stateMutability": "nonpayable",
      "type": "function"
    },
    {
      "inputs": [
        {
          "internalType": "bytes32",
          "name": "role",
          "type": "bytes32"
        },
        {
          "internalType": "address",
          "name": "account",
          "type": "address"
        }
      ],
      "name": "revokeRole",
      "outputs": [],
      "stateMutability": "nonpayable",
      "type": "function"
    },
    {
      "inputs": [
        {
          "internalType": "uint256",
          "name": "tokenId",
          "type": "uint256"
        }
      ],
      "name": "safeBurn",
      "outputs": [],
      "stateMutability": "nonpayable",
      "type": "function"
    },
    {
      "inputs": [
        {
          "internalType": "address",
          "name": "from",
          "type": "address"
        },
        {
          "internalType": "address",
          "name": "to",
          "type": "address"
        },
        {
          "internalType": "uint256",
          "name": "tokenId",
          "type": "uint256"
        }
      ],
      "name": "safeTransferFrom",
      "outputs": [],
      "stateMutability": "nonpayable",
      "type": "function"
    },
    {
      "inputs": [
        {
          "internalType": "address",
          "name": "from",
          "type": "address"
        },
        {
          "internalType": "address",
          "name": "to",
          "type": "address"
        },
        {
          "internalType": "uint256",
          "name": "tokenId",
          "type": "uint256"
        },
        {
          "internalType": "bytes",
          "name": "_data",
          "type": "bytes"
        }
      ],
      "name": "safeTransferFrom",
      "outputs": [],
      "stateMutability": "nonpayable",
      "type": "function"
    },
    {
      "inputs": [
        {
          "internalType": "address",
          "name": "operator",
          "type": "address"
        },
        {
          "internalType": "bool",
          "name": "approved",
          "type": "bool"
        }
      ],
      "name": "setApprovalForAll",
      "outputs": [],
      "stateMutability": "nonpayable",
      "type": "function"
    },
    {
      "inputs": [
        {
          "internalType": "bytes4",
          "name": "interfaceId",
          "type": "bytes4"
        }
      ],
      "name": "supportsInterface",
      "outputs": [
        {
          "internalType": "bool",
          "name": "",
          "type": "bool"
        }
      ],
      "stateMutability": "view",
      "type": "function"
    },
    {
      "inputs": [],
      "name": "symbol",
      "outputs": [
        {
          "internalType": "string",
          "name": "",
          "type": "string"
        }
      ],
      "stateMutability": "view",
      "type": "function"
    },
    {
      "inputs": [
        {
          "internalType": "uint256",
          "name": "tokenId",
          "type": "uint256"
        }
      ],
      "name": "tokenURI",
      "outputs": [
        {
          "internalType": "string",
          "name": "",
          "type": "string"
        }
      ],
      "stateMutability": "view",
      "type": "function"
    },
    {
      "inputs": [
        {
          "internalType": "address",
          "name": "from",
          "type": "address"
        },
        {
          "internalType": "address",
          "name": "to",
          "type": "address"
        },
        {
          "internalType": "uint256",
          "name": "tokenId",
          "type": "uint256"
        }
      ],
      "name": "transferFrom",
      "outputs": [],
      "stateMutability": "nonpayable",
      "type": "function"
    },
    {
      "inputs": [],
      "name": "uniswapV2Router",
      "outputs": [
        {
          "internalType": "contract IUniswapV2Router02",
          "name": "",
          "type": "address"
        }
      ],
      "stateMutability": "view",
      "type": "function"
    },
    {
      "inputs": [
        {
          "internalType": "uint256",
          "name": "tokenId",
          "type": "uint256"
        },
        {
          "internalType": "uint256",
          "name": "newFractionPrice",
          "type": "uint256"
        }
      ],
      "name": "updatePriceFraction",
      "outputs": [],
      "stateMutability": "nonpayable",
      "type": "function"
    },
    {
      "inputs": [
        {
          "internalType": "uint256",
          "name": "tokenId",
          "type": "uint256"
        }
      ],
      "name": "verifyNFT",
      "outputs": [
        {
          "internalType": "bool",
          "name": "",
          "type": "bool"
        }
      ],
      "stateMutability": "view",
      "type": "function"
    }
  ],
  "transactionHash": "0xe310e0b0619c5b5fa2975fe4c4f13d2f287a48deb602b87dc901ff9ff27c9a3e",
  "args": [],
  "solcInputHash": "301a93e068c77f9668016aa22ad7c0ca",
  "bytecode": "0x60806040523480156200001157600080fd5b50604080518082018252601681527f507269766920436f6c65636374696f6e20546f6b656e000000000000000000006020808301918252835180850190945260038452621410d560ea1b908401528151919291620000729160009162000091565b5080516200008890600190602084019062000091565b50505062000174565b8280546200009f9062000137565b90600052602060002090601f016020900481019282620000c357600085556200010e565b82601f10620000de57805160ff19168380011785556200010e565b828001600101855582156200010e579182015b828111156200010e578251825591602001919060010190620000f1565b506200011c92915062000120565b5090565b5b808211156200011c576000815560010162000121565b600181811c908216806200014c57607f821691505b602082108114156200016e57634e487b7160e01b600052602260045260246000fd5b50919050565b612f0080620001846000396000f3fe6080604052600436106102675760003560e01c80638c858a1411610144578063c87b56dd116100b6578063e445a5021161007a578063e445a502146107fd578063e985e9c51461081b578063ecf70d3714610864578063ed70554d14610894578063ee2af58d146108c4578063faa5c564146108e457600080fd5b8063c87b56dd1461074b578063cd87eb521461076b578063d547741f1461079d578063db0ed6a0146107bd578063dbf51325146107dd57600080fd5b8063a217fddf11610108578063a217fddf14610614578063a22cb46514610629578063ab8f2b1b14610649578063b7c6fe3614610669578063b88d4fde1461068a578063bc7002f1146106aa57600080fd5b80638c858a141461057957806391d14854146105a95780639230b2bc146105c957806393ed1443146105e057806395d89b41146105ff57600080fd5b80632f2ff15d116101dd5780634bc4d599116101a15780634bc4d599146104b95780635763c393146104d95780636352211e146104f957806370a0823114610519578063814f32221461053957806389736a901461055957600080fd5b80632f2ff15d1461040357806332fe7b261461042357806336568abe1461044557806339fb284e1461046557806342842e0e1461049957600080fd5b80631694505e1161022f5780631694505e1461033d5780631755ff211461035d5780631b9b0380146103725780631d69a5ff1461038557806323b872dd146103a5578063248a9ca3146103c557600080fd5b806301ffc9a71461026c57806306fdde03146102a1578063081812fc146102c3578063095ea7b3146102fb57806315d248e71461031d575b600080fd5b34801561027857600080fd5b5061028c61028736600461299f565b610904565b60405190151581526020015b60405180910390f35b3480156102ad57600080fd5b506102b6610915565b6040516102989190612c29565b3480156102cf57600080fd5b506102e36102de366004612963565b6109a7565b6040516001600160a01b039091168152602001610298565b34801561030757600080fd5b5061031b61031636600461291c565b610a41565b005b34801561032957600080fd5b50600b546102e3906001600160a01b031681565b34801561034957600080fd5b506012546102e3906001600160a01b031681565b34801561036957600080fd5b506102e3610b57565b61031b610380366004612963565b610bd9565b34801561039157600080fd5b5061031b6103a0366004612a7d565b610d9f565b3480156103b157600080fd5b5061031b6103c03660046127d6565b610dff565b3480156103d157600080fd5b506103f56103e0366004612963565b60009081526006602052604090206001015490565b604051908152602001610298565b34801561040f57600080fd5b5061031b61041e36600461297b565b610e30565b34801561042f57600080fd5b506103f5600080516020612eab83398151915281565b34801561045157600080fd5b5061031b61046036600461297b565b610e56565b34801561047157600080fd5b506103f57fc55a74c743a5d6aff6a82963adf054e2367242c4a636870f26b8ee90910968d081565b3480156104a557600080fd5b5061031b6104b43660046127d6565b610ed0565b3480156104c557600080fd5b506010546102e3906001600160a01b031681565b3480156104e557600080fd5b5061031b6104f4366004612963565b610eeb565b34801561050557600080fd5b506102e3610514366004612963565b611041565b34801561052557600080fd5b506103f5610534366004612766565b6110b8565b34801561054557600080fd5b50600e546102e3906001600160a01b031681565b34801561056557600080fd5b5061031b610574366004612aa3565b61113f565b34801561058557600080fd5b506103f5610594366004612963565b60009081526011602052604090206001015490565b3480156105b557600080fd5b5061028c6105c436600461297b565b61118a565b3480156105d557600080fd5b506008546103f59081565b3480156105ec57600080fd5b5061031b6105fb366004612aa3565b5050565b34801561060b57600080fd5b506102b66111b5565b34801561062057600080fd5b506103f5600081565b34801561063557600080fd5b5061031b6106443660046128ef565b6111c4565b34801561065557600080fd5b5061031b610664366004612aa3565b611289565b34801561067557600080fd5b5061028c610684366004612963565b50600190565b34801561069657600080fd5b5061031b6106a5366004612816565b611444565b3480156106b657600080fd5b5061070c6106c5366004612963565b60116020526000908152604090208054600182015460028301546003840154600485015460058601546006909601546001600160a01b039095169593949293919290919087565b604080516001600160a01b0390981688526020880196909652948601939093526060850191909152608084015260a083015260c082015260e001610298565b34801561075757600080fd5b506102b6610766366004612963565b61147c565b34801561077757600080fd5b5061028c610786366004612963565b600090815260116020526040902060010154151590565b3480156107a957600080fd5b5061031b6107b836600461297b565b611564565b3480156107c957600080fd5b5061031b6107d83660046129d7565b61158a565b3480156107e957600080fd5b5061031b6107f8366004612963565b6116de565b34801561080957600080fd5b5061031b610818366004612963565b50565b34801561082757600080fd5b5061028c61083636600461279e565b6001600160a01b03918216600090815260056020908152604080832093909416825291909152205460ff1690565b34801561087057600080fd5b5061028c61087f366004612963565b6000908152600c602052604090205460ff1690565b3480156108a057600080fd5b5061028c6108af366004612963565b600c6020526000908152604090205460ff1681565b3480156108d057600080fd5b5061031b6108df366004612aa3565b611746565b3480156108f057600080fd5b5061031b6108ff366004612ac4565b61186d565b600061090f826119eb565b92915050565b60606009805461092490612dc5565b80601f016020809104026020016040519081016040528092919081815260200182805461095090612dc5565b801561099d5780601f106109725761010080835404028352916020019161099d565b820191906000526020600020905b81548152906001019060200180831161098057829003601f168201915b5050505050905090565b6000818152600260205260408120546001600160a01b0316610a255760405162461bcd60e51b815260206004820152602c60248201527f4552433732313a20617070726f76656420717565727920666f72206e6f6e657860448201526b34b9ba32b73a103a37b5b2b760a11b60648201526084015b60405180910390fd5b506000908152600460205260409020546001600160a01b031690565b6000610a4c82611041565b9050806001600160a01b0316836001600160a01b03161415610aba5760405162461bcd60e51b815260206004820152602160248201527f4552433732313a20617070726f76616c20746f2063757272656e74206f776e656044820152603960f91b6064820152608401610a1c565b336001600160a01b0382161480610ad65750610ad68133610836565b610b485760405162461bcd60e51b815260206004820152603860248201527f4552433732313a20617070726f76652063616c6c6572206973206e6f74206f7760448201527f6e6572206e6f7220617070726f76656420666f7220616c6c00000000000000006064820152608401610a1c565b610b528383611a10565b505050565b601054604080516324dead2f60e11b815290516000926001600160a01b0316916349bd5a5e916004808301926020929190829003018186803b158015610b9c57600080fd5b505afa158015610bb0573d6000803e3d6000fd5b505050506040513d601f19601f82011682018060405250810190610bd49190612782565b905090565b600081815260116020526040812060060154610bf59034612d38565b905060008111610c475760405162461bcd60e51b815260206004820152601b60248201527f596f75206e65656420746f2073656e6420736f6d6520657468657200000000006044820152606401610a1c565b60008281526011602052604081206003810154600290910154610c6a9190612d6b565b905081811015610c78578091505b81610cb75760405162461bcd60e51b815260206004820152600f60248201526e4e6f20746f6b656e73206c6566742160881b6044820152606401610a1c565b6010546040516323b872dd60e01b8152306004820152336024820152604481018490526001600160a01b03909116906323b872dd90606401602060405180830381600087803b158015610d0957600080fd5b505af1158015610d1d573d6000803e3d6000fd5b505050506040513d601f19601f82011682018060405250810190610d419190612947565b5060008381526011602052604081206003018054849290610d63908490612d20565b909155505060008381526011602052604081206005018054349290610d89908490612d20565b909155505081811415610b5257610b5283610eeb565b7fc55a74c743a5d6aff6a82963adf054e2367242c4a636870f26b8ee90910968d0610dca8133611a7e565b6000848152601160205260409020600181015415610df857634e487b7160e01b600052600160045260246000fd5b5050505050565b610e093382611ae2565b610e255760405162461bcd60e51b8152600401610a1c90612ccf565b610b52838383611bd9565b600082815260066020526040902060010154610e4c8133611a7e565b610b528383611d79565b6001600160a01b0381163314610ec65760405162461bcd60e51b815260206004820152602f60248201527f416363657373436f6e74726f6c3a2063616e206f6e6c792072656e6f756e636560448201526e103937b632b9903337b91039b2b63360891b6064820152608401610a1c565b6105fb8282611dff565b610b5283838360405180602001604052806000815250611444565b60008181526011602052604090819020600480820154600590920154601054601254945163095ea7b360e01b81526001600160a01b03958616938101939093526024830184905292939092169063095ea7b390604401602060405180830381600087803b158015610f5b57600080fd5b505af1158015610f6f573d6000803e3d6000fd5b505050506040513d601f19601f82011682018060405250810190610f939190612947565b5060125460105460405163f305d71960e01b81526001600160a01b039182166004820152602481018590526000604482018190526064820181905260848201524260a482015291169063f305d71990839060c4016060604051808303818588803b15801561100057600080fd5b505af1158015611014573d6000803e3d6000fd5b50505050506040513d601f19601f820116820180604052508101906110399190612aef565b505050505050565b6000818152600260205260408120546001600160a01b03168061090f5760405162461bcd60e51b815260206004820152602960248201527f4552433732313a206f776e657220717565727920666f72206e6f6e657869737460448201526832b73a103a37b5b2b760b91b6064820152608401610a1c565b60006001600160a01b0382166111235760405162461bcd60e51b815260206004820152602a60248201527f4552433732313a2062616c616e636520717565727920666f7220746865207a65604482015269726f206164647265737360b01b6064820152608401610a1c565b506001600160a01b031660009081526003602052604090205490565b6000828152601160205260409020546001600160a01b031633146111755760405162461bcd60e51b8152600401610a1c90612c8e565b60009182526011602052604090912060060155565b60009182526006602090815260408084206001600160a01b0393909316845291905290205460ff1690565b6060600a805461092490612dc5565b6001600160a01b03821633141561121d5760405162461bcd60e51b815260206004820152601960248201527f4552433732313a20617070726f766520746f2063616c6c6572000000000000006044820152606401610a1c565b3360008181526005602090815260408083206001600160a01b03871680855290835292819020805460ff191686151590811790915590519081529192917f17307eab39ab6107e8899845ad3d59bd9653f200f220920489ca2b5937696c31910160405180910390a35050565b6000828152601160205260409020546001600160a01b031633146112bf5760405162461bcd60e51b8152600401610a1c90612c8e565b6112ca600282612d38565b60008381526011602052604090206004015410156113385760405162461bcd60e51b815260206004820152602560248201527f596f7520646f206e6f74206861766520656e6f756768206c6971756964697479604482015264081b19599d60da1b6064820152608401610a1c565b611343600282612d38565b60008381526011602052604090206002015410156113b65760405162461bcd60e51b815260206004820152602a60248201527f596f7520646f206e6f74206861766520656e6f7567682073656c6c696e6720736044820152691d5c1c1b1e481b19599d60b21b6064820152608401610a1c565b600082815260116020526040812060010180548392906113d7908490612d20565b909155506113e89050600282612d38565b60008381526011602052604081206002018054909190611409908490612d6b565b9091555061141a9050600282612d38565b6000838152601160205260408120600401805490919061143b908490612d6b565b90915550505050565b61144e3383611ae2565b61146a5760405162461bcd60e51b8152600401610a1c90612ccf565b61147684848484611e66565b50505050565b6000818152600260205260409020546060906001600160a01b03166114fb5760405162461bcd60e51b815260206004820152602f60248201527f4552433732314d657461646174613a2055524920717565727920666f72206e6f60448201526e3732bc34b9ba32b73a103a37b5b2b760891b6064820152608401610a1c565b600061151260408051602081019091526000815290565b90506000815111611532576040518060200160405280600081525061155d565b8061153c84611e99565b60405160200161154d929190612b48565b6040516020818303038152906040525b9392505050565b6000828152600660205260409020600101546115808133611a7e565b610b528383611dff565b600754610100900460ff16806115a3575060075460ff16155b6116065760405162461bcd60e51b815260206004820152602e60248201527f496e697469616c697a61626c653a20636f6e747261637420697320616c72656160448201526d191e481a5b9a5d1a585b1a5e995960921b6064820152608401610a1c565b600754610100900460ff16158015611628576007805461ffff19166101011790555b61163460098989612612565b50611641600a8787612612565b50601080546001600160a01b03199081166001600160a01b0387811691909117909255600e8054821692861692909217909155600b80543392168217905561169890600080516020612eab83398151915290611fb3565b6116c27fc55a74c743a5d6aff6a82963adf054e2367242c4a636870f26b8ee90910968d083611fb3565b80156116d4576007805461ff00191690555b5050505050505050565b600080516020612eab8339815191526116f78133611a7e565b61170082611fbd565b6000828152600c60209081526040808320805460ff191690558051808301808352848252868552600d9093529220915161173b929190612696565b506105fb6008612058565b6000828152601160205260409020546001600160a01b0316331461177c5760405162461bcd60e51b8152600401610a1c90612c8e565b6000828152601160205260409020600101548111156117e85760405162461bcd60e51b815260206004820152602260248201527f596f7520646f206e6f74206861766520656e6f75676820746f6b656e73206c65604482015261199d60f21b6064820152608401610a1c565b60008281526011602052604081206001018054839290611809908490612d6b565b9091555061181a9050600282612d38565b6000838152601160205260408120600201805490919061183b908490612d20565b9091555061184c9050600282612d38565b6000838152601160205260408120600401805490919061143b908490612d20565b600080516020612eab8339815191526118868133611a7e565b611894600880546001019055565b60006118ab60408051602081019091526000815290565b90506118b83386836120af565b601054600f54604051632851206560e21b815230600482015260248101919091526001600160a01b0390911690819063a144819490604401600060405180830381600087803b15801561190a57600080fd5b505af115801561191e573d6000803e3d6000fd5b505050506000600286600f546119349190612d6b565b61193e9190612d38565b90506000600287600f546119529190612d6b565b61195c9190612d38565b6040805160e081018252600080825260208083019b8c52828401968752606083018281526080840195865260a0840183815260c085019c8d529d83526011909152929020905181546001600160a01b0319166001600160a01b03909116178155985160018a01559251600289015591516003880155505160048601555050925160058301555160069091015550565b60006001600160e01b03198216637965db0b60e01b148061090f575061090f82612149565b600081815260046020526040902080546001600160a01b0319166001600160a01b0384169081179091558190611a4582611041565b6001600160a01b03167f8c5be1e5ebec7d5bd14f71427d1e84f3dd0314c0f7b2291e5b200ac8c7c3b92560405160405180910390a45050565b611a88828261118a565b6105fb57611aa0816001600160a01b03166014612199565b611aab836020612199565b604051602001611abc929190612b77565b60408051601f198184030181529082905262461bcd60e51b8252610a1c91600401612c29565b6000818152600260205260408120546001600160a01b0316611b5b5760405162461bcd60e51b815260206004820152602c60248201527f4552433732313a206f70657261746f7220717565727920666f72206e6f6e657860448201526b34b9ba32b73a103a37b5b2b760a11b6064820152608401610a1c565b6000611b6683611041565b9050806001600160a01b0316846001600160a01b03161480611ba15750836001600160a01b0316611b96846109a7565b6001600160a01b0316145b80611bd157506001600160a01b0380821660009081526005602090815260408083209388168352929052205460ff165b949350505050565b826001600160a01b0316611bec82611041565b6001600160a01b031614611c545760405162461bcd60e51b815260206004820152602960248201527f4552433732313a207472616e73666572206f6620746f6b656e2074686174206960448201526839903737ba1037bbb760b91b6064820152608401610a1c565b6001600160a01b038216611cb65760405162461bcd60e51b8152602060048201526024808201527f4552433732313a207472616e7366657220746f20746865207a65726f206164646044820152637265737360e01b6064820152608401610a1c565b611cc1600082611a10565b6001600160a01b0383166000908152600360205260408120805460019290611cea908490612d6b565b90915550506001600160a01b0382166000908152600360205260408120805460019290611d18908490612d20565b909155505060008181526002602052604080822080546001600160a01b0319166001600160a01b0386811691821790925591518493918716917fddf252ad1be2c89b69c2b068fc378daa952ba7f163c4a11628f55a4df523b3ef91a4505050565b611d83828261118a565b6105fb5760008281526006602090815260408083206001600160a01b03851684529091529020805460ff19166001179055611dbb3390565b6001600160a01b0316816001600160a01b0316837f2f8788117e7eff1d82e926ec794901d17c78024a50270940304540a733656f0d60405160405180910390a45050565b611e09828261118a565b156105fb5760008281526006602090815260408083206001600160a01b0385168085529252808320805460ff1916905551339285917ff6391f5c32d9c69d2a47ea670b442974b53935d1edc7fd64eb21e047a839171b9190a45050565b611e71848484611bd9565b611e7d8484848461237b565b6114765760405162461bcd60e51b8152600401610a1c90612c3c565b606081611ebd5750506040805180820190915260018152600360fc1b602082015290565b8160005b8115611ee75780611ed181612e00565b9150611ee09050600a83612d38565b9150611ec1565b60008167ffffffffffffffff811115611f1057634e487b7160e01b600052604160045260246000fd5b6040519080825280601f01601f191660200182016040528015611f3a576020820181803683370190505b5090505b8415611bd157611f4f600183612d6b565b9150611f5c600a86612e1b565b611f67906030612d20565b60f81b818381518110611f8a57634e487b7160e01b600052603260045260246000fd5b60200101906001600160f81b031916908160001a905350611fac600a86612d38565b9450611f3e565b6105fb8282611d79565b6000611fc882611041565b9050611fd5600083611a10565b6001600160a01b0381166000908152600360205260408120805460019290611ffe908490612d6b565b909155505060008281526002602052604080822080546001600160a01b0319169055518391906001600160a01b038416907fddf252ad1be2c89b69c2b068fc378daa952ba7f163c4a11628f55a4df523b3ef908390a45050565b8054806120a75760405162461bcd60e51b815260206004820152601b60248201527f436f756e7465723a2064656372656d656e74206f766572666c6f7700000000006044820152606401610a1c565b600019019055565b6000828152600c602052604090205460ff161561210e5760405162461bcd60e51b815260206004820181905260248201527f53796e746865746963204e465420616c72656164792067656e657261746564216044820152606401610a1c565b6121188383612488565b6000828152600c60209081526040808320805460ff19166001179055600d8252909120825161147692840190612696565b60006001600160e01b031982166380ac58cd60e01b148061217a57506001600160e01b03198216635b5e139f60e01b145b8061090f57506301ffc9a760e01b6001600160e01b031983161461090f565b606060006121a8836002612d4c565b6121b3906002612d20565b67ffffffffffffffff8111156121d957634e487b7160e01b600052604160045260246000fd5b6040519080825280601f01601f191660200182016040528015612203576020820181803683370190505b509050600360fc1b8160008151811061222c57634e487b7160e01b600052603260045260246000fd5b60200101906001600160f81b031916908160001a905350600f60fb1b8160018151811061226957634e487b7160e01b600052603260045260246000fd5b60200101906001600160f81b031916908160001a905350600061228d846002612d4c565b612298906001612d20565b90505b600181111561232c576f181899199a1a9b1b9c1cb0b131b232b360811b85600f16601081106122da57634e487b7160e01b600052603260045260246000fd5b1a60f81b8282815181106122fe57634e487b7160e01b600052603260045260246000fd5b60200101906001600160f81b031916908160001a90535060049490941c9361232581612dae565b905061229b565b50831561155d5760405162461bcd60e51b815260206004820181905260248201527f537472696e67733a20686578206c656e67746820696e73756666696369656e746044820152606401610a1c565b60006001600160a01b0384163b1561247d57604051630a85bd0160e11b81526001600160a01b0385169063150b7a02906123bf903390899088908890600401612bec565b602060405180830381600087803b1580156123d957600080fd5b505af1925050508015612409575060408051601f3d908101601f19168201909252612406918101906129bb565b60015b612463573d808015612437576040519150601f19603f3d011682016040523d82523d6000602084013e61243c565b606091505b50805161245b5760405162461bcd60e51b8152600401610a1c90612c3c565b805181602001fd5b6001600160e01b031916630a85bd0160e11b149050611bd1565b506001949350505050565b6105fb8282604051806020016040528060008152506124a783836124d0565b6124b4600084848461237b565b610b525760405162461bcd60e51b8152600401610a1c90612c3c565b6001600160a01b0382166125265760405162461bcd60e51b815260206004820181905260248201527f4552433732313a206d696e7420746f20746865207a65726f20616464726573736044820152606401610a1c565b6000818152600260205260409020546001600160a01b03161561258b5760405162461bcd60e51b815260206004820152601c60248201527f4552433732313a20746f6b656e20616c7265616479206d696e746564000000006044820152606401610a1c565b6001600160a01b03821660009081526003602052604081208054600192906125b4908490612d20565b909155505060008181526002602052604080822080546001600160a01b0319166001600160a01b03861690811790915590518392907fddf252ad1be2c89b69c2b068fc378daa952ba7f163c4a11628f55a4df523b3ef908290a45050565b82805461261e90612dc5565b90600052602060002090601f0160209004810192826126405760008555612686565b82601f106126595782800160ff19823516178555612686565b82800160010185558215612686579182015b8281111561268657823582559160200191906001019061266b565b5061269292915061270a565b5090565b8280546126a290612dc5565b90600052602060002090601f0160209004810192826126c45760008555612686565b82601f106126dd57805160ff1916838001178555612686565b82800160010185558215612686579182015b828111156126865782518255916020019190600101906126ef565b5b80821115612692576000815560010161270b565b60008083601f840112612730578182fd5b50813567ffffffffffffffff811115612747578182fd5b60208301915083602082850101111561275f57600080fd5b9250929050565b600060208284031215612777578081fd5b813561155d81612e71565b600060208284031215612793578081fd5b815161155d81612e71565b600080604083850312156127b0578081fd5b82356127bb81612e71565b915060208301356127cb81612e71565b809150509250929050565b6000806000606084860312156127ea578081fd5b83356127f581612e71565b9250602084013561280581612e71565b929592945050506040919091013590565b6000806000806080858703121561282b578081fd5b843561283681612e71565b9350602085013561284681612e71565b925060408501359150606085013567ffffffffffffffff80821115612869578283fd5b818701915087601f83011261287c578283fd5b81358181111561288e5761288e612e5b565b604051601f8201601f19908116603f011681019083821181831017156128b6576128b6612e5b565b816040528281528a60208487010111156128ce578586fd5b82602086016020830137918201602001949094529598949750929550505050565b60008060408385031215612901578182fd5b823561290c81612e71565b915060208301356127cb81612e86565b6000806040838503121561292e578182fd5b823561293981612e71565b946020939093013593505050565b600060208284031215612958578081fd5b815161155d81612e86565b600060208284031215612974578081fd5b5035919050565b6000806040838503121561298d578182fd5b8235915060208301356127cb81612e71565b6000602082840312156129b0578081fd5b813561155d81612e94565b6000602082840312156129cc578081fd5b815161155d81612e94565b600080600080600080600060a0888a0312156129f1578283fd5b873567ffffffffffffffff80821115612a08578485fd5b612a148b838c0161271f565b909950975060208a0135915080821115612a2c578485fd5b50612a398a828b0161271f565b9096509450506040880135612a4d81612e71565b92506060880135612a5d81612e71565b91506080880135612a6d81612e71565b8091505092959891949750929550565b600080600060608486031215612a91578081fd5b83359250602084013561280581612e71565b60008060408385031215612ab5578182fd5b50508035926020909101359150565b600080600060608486031215612ad8578081fd5b505081359360208301359350604090920135919050565b600080600060608486031215612b03578081fd5b8351925060208401519150604084015190509250925092565b60008151808452612b34816020860160208601612d82565b601f01601f19169290920160200192915050565b60008351612b5a818460208801612d82565b835190830190612b6e818360208801612d82565b01949350505050565b7f416363657373436f6e74726f6c3a206163636f756e7420000000000000000000815260008351612baf816017850160208801612d82565b7001034b99036b4b9b9b4b733903937b6329607d1b6017918401918201528351612be0816028840160208801612d82565b01602801949350505050565b6001600160a01b0385811682528416602082015260408101839052608060608201819052600090612c1f90830184612b1c565b9695505050505050565b60208152600061155d6020830184612b1c565b60208082526032908201527f4552433732313a207472616e7366657220746f206e6f6e20455243373231526560408201527131b2b4bb32b91034b6b83632b6b2b73a32b960711b606082015260800190565b60208082526021908201527f596f7520617265206e6f7420746865206f776e6572206f6620746865204e46546040820152602160f81b606082015260800190565b60208082526031908201527f4552433732313a207472616e736665722063616c6c6572206973206e6f74206f6040820152701ddb995c881b9bdc88185c1c1c9bdd9959607a1b606082015260800190565b60008219821115612d3357612d33612e2f565b500190565b600082612d4757612d47612e45565b500490565b6000816000190483118215151615612d6657612d66612e2f565b500290565b600082821015612d7d57612d7d612e2f565b500390565b60005b83811015612d9d578181015183820152602001612d85565b838111156114765750506000910152565b600081612dbd57612dbd612e2f565b506000190190565b600181811c90821680612dd957607f821691505b60208210811415612dfa57634e487b7160e01b600052602260045260246000fd5b50919050565b6000600019821415612e1457612e14612e2f565b5060010190565b600082612e2a57612e2a612e45565b500690565b634e487b7160e01b600052601160045260246000fd5b634e487b7160e01b600052601260045260246000fd5b634e487b7160e01b600052604160045260246000fd5b6001600160a01b038116811461081857600080fd5b801515811461081857600080fd5b6001600160e01b03198116811461081857600080fdfeeb4fd9f47c063b511700e1c8e94e2fa4088ffca1fdcef1e60edf1beecd1b2e64a26469706673582212206c5d6cd7e2f169690280bb42b05cb4c6a0da0d7df3d90f8169db4b63f041fda964736f6c63430008040033",
  "devdoc": {
    "kind": "dev",
    "methods": {
      "approve(address,uint256)": {
        "details": "See {IERC721-approve}."
      },
      "balanceOf(address)": {
        "details": "See {IERC721-balanceOf}."
      },
      "getApproved(uint256)": {
        "details": "See {IERC721-getApproved}."
      },
      "getRoleAdmin(bytes32)": {
        "details": "Returns the admin role that controls `role`. See {grantRole} and {revokeRole}. To change a role's admin, use {_setRoleAdmin}."
      },
      "grantRole(bytes32,address)": {
        "details": "Grants `role` to `account`. If `account` had not been already granted `role`, emits a {RoleGranted} event. Requirements: - the caller must have ``role``'s admin role."
      },
      "hasRole(bytes32,address)": {
        "details": "Returns `true` if `account` has been granted `role`."
      },
      "isApprovedForAll(address,address)": {
        "details": "See {IERC721-isApprovedForAll}."
      },
      "name()": {
        "details": "Returns the name of the token."
      },
      "ownerOf(uint256)": {
        "details": "See {IERC721-ownerOf}."
      },
      "reassignNFT(uint256,address,uint256)": {
        "details": "we need to pass the jobSupply here to work well even when the governance      changes this protocol parameter in the middle of the auction"
      },
      "renounceRole(bytes32,address)": {
        "details": "Revokes `role` from the calling account. Roles are often managed via {grantRole} and {revokeRole}: this function's purpose is to provide a mechanism for accounts to lose their privileges if they are compromised (such as when a trusted device is misplaced). If the calling account had been granted `role`, emits a {RoleRevoked} event. Requirements: - the caller must be `account`."
      },
      "revokeRole(bytes32,address)": {
        "details": "Revokes `role` from `account`. If `account` had been granted `role`, emits a {RoleRevoked} event. Requirements: - the caller must have ``role``'s admin role."
      },
      "safeBurn(uint256)": {
        "details": "burn a token"
      },
      "safeTransferFrom(address,address,uint256)": {
        "details": "See {IERC721-safeTransferFrom}."
      },
      "safeTransferFrom(address,address,uint256,bytes)": {
        "details": "See {IERC721-safeTransferFrom}."
      },
      "setApprovalForAll(address,bool)": {
        "details": "See {IERC721-setApprovalForAll}."
      },
      "symbol()": {
        "details": "Returns the symbol of the token, usually a shorter version of the name."
      },
      "tokenURI(uint256)": {
        "details": "See {IERC721Metadata-tokenURI}."
      },
      "transferFrom(address,address,uint256)": {
        "details": "See {IERC721-transferFrom}."
      }
    },
    "stateVariables": {
      "jotSupply": {
        "details": "ERC20 totalSupply (governance) parameter TODO: get from governance"
      }
    },
    "version": 1
  },
  "userdoc": {
    "kind": "user",
    "methods": {
      "BuyJotTokens(uint256)": {
        "notice": "allows the caller to buy Jots"
      },
      "_jots(uint256)": {
        "notice": "Jot data for each token"
      },
      "_originalCollectionAddress()": {
        "notice": "address of the original collection"
      },
      "_syntheticProtocolRouterAddress()": {
        "notice": "the address of the Protocol Router"
      },
      "addLiquidityToPool(uint256)": {
        "notice": "add available liquidity for a given token to UniSwap pool"
      },
      "decreaseSellingSupply(uint256,uint256)": {
        "notice": "decrease selling supply for a given NFT caller must be the owner of the NFT"
      },
      "increaseSellingSupply(uint256,uint256)": {
        "notice": "increase selling supply for a given NFT caller must be the owner of the NFT"
      },
      "isSyntheticNFTCreated(uint256)": {
        "notice": "public function. Checks if an NFT has been already minted."
      },
      "isSyntheticNFTFractionalised(uint256)": {
        "notice": "public function. Checks if an NFT has been already fractionalised."
      },
      "jotAddress()": {
        "notice": "jot Address for this collection"
      },
      "poolAddress()": {
        "notice": "returns the Quickswap pool address"
      },
      "register(uint256,uint256,uint256)": {
        "notice": "First it updates counter syntheticID++. Then:  generateSyntheticNFT(address, id)  Interacts with JOT contract for that address and: (a) Mints JotSupply (governance parameter) (b) Register ownerSupply (DO NOT SEND HIM/HER) (c) Register sellingSupply = (JotSupply-supplyToKeep)/2 (d) Register soldSupply = 0 (e) Register liquiditySupply = (JotSupply-supplyToKeep)/2. (f) Register liquiditySold = 0"
      },
      "updatePriceFraction(uint256,uint256)": {
        "notice": "update the price of a fraction for a given NFT caller must be the owner"
      },
      "verifyNFT(uint256)": {
        "notice": "This method calls chainlink oracle and verifies if the NFT has been locked on NFTVaultManager. In addition gets the metadata of the NFT"
      }
    },
    "version": 1
  },
  "storageLayout": {
    "storage": [
      {
        "astId": 4986,
        "contract": "contracts/polygon/implementations/SyntheticCollectionManager.sol:SyntheticCollectionManager",
        "label": "_name",
        "offset": 0,
        "slot": "0",
        "type": "t_string_storage"
      },
      {
        "astId": 4988,
        "contract": "contracts/polygon/implementations/SyntheticCollectionManager.sol:SyntheticCollectionManager",
        "label": "_symbol",
        "offset": 0,
        "slot": "1",
        "type": "t_string_storage"
      },
      {
        "astId": 4992,
        "contract": "contracts/polygon/implementations/SyntheticCollectionManager.sol:SyntheticCollectionManager",
        "label": "_owners",
        "offset": 0,
        "slot": "2",
        "type": "t_mapping(t_uint256,t_address)"
      },
      {
        "astId": 4996,
        "contract": "contracts/polygon/implementations/SyntheticCollectionManager.sol:SyntheticCollectionManager",
        "label": "_balances",
        "offset": 0,
        "slot": "3",
        "type": "t_mapping(t_address,t_uint256)"
      },
      {
        "astId": 5000,
        "contract": "contracts/polygon/implementations/SyntheticCollectionManager.sol:SyntheticCollectionManager",
        "label": "_tokenApprovals",
        "offset": 0,
        "slot": "4",
        "type": "t_mapping(t_uint256,t_address)"
      },
      {
        "astId": 5006,
        "contract": "contracts/polygon/implementations/SyntheticCollectionManager.sol:SyntheticCollectionManager",
        "label": "_operatorApprovals",
        "offset": 0,
        "slot": "5",
        "type": "t_mapping(t_address,t_mapping(t_address,t_bool))"
      },
      {
        "astId": 24,
        "contract": "contracts/polygon/implementations/SyntheticCollectionManager.sol:SyntheticCollectionManager",
        "label": "_roles",
        "offset": 0,
        "slot": "6",
        "type": "t_mapping(t_bytes32,t_struct(RoleData)19_storage)"
      },
      {
        "astId": 3196,
        "contract": "contracts/polygon/implementations/SyntheticCollectionManager.sol:SyntheticCollectionManager",
        "label": "_initialized",
        "offset": 0,
        "slot": "7",
        "type": "t_bool"
      },
      {
        "astId": 3199,
        "contract": "contracts/polygon/implementations/SyntheticCollectionManager.sol:SyntheticCollectionManager",
        "label": "_initializing",
        "offset": 1,
        "slot": "7",
        "type": "t_bool"
      },
      {
        "astId": 10374,
        "contract": "contracts/polygon/implementations/SyntheticCollectionManager.sol:SyntheticCollectionManager",
        "label": "_tokenCounter",
        "offset": 0,
        "slot": "8",
        "type": "t_struct(Counter)6262_storage"
      },
      {
        "astId": 10376,
        "contract": "contracts/polygon/implementations/SyntheticCollectionManager.sol:SyntheticCollectionManager",
        "label": "_proxiedName",
        "offset": 0,
        "slot": "9",
        "type": "t_string_storage"
      },
      {
        "astId": 10378,
        "contract": "contracts/polygon/implementations/SyntheticCollectionManager.sol:SyntheticCollectionManager",
        "label": "_proxiedSymbol",
        "offset": 0,
        "slot": "10",
        "type": "t_string_storage"
      },
      {
        "astId": 10381,
        "contract": "contracts/polygon/implementations/SyntheticCollectionManager.sol:SyntheticCollectionManager",
        "label": "_syntheticProtocolRouterAddress",
        "offset": 0,
        "slot": "11",
        "type": "t_address"
      },
      {
        "astId": 10385,
        "contract": "contracts/polygon/implementations/SyntheticCollectionManager.sol:SyntheticCollectionManager",
        "label": "_tokens",
        "offset": 0,
        "slot": "12",
        "type": "t_mapping(t_uint256,t_bool)"
      },
      {
        "astId": 10389,
        "contract": "contracts/polygon/implementations/SyntheticCollectionManager.sol:SyntheticCollectionManager",
        "label": "_tokenMetadata",
        "offset": 0,
        "slot": "13",
        "type": "t_mapping(t_uint256,t_string_storage)"
      },
      {
        "astId": 10392,
        "contract": "contracts/polygon/implementations/SyntheticCollectionManager.sol:SyntheticCollectionManager",
        "label": "_originalCollectionAddress",
        "offset": 0,
        "slot": "14",
        "type": "t_address"
      },
      {
        "astId": 10395,
        "contract": "contracts/polygon/implementations/SyntheticCollectionManager.sol:SyntheticCollectionManager",
        "label": "jotSupply",
        "offset": 0,
        "slot": "15",
        "type": "t_uint256"
      },
      {
        "astId": 10398,
        "contract": "contracts/polygon/implementations/SyntheticCollectionManager.sol:SyntheticCollectionManager",
        "label": "jotAddress",
        "offset": 0,
        "slot": "16",
        "type": "t_address"
      },
      {
        "astId": 10404,
        "contract": "contracts/polygon/implementations/SyntheticCollectionManager.sol:SyntheticCollectionManager",
        "label": "_jots",
        "offset": 0,
        "slot": "17",
        "type": "t_mapping(t_uint256,t_struct(JotsData)10342_storage)"
      },
      {
        "astId": 10407,
        "contract": "contracts/polygon/implementations/SyntheticCollectionManager.sol:SyntheticCollectionManager",
        "label": "uniswapV2Router",
        "offset": 0,
        "slot": "18",
        "type": "t_contract(IUniswapV2Router02)8663"
      }
    ],
    "types": {
      "t_address": {
        "encoding": "inplace",
        "label": "address",
        "numberOfBytes": "20"
      },
      "t_bool": {
        "encoding": "inplace",
        "label": "bool",
        "numberOfBytes": "1"
      },
      "t_bytes32": {
        "encoding": "inplace",
        "label": "bytes32",
        "numberOfBytes": "32"
      },
      "t_contract(IUniswapV2Router02)8663": {
        "encoding": "inplace",
        "label": "contract IUniswapV2Router02",
        "numberOfBytes": "20"
      },
      "t_mapping(t_address,t_bool)": {
        "encoding": "mapping",
        "key": "t_address",
        "label": "mapping(address => bool)",
        "numberOfBytes": "32",
        "value": "t_bool"
      },
      "t_mapping(t_address,t_mapping(t_address,t_bool))": {
        "encoding": "mapping",
        "key": "t_address",
        "label": "mapping(address => mapping(address => bool))",
        "numberOfBytes": "32",
        "value": "t_mapping(t_address,t_bool)"
      },
      "t_mapping(t_address,t_uint256)": {
        "encoding": "mapping",
        "key": "t_address",
        "label": "mapping(address => uint256)",
        "numberOfBytes": "32",
        "value": "t_uint256"
      },
      "t_mapping(t_bytes32,t_struct(RoleData)19_storage)": {
        "encoding": "mapping",
        "key": "t_bytes32",
        "label": "mapping(bytes32 => struct AccessControl.RoleData)",
        "numberOfBytes": "32",
        "value": "t_struct(RoleData)19_storage"
      },
      "t_mapping(t_uint256,t_address)": {
        "encoding": "mapping",
        "key": "t_uint256",
        "label": "mapping(uint256 => address)",
        "numberOfBytes": "32",
        "value": "t_address"
      },
      "t_mapping(t_uint256,t_bool)": {
        "encoding": "mapping",
        "key": "t_uint256",
        "label": "mapping(uint256 => bool)",
        "numberOfBytes": "32",
        "value": "t_bool"
      },
      "t_mapping(t_uint256,t_string_storage)": {
        "encoding": "mapping",
        "key": "t_uint256",
        "label": "mapping(uint256 => string)",
        "numberOfBytes": "32",
        "value": "t_string_storage"
      },
      "t_mapping(t_uint256,t_struct(JotsData)10342_storage)": {
        "encoding": "mapping",
        "key": "t_uint256",
        "label": "mapping(uint256 => struct JotsData)",
        "numberOfBytes": "32",
        "value": "t_struct(JotsData)10342_storage"
      },
      "t_string_storage": {
        "encoding": "bytes",
        "label": "string",
        "numberOfBytes": "32"
      },
      "t_struct(Counter)6262_storage": {
        "encoding": "inplace",
        "label": "struct Counters.Counter",
        "members": [
          {
            "astId": 6261,
            "contract": "contracts/polygon/implementations/SyntheticCollectionManager.sol:SyntheticCollectionManager",
            "label": "_value",
            "offset": 0,
            "slot": "0",
            "type": "t_uint256"
          }
        ],
        "numberOfBytes": "32"
      },
      "t_struct(JotsData)10342_storage": {
        "encoding": "inplace",
        "label": "struct JotsData",
        "members": [
          {
            "astId": 10329,
            "contract": "contracts/polygon/implementations/SyntheticCollectionManager.sol:SyntheticCollectionManager",
            "label": "nftOwner",
            "offset": 0,
            "slot": "0",
            "type": "t_address"
          },
          {
            "astId": 10331,
            "contract": "contracts/polygon/implementations/SyntheticCollectionManager.sol:SyntheticCollectionManager",
            "label": "ownerSupply",
            "offset": 0,
            "slot": "1",
            "type": "t_uint256"
          },
          {
            "astId": 10333,
            "contract": "contracts/polygon/implementations/SyntheticCollectionManager.sol:SyntheticCollectionManager",
            "label": "sellingSupply",
            "offset": 0,
            "slot": "2",
            "type": "t_uint256"
          },
          {
            "astId": 10335,
            "contract": "contracts/polygon/implementations/SyntheticCollectionManager.sol:SyntheticCollectionManager",
            "label": "soldSupply",
            "offset": 0,
            "slot": "3",
            "type": "t_uint256"
          },
          {
            "astId": 10337,
            "contract": "contracts/polygon/implementations/SyntheticCollectionManager.sol:SyntheticCollectionManager",
            "label": "liquiditySupply",
            "offset": 0,
            "slot": "4",
            "type": "t_uint256"
          },
          {
            "astId": 10339,
            "contract": "contracts/polygon/implementations/SyntheticCollectionManager.sol:SyntheticCollectionManager",
            "label": "liquiditySold",
            "offset": 0,
            "slot": "5",
            "type": "t_uint256"
          },
          {
            "astId": 10341,
            "contract": "contracts/polygon/implementations/SyntheticCollectionManager.sol:SyntheticCollectionManager",
            "label": "fractionPrices",
            "offset": 0,
            "slot": "6",
            "type": "t_uint256"
          }
        ],
        "numberOfBytes": "224"
      },
      "t_struct(RoleData)19_storage": {
        "encoding": "inplace",
        "label": "struct AccessControl.RoleData",
        "members": [
          {
            "astId": 16,
            "contract": "contracts/polygon/implementations/SyntheticCollectionManager.sol:SyntheticCollectionManager",
            "label": "members",
            "offset": 0,
            "slot": "0",
            "type": "t_mapping(t_address,t_bool)"
          },
          {
            "astId": 18,
            "contract": "contracts/polygon/implementations/SyntheticCollectionManager.sol:SyntheticCollectionManager",
            "label": "adminRole",
            "offset": 0,
            "slot": "1",
            "type": "t_bytes32"
          }
        ],
        "numberOfBytes": "64"
      },
      "t_uint256": {
        "encoding": "inplace",
        "label": "uint256",
        "numberOfBytes": "32"
      }
    }
  }
}