{
  "address": "0xe1751d69AD1f40cBc6039B1Ff4BD371eCC1bB4ef",
  "abi": [
    {
      "inputs": [],
      "stateMutability": "nonpayable",
      "type": "constructor"
    },
    {
      "inputs": [
        {
          "internalType": "uint256",
          "name": "symbolId",
          "type": "uint256"
        },
        {
          "internalType": "string",
          "name": "symbol",
          "type": "string"
        },
        {
          "internalType": "address",
          "name": "oracleAddress",
          "type": "address"
        },
        {
          "internalType": "uint256",
          "name": "multiplier",
          "type": "uint256"
        },
        {
          "internalType": "uint256",
          "name": "feeRatio",
          "type": "uint256"
        },
        {
          "internalType": "uint256",
          "name": "fundingRateCoefficient",
          "type": "uint256"
        }
      ],
      "name": "addSymbol",
      "outputs": [],
      "stateMutability": "nonpayable",
      "type": "function"
    }
  ],
  "transactionHash": "0x34d97cd67aca94744403af9969b6afa331762df158f28d852f7382bcbad851b2",
  "args": [],
  "solcInputHash": "709b56931b6595be8ed7baee4515929c",
  "bytecode": "0x608060405234801561001057600080fd5b50610191806100206000396000f3fe608060405234801561001057600080fd5b506004361061002b5760003560e01c8063802ec51514610030575b600080fd5b61004661003e366004610064565b505050505050565b005b80356001600160a01b038116811461005f57600080fd5b919050565b60008060008060008060c0878903121561007c578182fd5b86359550602087013567ffffffffffffffff8082111561009a578384fd5b818901915089601f8301126100ad578384fd5b8135818111156100bf576100bf610145565b604051601f8201601f19908116603f011681019083821181831017156100e7576100e7610145565b816040528281528c60208487010111156100ff578687fd5b8260208601602083013791820160200186905250965061012491505060408801610048565b9350606087013592506080870135915060a087013590509295509295509295565b634e487b7160e01b600052604160045260246000fdfea2646970667358221220b071fa7419f067032dbd09597df678780156ae4f7f609a6d0bb2f314e54f09e164736f6c63430008040033",
  "devdoc": {
    "kind": "dev",
    "methods": {},
    "version": 1
  },
  "userdoc": {
    "kind": "user",
    "methods": {},
    "version": 1
  },
  "storageLayout": {
    "storage": [],
    "types": null
  }
}