{
  "address": "0x172Dc5C5F933F6Ed21659361484c8D92c9E828cA",
  "abi": [
    {
      "inputs": [
        {
          "internalType": "address",
          "name": "randomConsumerAddress",
          "type": "address"
        }
      ],
      "stateMutability": "nonpayable",
      "type": "constructor"
    },
    {
      "anonymous": false,
      "inputs": [
        {
          "indexed": true,
          "internalType": "address",
          "name": "player",
          "type": "address"
        },
        {
          "indexed": true,
          "internalType": "uint256",
          "name": "tokenId",
          "type": "uint256"
        },
        {
          "indexed": false,
          "internalType": "uint256",
          "name": "prediction",
          "type": "uint256"
        },
        {
          "indexed": false,
          "internalType": "bytes32",
          "name": "requestId",
          "type": "bytes32"
        }
      ],
      "name": "CoinFlipped",
      "type": "event"
    },
    {
      "anonymous": false,
      "inputs": [
        {
          "indexed": true,
          "internalType": "uint256",
          "name": "tokenId",
          "type": "uint256"
        },
        {
          "indexed": false,
          "internalType": "uint256",
          "name": "prediction",
          "type": "uint256"
        },
        {
          "indexed": false,
          "internalType": "bytes32",
          "name": "requestId",
          "type": "bytes32"
        }
      ],
      "name": "FlipProcessed",
      "type": "event"
    },
    {
      "anonymous": false,
      "inputs": [
        {
          "indexed": true,
          "internalType": "bytes32",
          "name": "role",
          "type": "bytes32"
        },
        {
          "indexed": true,
          "internalType": "bytes32",
          "name": "previousAdminRole",
          "type": "bytes32"
        },
        {
          "indexed": true,
          "internalType": "bytes32",
          "name": "newAdminRole",
          "type": "bytes32"
        }
      ],
      "name": "RoleAdminChanged",
      "type": "event"
    },
    {
      "anonymous": false,
      "inputs": [
        {
          "indexed": true,
          "internalType": "bytes32",
          "name": "role",
          "type": "bytes32"
        },
        {
          "indexed": true,
          "internalType": "address",
          "name": "account",
          "type": "address"
        },
        {
          "indexed": true,
          "internalType": "address",
          "name": "sender",
          "type": "address"
        }
      ],
      "name": "RoleGranted",
      "type": "event"
    },
    {
      "anonymous": false,
      "inputs": [
        {
          "indexed": true,
          "internalType": "bytes32",
          "name": "role",
          "type": "bytes32"
        },
        {
          "indexed": true,
          "internalType": "address",
          "name": "account",
          "type": "address"
        },
        {
          "indexed": true,
          "internalType": "address",
          "name": "sender",
          "type": "address"
        }
      ],
      "name": "RoleRevoked",
      "type": "event"
    },
    {
      "inputs": [],
      "name": "AUCTION_MANAGER",
      "outputs": [
        {
          "internalType": "bytes32",
          "name": "",
          "type": "bytes32"
        }
      ],
      "stateMutability": "view",
      "type": "function"
    },
    {
      "inputs": [
        {
          "internalType": "uint256",
          "name": "tokenId",
          "type": "uint256"
        },
        {
          "internalType": "uint256",
          "name": "buyAmount",
          "type": "uint256"
        }
      ],
      "name": "BuyJotTokens",
      "outputs": [],
      "stateMutability": "nonpayable",
      "type": "function"
    },
    {
      "inputs": [],
      "name": "DEFAULT_ADMIN_ROLE",
      "outputs": [
        {
          "internalType": "bytes32",
          "name": "",
          "type": "bytes32"
        }
      ],
      "stateMutability": "view",
      "type": "function"
    },
    {
      "inputs": [],
      "name": "RANDOM_ORACLE",
      "outputs": [
        {
          "internalType": "bytes32",
          "name": "",
          "type": "bytes32"
        }
      ],
      "stateMutability": "view",
      "type": "function"
    },
    {
      "inputs": [],
      "name": "ROUTER",
      "outputs": [
        {
          "internalType": "bytes32",
          "name": "",
          "type": "bytes32"
        }
      ],
      "stateMutability": "view",
      "type": "function"
    },
    {
      "inputs": [
        {
          "internalType": "uint256",
          "name": "",
          "type": "uint256"
        }
      ],
      "name": "_jots",
      "outputs": [
        {
          "internalType": "uint256",
          "name": "ownerSupply",
          "type": "uint256"
        },
        {
          "internalType": "uint256",
          "name": "sellingSupply",
          "type": "uint256"
        },
        {
          "internalType": "uint256",
          "name": "soldSupply",
          "type": "uint256"
        },
        {
          "internalType": "uint256",
          "name": "liquiditySupply",
          "type": "uint256"
        },
        {
          "internalType": "uint256",
          "name": "liquiditySold",
          "type": "uint256"
        },
        {
          "internalType": "uint256",
          "name": "fractionPrices",
          "type": "uint256"
        },
        {
          "internalType": "uint256",
          "name": "lastFlipTime",
          "type": "uint256"
        }
      ],
      "stateMutability": "view",
      "type": "function"
    },
    {
      "inputs": [],
      "name": "_originalCollectionAddress",
      "outputs": [
        {
          "internalType": "address",
          "name": "",
          "type": "address"
        }
      ],
      "stateMutability": "view",
      "type": "function"
    },
    {
      "inputs": [],
      "name": "_syntheticProtocolRouterAddress",
      "outputs": [
        {
          "internalType": "address",
          "name": "",
          "type": "address"
        }
      ],
      "stateMutability": "view",
      "type": "function"
    },
    {
      "inputs": [],
      "name": "_tokenCounter",
      "outputs": [
        {
          "internalType": "uint256",
          "name": "_value",
          "type": "uint256"
        }
      ],
      "stateMutability": "view",
      "type": "function"
    },
    {
      "inputs": [
        {
          "internalType": "uint256",
          "name": "",
          "type": "uint256"
        }
      ],
      "name": "_tokens",
      "outputs": [
        {
          "internalType": "bool",
          "name": "",
          "type": "bool"
        }
      ],
      "stateMutability": "view",
      "type": "function"
    },
    {
      "inputs": [
        {
          "internalType": "uint256",
          "name": "tokenId",
          "type": "uint256"
        }
      ],
      "name": "addLiquidityToPool",
      "outputs": [],
      "stateMutability": "nonpayable",
      "type": "function"
    },
    {
      "inputs": [
        {
          "internalType": "uint256",
          "name": "tokenId",
          "type": "uint256"
        },
        {
          "internalType": "uint256",
          "name": "amount",
          "type": "uint256"
        }
      ],
      "name": "decreaseSellingSupply",
      "outputs": [],
      "stateMutability": "nonpayable",
      "type": "function"
    },
    {
      "inputs": [],
      "name": "erc721address",
      "outputs": [
        {
          "internalType": "address",
          "name": "",
          "type": "address"
        }
      ],
      "stateMutability": "view",
      "type": "function"
    },
    {
      "inputs": [
        {
          "internalType": "uint256",
          "name": "tokenId",
          "type": "uint256"
        },
        {
          "internalType": "uint256",
          "name": "prediction",
          "type": "uint256"
        }
      ],
      "name": "flipJot",
      "outputs": [],
      "stateMutability": "nonpayable",
      "type": "function"
    },
    {
      "inputs": [],
      "name": "fundingTokenAddress",
      "outputs": [
        {
          "internalType": "address",
          "name": "",
          "type": "address"
        }
      ],
      "stateMutability": "view",
      "type": "function"
    },
    {
      "inputs": [
        {
          "internalType": "uint256",
          "name": "tokenId",
          "type": "uint256"
        }
      ],
      "name": "getRemainingSupply",
      "outputs": [
        {
          "internalType": "uint256",
          "name": "",
          "type": "uint256"
        }
      ],
      "stateMutability": "view",
      "type": "function"
    },
    {
      "inputs": [
        {
          "internalType": "bytes32",
          "name": "role",
          "type": "bytes32"
        }
      ],
      "name": "getRoleAdmin",
      "outputs": [
        {
          "internalType": "bytes32",
          "name": "",
          "type": "bytes32"
        }
      ],
      "stateMutability": "view",
      "type": "function"
    },
    {
      "inputs": [
        {
          "internalType": "bytes32",
          "name": "role",
          "type": "bytes32"
        },
        {
          "internalType": "address",
          "name": "account",
          "type": "address"
        }
      ],
      "name": "grantRole",
      "outputs": [],
      "stateMutability": "nonpayable",
      "type": "function"
    },
    {
      "inputs": [
        {
          "internalType": "bytes32",
          "name": "role",
          "type": "bytes32"
        },
        {
          "internalType": "address",
          "name": "account",
          "type": "address"
        }
      ],
      "name": "hasRole",
      "outputs": [
        {
          "internalType": "bool",
          "name": "",
          "type": "bool"
        }
      ],
      "stateMutability": "view",
      "type": "function"
    },
    {
      "inputs": [
        {
          "internalType": "uint256",
          "name": "tokenId",
          "type": "uint256"
        },
        {
          "internalType": "uint256",
          "name": "amount",
          "type": "uint256"
        }
      ],
      "name": "increaseSellingSupply",
      "outputs": [],
      "stateMutability": "nonpayable",
      "type": "function"
    },
    {
      "inputs": [
        {
          "internalType": "address",
          "name": "_jotAddress",
          "type": "address"
        },
        {
          "internalType": "address",
          "name": "originalCollectionAddress_",
          "type": "address"
        },
        {
          "internalType": "address",
          "name": "_erc721address",
          "type": "address"
        },
        {
          "internalType": "address",
          "name": "auctionManagerAddress",
          "type": "address"
        },
        {
          "internalType": "address",
          "name": "protocol_",
          "type": "address"
        },
        {
          "internalType": "address",
          "name": "fundingTokenAddress_",
          "type": "address"
        },
        {
          "internalType": "address",
          "name": "jotPool_",
          "type": "address"
        }
      ],
      "name": "initialize",
      "outputs": [],
      "stateMutability": "nonpayable",
      "type": "function"
    },
    {
      "inputs": [
        {
          "internalType": "uint256",
          "name": "tokenId",
          "type": "uint256"
        }
      ],
      "name": "isAllowedToFlip",
      "outputs": [
        {
          "internalType": "bool",
          "name": "",
          "type": "bool"
        }
      ],
      "stateMutability": "view",
      "type": "function"
    },
    {
      "inputs": [
        {
          "internalType": "uint256",
          "name": "tokenId",
          "type": "uint256"
        }
      ],
      "name": "isSyntheticNFTCreated",
      "outputs": [
        {
          "internalType": "bool",
          "name": "",
          "type": "bool"
        }
      ],
      "stateMutability": "view",
      "type": "function"
    },
    {
      "inputs": [
        {
          "internalType": "uint256",
          "name": "tokenId",
          "type": "uint256"
        }
      ],
      "name": "isSyntheticNFTFractionalised",
      "outputs": [
        {
          "internalType": "bool",
          "name": "",
          "type": "bool"
        }
      ],
      "stateMutability": "view",
      "type": "function"
    },
    {
      "inputs": [],
      "name": "jotAddress",
      "outputs": [
        {
          "internalType": "address",
          "name": "",
          "type": "address"
        }
      ],
      "stateMutability": "view",
      "type": "function"
    },
    {
      "inputs": [],
      "name": "jotPool",
      "outputs": [
        {
          "internalType": "address",
          "name": "",
          "type": "address"
        }
      ],
      "stateMutability": "view",
      "type": "function"
    },
    {
      "inputs": [],
      "name": "poolAddress",
      "outputs": [
        {
          "internalType": "address",
          "name": "",
          "type": "address"
        }
      ],
      "stateMutability": "view",
      "type": "function"
    },
    {
      "inputs": [
        {
          "internalType": "uint256",
          "name": "randomNumber",
          "type": "uint256"
        },
        {
          "internalType": "bytes32",
          "name": "requestId",
          "type": "bytes32"
        }
      ],
      "name": "processFlipResult",
      "outputs": [],
      "stateMutability": "nonpayable",
      "type": "function"
    },
    {
      "inputs": [],
      "name": "protocol",
      "outputs": [
        {
          "internalType": "contract ProtocolParameters",
          "name": "",
          "type": "address"
        }
      ],
      "stateMutability": "view",
      "type": "function"
    },
    {
      "inputs": [
        {
          "internalType": "uint256",
          "name": "nftId_",
          "type": "uint256"
        },
        {
          "internalType": "address",
          "name": "newOwner_",
          "type": "address"
        },
        {
          "internalType": "uint256",
          "name": "jotsSupply_",
          "type": "uint256"
        }
      ],
      "name": "reassignNFT",
      "outputs": [],
      "stateMutability": "nonpayable",
      "type": "function"
    },
    {
      "inputs": [
        {
          "internalType": "uint256",
          "name": "tokenId",
          "type": "uint256"
        },
        {
          "internalType": "uint256",
          "name": "supplyToKeep",
          "type": "uint256"
        },
        {
          "internalType": "uint256",
          "name": "priceFraction",
          "type": "uint256"
        }
      ],
      "name": "register",
      "outputs": [],
      "stateMutability": "nonpayable",
      "type": "function"
    },
    {
      "inputs": [
        {
          "internalType": "bytes32",
          "name": "role",
          "type": "bytes32"
        },
        {
          "internalType": "address",
          "name": "account",
          "type": "address"
        }
      ],
      "name": "renounceRole",
      "outputs": [],
      "stateMutability": "nonpayable",
      "type": "function"
    },
    {
      "inputs": [
        {
          "internalType": "bytes32",
          "name": "role",
          "type": "bytes32"
        },
        {
          "internalType": "address",
          "name": "account",
          "type": "address"
        }
      ],
      "name": "revokeRole",
      "outputs": [],
      "stateMutability": "nonpayable",
      "type": "function"
    },
    {
      "inputs": [
        {
          "internalType": "uint256",
          "name": "tokenId",
          "type": "uint256"
        }
      ],
      "name": "safeBurn",
      "outputs": [],
      "stateMutability": "nonpayable",
      "type": "function"
    },
    {
      "inputs": [
        {
          "internalType": "bytes4",
          "name": "interfaceId",
          "type": "bytes4"
        }
      ],
      "name": "supportsInterface",
      "outputs": [
        {
          "internalType": "bool",
          "name": "",
          "type": "bool"
        }
      ],
      "stateMutability": "view",
      "type": "function"
    },
    {
      "inputs": [],
      "name": "uniswapV2Router",
      "outputs": [
        {
          "internalType": "contract IUniswapV2Router02",
          "name": "",
          "type": "address"
        }
      ],
      "stateMutability": "view",
      "type": "function"
    },
    {
      "inputs": [
        {
          "internalType": "uint256",
          "name": "tokenId",
          "type": "uint256"
        },
        {
          "internalType": "uint256",
          "name": "newFractionPrice",
          "type": "uint256"
        }
      ],
      "name": "updatePriceFraction",
      "outputs": [],
      "stateMutability": "nonpayable",
      "type": "function"
    },
    {
      "inputs": [
        {
          "internalType": "uint256",
          "name": "tokenId",
          "type": "uint256"
        }
      ],
      "name": "verifyNFT",
      "outputs": [
        {
          "internalType": "bool",
          "name": "",
          "type": "bool"
        }
      ],
      "stateMutability": "view",
      "type": "function"
    }
  ],
  "transactionHash": "0xe2314b618c43a1d250b4b6e006179901d7c0b53099a27ef8745e054a4a530fa5",
  "args": [
    "0x5eD95f5730FeAa382Ac2abB0C2fb13E112397fa0"
  ],
  "solcInputHash": "3935de00e4c8d86a3dd4d1df52b15b95",
  "bytecode": "0x60a06040523480156200001157600080fd5b506040516200260e3803806200260e83398101604081905262000034916200004a565b60601b6001600160601b0319166080526200007a565b6000602082840312156200005c578081fd5b81516001600160a01b038116811462000073578182fd5b9392505050565b60805160601c61257562000099600039600061117401526125756000f3fe608060405234801561001057600080fd5b50600436106102325760003560e01c806389736a9011610130578063b7c6fe36116100b8578063e445a5021161007c578063e445a5021461058c578063ecf70d371461059f578063ed70554d146105b2578063ee2af58d146105d5578063faa5c564146105e857600080fd5b8063b7c6fe36146104b0578063bc7002f1146104c4578063cd87eb5214610544578063d547741f14610566578063dbf513251461057957600080fd5b80639230b2bc116100ff5780639230b2bc1461046557806393ed14431461046f578063a217fddf14610482578063ab8f2b1b1461048a578063b1da4db71461049d57600080fd5b806389736a901461040c5780638c858a141461041f5780638ce744261461043f57806391d148541461045257600080fd5b806335876476116101be5780634c538fde116101825780634c538fde146103995780635763c393146103ac57806358e8bcb7146103bf578063787d43a4146103e6578063814f3222146103f957600080fd5b8063358764761461032657806336568abe1461033957806339fb284e1461034c5780634bc4d599146103735780634c4b206b1461038657600080fd5b80631755ff21116102055780631755ff21146102b25780631d69a5ff146102ba578063248a9ca3146102cd5780632f2ff15d146102fe57806332fe7b261461031157600080fd5b806301ffc9a714610237578063072ac5f31461025f57806315d248e7146102745780631694505e1461029f575b600080fd5b61024a610245366004612227565b6105fb565b60405190151581526020015b60405180910390f35b61027261026d366004612286565b61060c565b005b600454610287906001600160a01b031681565b6040516001600160a01b039091168152602001610256565b600e54610287906001600160a01b031681565b6102876108b9565b6102726102c836600461224f565b61093b565b6102f06102db3660046121c8565b60009081526020819052604090206001015490565b604051908152602001610256565b61027261030c3660046121f8565b610998565b6102f060008051602061252083398151915281565b610272610334366004612113565b6109c3565b6102726103473660046121f8565b610bbc565b6102f07fc55a74c743a5d6aff6a82963adf054e2367242c4a636870f26b8ee90910968d081565b600a54610287906001600160a01b031681565b600d54610287906001600160a01b031681565b600b54610287906001600160a01b031681565b6102726103ba3660046121c8565b610c3a565b6102f07fe87beaa2684453d25a1f0e3e7002e109b34fc4f132f115c9a7707901e792751381565b6102726103f4366004612286565b610e29565b600854610287906001600160a01b031681565b61027261041a366004612286565b611078565b6102f061042d3660046121c8565b6000908152600c602052604090205490565b600554610287906001600160a01b031681565b61024a6104603660046121f8565b6110c6565b6002546102f09081565b61027261047d366004612286565b6110ef565b6102f0600081565b610272610498366004612286565b61125f565b600f54610287906001600160a01b031681565b61024a6104be3660046121c8565b50600190565b61050f6104d23660046121c8565b600c602052600090815260409020805460018201546002830154600384015460048501546005860154600690960154949593949293919290919087565b604080519788526020880196909652948601939093526060850191909152608084015260a083015260c082015260e001610256565b61024a6105523660046121c8565b6000908152600c6020526040902054151590565b6102726105743660046121f8565b61141a565b6102726105873660046121c8565b611440565b61024a61059a3660046121c8565b6114c1565b61024a6105ad3660046121c8565b611606565b61024a6105c03660046121c8565b60066020526000908152604090205460ff1681565b6102726105e3366004612286565b611683565b6102726105f63660046122a7565b6117a7565b600061060682611908565b92915050565b7fe87beaa2684453d25a1f0e3e7002e109b34fc4f132f115c9a7707901e7927513610637813361193d565b600080600560009054906101000a90046001600160a01b03166001600160a01b031663b94d25ce6040518163ffffffff1660e01b815260040160206040518083038186803b15801561068857600080fd5b505afa15801561069c573d6000803e3d6000fd5b505050506040513d601f19601f820116820180604052508101906106c091906121e0565b90506000600560009054906101000a90046001600160a01b03166001600160a01b0316631861779d6040518163ffffffff1660e01b815260040160206040518083038186803b15801561071257600080fd5b505afa158015610726573d6000803e3d6000fd5b505050506040513d601f19601f8201168201806040525081019061074a91906121e0565b6000868152600360209081526040918290208251808401909352805483526001015490820152909150866107f65780516000908152600c602052604081208054859290610798908490612497565b9091555050602081015187146107b0578293506107d4565b6107ba8284612497565b600a549094506107d4906001600160a01b031633846119a1565b600f54600a546107f1916001600160a01b039182169116866119a1565b610870565b80516000908152600c602052604081208054859290610816908490612440565b90915550506020810151871461082e57829350610852565b6108388284612497565b600a54909450610852906001600160a01b031633846119a1565b600f54600a54610870916001600160a01b0391821691163087611a04565b8051602080830151604080519182529181018990527fa0695ef352d4e14bf4f70f190e3b1807fc647c987fc280861c4cf5660f3c9b15910160405180910390a250505050505050565b600a54604080516324dead2f60e11b815290516000926001600160a01b0316916349bd5a5e916004808301926020929190829003018186803b1580156108fe57600080fd5b505afa158015610912573d6000803e3d6000fd5b505050506040513d601f19601f8201168201806040525081019061093691906120f7565b905090565b7fc55a74c743a5d6aff6a82963adf054e2367242c4a636870f26b8ee90910968d0610966813361193d565b6000848152600c6020526040902080541561099157634e487b7160e01b600052600160045260246000fd5b5050505050565b6000828152602081905260409020600101546109b4813361193d565b6109be8383611a3c565b505050565b600154610100900460ff16806109dc575060015460ff16155b610a445760405162461bcd60e51b815260206004820152602e60248201527f496e697469616c697a61626c653a20636f6e747261637420697320616c72656160448201526d191e481a5b9a5d1a585b1a5e995960921b60648201526084015b60405180910390fd5b600154610100900460ff16158015610a66576001805461ffff19166101011790555b600a80546001600160a01b03808b166001600160a01b031992831617909255600d8054898416908316179055600880548a841690831617905560048054821633178155600580548885169084168117909155600f80549487169490931693909317909155604080516320f2acf360e11b815290516341e559e692828101926020929190829003018186803b158015610afd57600080fd5b505afa158015610b11573d6000803e3d6000fd5b505050506040513d601f19601f82011682018060405250810190610b3591906121e0565b600955600b80546001600160a01b0319166001600160a01b038516179055610b5e600033611ac0565b610b7660008051602061252083398151915233611ac0565b610ba07fc55a74c743a5d6aff6a82963adf054e2367242c4a636870f26b8ee90910968d086611ac0565b8015610bb2576001805461ff00191690555b5050505050505050565b6001600160a01b0381163314610c2c5760405162461bcd60e51b815260206004820152602f60248201527f416363657373436f6e74726f6c3a2063616e206f6e6c792072656e6f756e636560448201526e103937b632b9903337b91039b2b63360891b6064820152608401610a3b565b610c368282611aca565b5050565b6000818152600c6020526040908190206003810154600491820154600a54600e54945163095ea7b360e01b81526001600160a01b0395861694810194909452602484018390529193909291169063095ea7b390604401602060405180830381600087803b158015610caa57600080fd5b505af1158015610cbe573d6000803e3d6000fd5b505050506040513d601f19601f82011682018060405250810190610ce291906121a8565b50600b54600e5460405163095ea7b360e01b81526001600160a01b0391821660048201526024810184905291169063095ea7b390604401602060405180830381600087803b158015610d3357600080fd5b505af1158015610d47573d6000803e3d6000fd5b505050506040513d601f19601f82011682018060405250810190610d6b91906121a8565b50600e54600a54600b5460405162e8e33760e81b81526001600160a01b0392831660048201529082166024820152604481018590526064810184905260006084820181905260a4820181905260c48201524260e482015291169063e8e337009061010401606060405180830381600087803b158015610de957600080fd5b505af1158015610dfd573d6000803e3d6000fd5b505050506040513d601f19601f82011682018060405250810190610e2191906122d2565b505050505050565b6000828152600c6020526040812060050154610e459083612478565b905060008111610e8f5760405162461bcd60e51b8152602060048201526015602482015274416d6f756e742063616e2774206265207a65726f2160581b6044820152606401610a3b565b6000838152600c602052604081206002810154600190910154610eb29190612497565b905081811015610ec0578091505b81610eff5760405162461bcd60e51b815260206004820152600f60248201526e4e6f20746f6b656e73206c6566742160881b6044820152606401610a3b565b600b546040516323b872dd60e01b8152336004820152306024820152604481018490526001600160a01b03909116906323b872dd90606401602060405180830381600087803b158015610f5157600080fd5b505af1158015610f65573d6000803e3d6000fd5b505050506040513d601f19601f82011682018060405250810190610f8991906121a8565b50600a546040516323b872dd60e01b8152306004820152336024820152604481018590526001600160a01b03909116906323b872dd90606401602060405180830381600087803b158015610fdc57600080fd5b505af1158015610ff0573d6000803e3d6000fd5b505050506040513d601f19601f8201168201806040525081019061101491906121a8565b506000848152600c602052604081206002018054859290611036908490612440565b90915550506000848152600c60205260408120600401805484929061105c908490612440565b9091555050818114156110725761107284610c3a565b50505050565b61108182611b2f565b6001600160a01b0316336001600160a01b0316146110b15760405162461bcd60e51b8152600401610a3b906123ff565b6000918252600c602052604090912060050155565b6000918252602082815260408084206001600160a01b0393909316845291905290205460ff1690565b6110f8826114c1565b6111445760405162461bcd60e51b815260206004820152601760248201527f466c6970206973206e6f7420616c6c6f776564207965740000000000000000006044820152606401610a3b565b6000828152600c6020908152604080832042600690910155805163dbdff2c160e01b815290516001600160a01b037f0000000000000000000000000000000000000000000000000000000000000000169263dbdff2c1926004808201939182900301818787803b1580156111b757600080fd5b505af11580156111cb573d6000803e3d6000fd5b505050506040513d601f19601f820116820180604052508101906111ef91906121e0565b604080518082018252858152602080820186815260008581526003835284902092518355516001909201919091558151858152908101839052919250849133917fa9f0529c6155011b0950f4a6b0b64d656eb9b974150f0a337b93221cb0cdd5d6910160405180910390a3505050565b61126882611b2f565b6001600160a01b0316336001600160a01b0316146112985760405162461bcd60e51b8152600401610a3b906123ff565b6112a3600282612458565b6000838152600c602052604090206003015410156113115760405162461bcd60e51b815260206004820152602560248201527f596f7520646f206e6f74206861766520656e6f756768206c6971756964697479604482015264081b19599d60da1b6064820152608401610a3b565b61131c600282612458565b6000838152600c6020526040902060010154101561138f5760405162461bcd60e51b815260206004820152602a60248201527f596f7520646f206e6f74206861766520656e6f7567682073656c6c696e6720736044820152691d5c1c1b1e481b19599d60b21b6064820152608401610a3b565b6000828152600c6020526040812080548392906113ad908490612440565b909155506113be9050600282612458565b6000838152600c6020526040812060010180549091906113df908490612497565b909155506113f09050600282612458565b6000838152600c602052604081206003018054909190611411908490612497565b90915550505050565b600082815260208190526040902060010154611436813361193d565b6109be8383611aca565b600080516020612520833981519152611459813361193d565b600d5460405163dbf5132560e01b8152600481018490526001600160a01b039091169063dbf5132590602401600060405180830381600087803b15801561149f57600080fd5b505af11580156114b3573d6000803e3d6000fd5b50505050610c366002611bac565b60055460408051633b34399960e11b815290516000926001600160a01b0316916376687332916004808301926020929190829003018186803b15801561150657600080fd5b505afa15801561151a573d6000803e3d6000fd5b505050506040513d601f19601f8201168201806040525081019061153e91906121e0565b6000838152600c602052604090206006015461155a9042612497565b101580156115e95750600a54600f546040516370a0823160e01b81526001600160a01b03918216600482015260009291909116906370a082319060240160206040518083038186803b1580156115af57600080fd5b505afa1580156115c3573d6000803e3d6000fd5b505050506040513d601f19601f820116820180604052508101906115e791906121e0565b115b801561060657506000828152600c60205260409020541515610606565b600d54604051634f558e7960e01b8152600481018390526000916001600160a01b031690634f558e799060240160206040518083038186803b15801561164b57600080fd5b505afa15801561165f573d6000803e3d6000fd5b505050506040513d601f19601f8201168201806040525081019061060691906121a8565b61168c82611b2f565b6001600160a01b0316336001600160a01b0316146116bc5760405162461bcd60e51b8152600401610a3b906123ff565b6000828152600c60205260409020548111156117255760405162461bcd60e51b815260206004820152602260248201527f596f7520646f206e6f74206861766520656e6f75676820746f6b656e73206c65604482015261199d60f21b6064820152608401610a3b565b6000828152600c602052604081208054839290611743908490612497565b909155506117549050600282612458565b6000838152600c602052604081206001018054909190611775908490612440565b909155506117869050600282612458565b6000838152600c602052604081206003018054909190611411908490612440565b6000805160206125208339815191526117c0813361193d565b6117ce600280546001019055565b60006117e560408051602081019091526000815290565b90506117f2338683611c03565b600a546009546040516340c10f1960e01b815230600482015260248101919091526001600160a01b03909116906340c10f1990604401600060405180830381600087803b15801561184257600080fd5b505af1158015611856573d6000803e3d6000fd5b50505050600060028560095461186c9190612497565b6118769190612458565b9050600060028660095461188a9190612497565b6118949190612458565b6040805160e0810182529788526020808901948552600089830181815260608b0194855260808b0182815260a08c019a8b5260c08c018381529c8352600c90935292902098518955935160018901555160028801555160038701555051600485015550505160058201559051600690910155565b60006001600160e01b03198216637965db0b60e01b148061060657506301ffc9a760e01b6001600160e01b0319831614610606565b61194782826110c6565b610c365761195f816001600160a01b03166014611cc4565b61196a836020611cc4565b60405160200161197b929190612347565b60408051601f198184030181529082905262461bcd60e51b8252610a3b916004016123ec565b6040516001600160a01b0383166024820152604481018290526109be90849063a9059cbb60e01b906064015b60408051601f198184030181529190526020810180516001600160e01b03166001600160e01b031990931692909217909152611ead565b6040516001600160a01b03808516602483015283166044820152606481018290526110729085906323b872dd60e01b906084016119cd565b611a4682826110c6565b610c36576000828152602081815260408083206001600160a01b03851684529091529020805460ff19166001179055611a7c3390565b6001600160a01b0316816001600160a01b0316837f2f8788117e7eff1d82e926ec794901d17c78024a50270940304540a733656f0d60405160405180910390a45050565b610c368282611a3c565b611ad482826110c6565b15610c36576000828152602081815260408083206001600160a01b0385168085529252808320805460ff1916905551339285917ff6391f5c32d9c69d2a47ea670b442974b53935d1edc7fd64eb21e047a839171b9190a45050565b600d546040516331a9108f60e11b8152600481018390526000916001600160a01b031690636352211e9060240160206040518083038186803b158015611b7457600080fd5b505afa158015611b88573d6000803e3d6000fd5b505050506040513d601f19601f8201168201806040525081019061060691906120f7565b805480611bfb5760405162461bcd60e51b815260206004820152601b60248201527f436f756e7465723a2064656372656d656e74206f766572666c6f7700000000006044820152606401610a3b565b600019019055565b611c0c82611606565b15611c595760405162461bcd60e51b815260206004820181905260248201527f53796e746865746963204e465420616c72656164792067656e657261746564216044820152606401610a3b565b600d54604051633349e71f60e21b81526001600160a01b039091169063cd279c7c90611c8d908690869086906004016123bc565b600060405180830381600087803b158015611ca757600080fd5b505af1158015611cbb573d6000803e3d6000fd5b50505050505050565b60606000611cd3836002612478565b611cde906002612440565b67ffffffffffffffff811115611d0457634e487b7160e01b600052604160045260246000fd5b6040519080825280601f01601f191660200182016040528015611d2e576020820181803683370190505b509050600360fc1b81600081518110611d5757634e487b7160e01b600052603260045260246000fd5b60200101906001600160f81b031916908160001a905350600f60fb1b81600181518110611d9457634e487b7160e01b600052603260045260246000fd5b60200101906001600160f81b031916908160001a9053506000611db8846002612478565b611dc3906001612440565b90505b6001811115611e57576f181899199a1a9b1b9c1cb0b131b232b360811b85600f1660108110611e0557634e487b7160e01b600052603260045260246000fd5b1a60f81b828281518110611e2957634e487b7160e01b600052603260045260246000fd5b60200101906001600160f81b031916908160001a90535060049490941c93611e50816124da565b9050611dc6565b508315611ea65760405162461bcd60e51b815260206004820181905260248201527f537472696e67733a20686578206c656e67746820696e73756666696369656e746044820152606401610a3b565b9392505050565b6000611f02826040518060400160405280602081526020017f5361666545524332303a206c6f772d6c6576656c2063616c6c206661696c6564815250856001600160a01b0316611f7f9092919063ffffffff16565b8051909150156109be5780806020019051810190611f2091906121a8565b6109be5760405162461bcd60e51b815260206004820152602a60248201527f5361666545524332303a204552433230206f7065726174696f6e20646964206e6044820152691bdd081cdd58d8d9595960b21b6064820152608401610a3b565b6060611f8e8484600085611f96565b949350505050565b606082471015611ff75760405162461bcd60e51b815260206004820152602660248201527f416464726573733a20696e73756666696369656e742062616c616e636520666f6044820152651c8818d85b1b60d21b6064820152608401610a3b565b843b6120455760405162461bcd60e51b815260206004820152601d60248201527f416464726573733a2063616c6c20746f206e6f6e2d636f6e74726163740000006044820152606401610a3b565b600080866001600160a01b03168587604051612061919061232b565b60006040518083038185875af1925050503d806000811461209e576040519150601f19603f3d011682016040523d82523d6000602084013e6120a3565b606091505b50915091506120b38282866120be565b979650505050505050565b606083156120cd575081611ea6565b8251156120dd5782518084602001fd5b8160405162461bcd60e51b8152600401610a3b91906123ec565b600060208284031215612108578081fd5b8151611ea681612507565b600080600080600080600060e0888a03121561212d578283fd5b873561213881612507565b9650602088013561214881612507565b9550604088013561215881612507565b9450606088013561216881612507565b9350608088013561217881612507565b925060a088013561218881612507565b915060c088013561219881612507565b8091505092959891949750929550565b6000602082840312156121b9578081fd5b81518015158114611ea6578182fd5b6000602082840312156121d9578081fd5b5035919050565b6000602082840312156121f1578081fd5b5051919050565b6000806040838503121561220a578182fd5b82359150602083013561221c81612507565b809150509250929050565b600060208284031215612238578081fd5b81356001600160e01b031981168114611ea6578182fd5b600080600060608486031215612263578283fd5b83359250602084013561227581612507565b929592945050506040919091013590565b60008060408385031215612298578182fd5b50508035926020909101359150565b6000806000606084860312156122bb578283fd5b505081359360208301359350604090920135919050565b6000806000606084860312156122e6578283fd5b8351925060208401519150604084015190509250925092565b600081518084526123178160208601602086016124ae565b601f01601f19169290920160200192915050565b6000825161233d8184602087016124ae565b9190910192915050565b7f416363657373436f6e74726f6c3a206163636f756e742000000000000000000081526000835161237f8160178501602088016124ae565b7001034b99036b4b9b9b4b733903937b6329607d1b60179184019182015283516123b08160288401602088016124ae565b01602801949350505050565b60018060a01b03841681528260208201526060604082015260006123e360608301846122ff565b95945050505050565b602081526000611ea660208301846122ff565b60208082526021908201527f596f7520617265206e6f7420746865206f776e6572206f6620746865204e46546040820152602160f81b606082015260800190565b60008219821115612453576124536124f1565b500190565b60008261247357634e487b7160e01b81526012600452602481fd5b500490565b6000816000190483118215151615612492576124926124f1565b500290565b6000828210156124a9576124a96124f1565b500390565b60005b838110156124c95781810151838201526020016124b1565b838111156110725750506000910152565b6000816124e9576124e96124f1565b506000190190565b634e487b7160e01b600052601160045260246000fd5b6001600160a01b038116811461251c57600080fd5b5056feeb4fd9f47c063b511700e1c8e94e2fa4088ffca1fdcef1e60edf1beecd1b2e64a26469706673582212207d5e8638cc5a2b68f648ce09b282c345b230e15ab62094db286aa7ed5a3308e964736f6c63430008040033",
  "devdoc": {
    "kind": "dev",
    "methods": {
      "getRoleAdmin(bytes32)": {
        "details": "Returns the admin role that controls `role`. See {grantRole} and {revokeRole}. To change a role's admin, use {_setRoleAdmin}."
      },
      "grantRole(bytes32,address)": {
        "details": "Grants `role` to `account`. If `account` had not been already granted `role`, emits a {RoleGranted} event. Requirements: - the caller must have ``role``'s admin role."
      },
      "hasRole(bytes32,address)": {
        "details": "Returns `true` if `account` has been granted `role`."
      },
      "reassignNFT(uint256,address,uint256)": {
        "details": "we need to pass the jobSupply here to work well even when the governance      changes this protocol parameter in the middle of the auction"
      },
      "renounceRole(bytes32,address)": {
        "details": "Revokes `role` from the calling account. Roles are often managed via {grantRole} and {revokeRole}: this function's purpose is to provide a mechanism for accounts to lose their privileges if they are compromised (such as when a trusted device is misplaced). If the calling account had been granted `role`, emits a {RoleRevoked} event. Requirements: - the caller must be `account`."
      },
      "revokeRole(bytes32,address)": {
        "details": "Revokes `role` from `account`. If `account` had been granted `role`, emits a {RoleRevoked} event. Requirements: - the caller must have ``role``'s admin role."
      },
      "safeBurn(uint256)": {
        "details": "burn a token"
      },
      "supportsInterface(bytes4)": {
        "details": "See {IERC165-supportsInterface}."
      }
    },
    "stateVariables": {
      "_flips": {
        "details": "mapping the request id with the flip input data"
      },
      "jotsSupply": {
        "details": "ERC20 totalSupply (governance) parameter TODO: get from governance"
      }
    },
    "version": 1
  },
  "userdoc": {
    "kind": "user",
    "methods": {
      "BuyJotTokens(uint256,uint256)": {
        "notice": "allows the caller to buy jots using the Funding token"
      },
      "_jots(uint256)": {
        "notice": "Jot data for each token"
      },
      "_originalCollectionAddress()": {
        "notice": "address of the original collection"
      },
      "_syntheticProtocolRouterAddress()": {
        "notice": "the address of the Protocol Router"
      },
      "addLiquidityToPool(uint256)": {
        "notice": "add available liquidity for a given token to UniSwap pool"
      },
      "decreaseSellingSupply(uint256,uint256)": {
        "notice": "decrease selling supply for a given NFT caller must be the owner of the NFT"
      },
      "erc721address()": {
        "notice": "Synthetic NFT Address  for this collection"
      },
      "fundingTokenAddress()": {
        "notice": "funding token address"
      },
      "increaseSellingSupply(uint256,uint256)": {
        "notice": "increase selling supply for a given NFT caller must be the owner of the NFT"
      },
      "isSyntheticNFTCreated(uint256)": {
        "notice": "public function. Checks if an NFT has been already minted."
      },
      "isSyntheticNFTFractionalised(uint256)": {
        "notice": "public function. Checks if an NFT has been already fractionalised."
      },
      "jotAddress()": {
        "notice": "jot Address for this collection"
      },
      "poolAddress()": {
        "notice": "returns the Quickswap pool address"
      },
      "register(uint256,uint256,uint256)": {
        "notice": "First it updates counter syntheticID++. Then:  generateSyntheticNFT(address, id)  Interacts with JOT contract for that address and: (a) Mints JotSupply (governance parameter) (b) Register ownerSupply (DO NOT SEND HIM/HER) (c) Register sellingSupply = (JotSupply-supplyToKeep)/2 (d) Register soldSupply = 0 (e) Register liquiditySupply = (JotSupply-supplyToKeep)/2. (f) Register liquiditySold = 0"
      },
      "updatePriceFraction(uint256,uint256)": {
        "notice": "update the price of a fraction for a given NFT caller must be the owner"
      },
      "verifyNFT(uint256)": {
        "notice": "This method calls chainlink oracle and verifies if the NFT has been locked on NFTVaultManager. In addition gets the metadata of the NFT"
      }
    },
    "version": 1
  },
  "storageLayout": {
    "storage": [
      {
        "astId": 290,
        "contract": "contracts/polygon/implementations/SyntheticCollectionManager.sol:SyntheticCollectionManager",
        "label": "_roles",
        "offset": 0,
        "slot": "0",
        "type": "t_mapping(t_bytes32,t_struct(RoleData)285_storage)"
      },
      {
        "astId": 3462,
        "contract": "contracts/polygon/implementations/SyntheticCollectionManager.sol:SyntheticCollectionManager",
        "label": "_initialized",
        "offset": 0,
        "slot": "1",
        "type": "t_bool"
      },
      {
        "astId": 3465,
        "contract": "contracts/polygon/implementations/SyntheticCollectionManager.sol:SyntheticCollectionManager",
        "label": "_initializing",
        "offset": 1,
        "slot": "1",
        "type": "t_bool"
      },
      {
        "astId": 11023,
        "contract": "contracts/polygon/implementations/SyntheticCollectionManager.sol:SyntheticCollectionManager",
        "label": "_tokenCounter",
        "offset": 0,
        "slot": "2",
        "type": "t_struct(Counter)6528_storage"
      },
      {
        "astId": 11031,
        "contract": "contracts/polygon/implementations/SyntheticCollectionManager.sol:SyntheticCollectionManager",
        "label": "_flips",
        "offset": 0,
        "slot": "3",
        "type": "t_mapping(t_bytes32,t_struct(Flip)10978_storage)"
      },
      {
        "astId": 11034,
        "contract": "contracts/polygon/implementations/SyntheticCollectionManager.sol:SyntheticCollectionManager",
        "label": "_syntheticProtocolRouterAddress",
        "offset": 0,
        "slot": "4",
        "type": "t_address"
      },
      {
        "astId": 11037,
        "contract": "contracts/polygon/implementations/SyntheticCollectionManager.sol:SyntheticCollectionManager",
        "label": "protocol",
        "offset": 0,
        "slot": "5",
        "type": "t_contract(ProtocolParameters)10612"
      },
      {
        "astId": 11041,
        "contract": "contracts/polygon/implementations/SyntheticCollectionManager.sol:SyntheticCollectionManager",
        "label": "_tokens",
        "offset": 0,
        "slot": "6",
        "type": "t_mapping(t_uint256,t_bool)"
      },
      {
        "astId": 11045,
        "contract": "contracts/polygon/implementations/SyntheticCollectionManager.sol:SyntheticCollectionManager",
        "label": "_tokenMetadata",
        "offset": 0,
        "slot": "7",
        "type": "t_mapping(t_uint256,t_string_storage)"
      },
      {
        "astId": 11048,
        "contract": "contracts/polygon/implementations/SyntheticCollectionManager.sol:SyntheticCollectionManager",
        "label": "_originalCollectionAddress",
        "offset": 0,
        "slot": "8",
        "type": "t_address"
      },
      {
        "astId": 11051,
        "contract": "contracts/polygon/implementations/SyntheticCollectionManager.sol:SyntheticCollectionManager",
        "label": "jotsSupply",
        "offset": 0,
        "slot": "9",
        "type": "t_uint256"
      },
      {
        "astId": 11054,
        "contract": "contracts/polygon/implementations/SyntheticCollectionManager.sol:SyntheticCollectionManager",
        "label": "jotAddress",
        "offset": 0,
        "slot": "10",
        "type": "t_address"
      },
      {
        "astId": 11057,
        "contract": "contracts/polygon/implementations/SyntheticCollectionManager.sol:SyntheticCollectionManager",
        "label": "fundingTokenAddress",
        "offset": 0,
        "slot": "11",
        "type": "t_address"
      },
      {
        "astId": 11063,
        "contract": "contracts/polygon/implementations/SyntheticCollectionManager.sol:SyntheticCollectionManager",
        "label": "_jots",
        "offset": 0,
        "slot": "12",
        "type": "t_mapping(t_uint256,t_struct(JotsData)10973_storage)"
      },
      {
        "astId": 11066,
        "contract": "contracts/polygon/implementations/SyntheticCollectionManager.sol:SyntheticCollectionManager",
        "label": "erc721address",
        "offset": 0,
        "slot": "13",
        "type": "t_address"
      },
      {
        "astId": 11069,
        "contract": "contracts/polygon/implementations/SyntheticCollectionManager.sol:SyntheticCollectionManager",
        "label": "uniswapV2Router",
        "offset": 0,
        "slot": "14",
        "type": "t_contract(IUniswapV2Router02)9005"
      },
      {
        "astId": 11071,
        "contract": "contracts/polygon/implementations/SyntheticCollectionManager.sol:SyntheticCollectionManager",
        "label": "jotPool",
        "offset": 0,
        "slot": "15",
        "type": "t_address"
      }
    ],
    "types": {
      "t_address": {
        "encoding": "inplace",
        "label": "address",
        "numberOfBytes": "20"
      },
      "t_bool": {
        "encoding": "inplace",
        "label": "bool",
        "numberOfBytes": "1"
      },
      "t_bytes32": {
        "encoding": "inplace",
        "label": "bytes32",
        "numberOfBytes": "32"
      },
      "t_contract(IUniswapV2Router02)9005": {
        "encoding": "inplace",
        "label": "contract IUniswapV2Router02",
        "numberOfBytes": "20"
      },
      "t_contract(ProtocolParameters)10612": {
        "encoding": "inplace",
        "label": "contract ProtocolParameters",
        "numberOfBytes": "20"
      },
      "t_mapping(t_address,t_bool)": {
        "encoding": "mapping",
        "key": "t_address",
        "label": "mapping(address => bool)",
        "numberOfBytes": "32",
        "value": "t_bool"
      },
      "t_mapping(t_bytes32,t_struct(Flip)10978_storage)": {
        "encoding": "mapping",
        "key": "t_bytes32",
        "label": "mapping(bytes32 => struct Flip)",
        "numberOfBytes": "32",
        "value": "t_struct(Flip)10978_storage"
      },
      "t_mapping(t_bytes32,t_struct(RoleData)285_storage)": {
        "encoding": "mapping",
        "key": "t_bytes32",
        "label": "mapping(bytes32 => struct AccessControl.RoleData)",
        "numberOfBytes": "32",
        "value": "t_struct(RoleData)285_storage"
      },
      "t_mapping(t_uint256,t_bool)": {
        "encoding": "mapping",
        "key": "t_uint256",
        "label": "mapping(uint256 => bool)",
        "numberOfBytes": "32",
        "value": "t_bool"
      },
      "t_mapping(t_uint256,t_string_storage)": {
        "encoding": "mapping",
        "key": "t_uint256",
        "label": "mapping(uint256 => string)",
        "numberOfBytes": "32",
        "value": "t_string_storage"
      },
      "t_mapping(t_uint256,t_struct(JotsData)10973_storage)": {
        "encoding": "mapping",
        "key": "t_uint256",
        "label": "mapping(uint256 => struct JotsData)",
        "numberOfBytes": "32",
        "value": "t_struct(JotsData)10973_storage"
      },
      "t_string_storage": {
        "encoding": "bytes",
        "label": "string",
        "numberOfBytes": "32"
      },
      "t_struct(Counter)6528_storage": {
        "encoding": "inplace",
        "label": "struct Counters.Counter",
        "members": [
          {
            "astId": 6527,
            "contract": "contracts/polygon/implementations/SyntheticCollectionManager.sol:SyntheticCollectionManager",
            "label": "_value",
            "offset": 0,
            "slot": "0",
            "type": "t_uint256"
          }
        ],
        "numberOfBytes": "32"
      },
      "t_struct(Flip)10978_storage": {
        "encoding": "inplace",
        "label": "struct Flip",
        "members": [
          {
            "astId": 10975,
            "contract": "contracts/polygon/implementations/SyntheticCollectionManager.sol:SyntheticCollectionManager",
            "label": "tokenId",
            "offset": 0,
            "slot": "0",
            "type": "t_uint256"
          },
          {
            "astId": 10977,
            "contract": "contracts/polygon/implementations/SyntheticCollectionManager.sol:SyntheticCollectionManager",
            "label": "prediction",
            "offset": 0,
            "slot": "1",
            "type": "t_uint256"
          }
        ],
        "numberOfBytes": "64"
      },
      "t_struct(JotsData)10973_storage": {
        "encoding": "inplace",
        "label": "struct JotsData",
        "members": [
          {
            "astId": 10960,
            "contract": "contracts/polygon/implementations/SyntheticCollectionManager.sol:SyntheticCollectionManager",
            "label": "ownerSupply",
            "offset": 0,
            "slot": "0",
            "type": "t_uint256"
          },
          {
            "astId": 10962,
            "contract": "contracts/polygon/implementations/SyntheticCollectionManager.sol:SyntheticCollectionManager",
            "label": "sellingSupply",
            "offset": 0,
            "slot": "1",
            "type": "t_uint256"
          },
          {
            "astId": 10964,
            "contract": "contracts/polygon/implementations/SyntheticCollectionManager.sol:SyntheticCollectionManager",
            "label": "soldSupply",
            "offset": 0,
            "slot": "2",
            "type": "t_uint256"
          },
          {
            "astId": 10966,
            "contract": "contracts/polygon/implementations/SyntheticCollectionManager.sol:SyntheticCollectionManager",
            "label": "liquiditySupply",
            "offset": 0,
            "slot": "3",
            "type": "t_uint256"
          },
          {
            "astId": 10968,
            "contract": "contracts/polygon/implementations/SyntheticCollectionManager.sol:SyntheticCollectionManager",
            "label": "liquiditySold",
            "offset": 0,
            "slot": "4",
            "type": "t_uint256"
          },
          {
            "astId": 10970,
            "contract": "contracts/polygon/implementations/SyntheticCollectionManager.sol:SyntheticCollectionManager",
            "label": "fractionPrices",
            "offset": 0,
            "slot": "5",
            "type": "t_uint256"
          },
          {
            "astId": 10972,
            "contract": "contracts/polygon/implementations/SyntheticCollectionManager.sol:SyntheticCollectionManager",
            "label": "lastFlipTime",
            "offset": 0,
            "slot": "6",
            "type": "t_uint256"
          }
        ],
        "numberOfBytes": "224"
      },
      "t_struct(RoleData)285_storage": {
        "encoding": "inplace",
        "label": "struct AccessControl.RoleData",
        "members": [
          {
            "astId": 282,
            "contract": "contracts/polygon/implementations/SyntheticCollectionManager.sol:SyntheticCollectionManager",
            "label": "members",
            "offset": 0,
            "slot": "0",
            "type": "t_mapping(t_address,t_bool)"
          },
          {
            "astId": 284,
            "contract": "contracts/polygon/implementations/SyntheticCollectionManager.sol:SyntheticCollectionManager",
            "label": "adminRole",
            "offset": 0,
            "slot": "1",
            "type": "t_bytes32"
          }
        ],
        "numberOfBytes": "64"
      },
      "t_uint256": {
        "encoding": "inplace",
        "label": "uint256",
        "numberOfBytes": "32"
      }
    }
  }
}